:020000040800F2
:10000000A0060024AD020008634400081B4100085C
:1000100061440008B90300085D54000800000000B6
:10002000000000000000000000000000754700080C
:100030000108000800000000654400087747000838
:10004000C7020008C7020008C7020008C70200086C
:10005000C7020008C7020008C7020008C70200085C
:10006000C7020008C7020008C7020008C70200084C
:10007000C7020008C7020008C7020008C70200083C
:10008000BD030008C7020008C7020008C702000835
:10009000C7020008C7020008C7020008C70200081C
:1000A000C7020008C7020008C7020008C70200080C
:1000B000C702000829490008C7020008C702000853
:1000C000C7020008C7020008C7020008C7020008EC
:1000D000C7020008C7020008C7020008C7020008DC
:1000E000C7020008C702000800000000C70200089D
:1000F000C7020008C7020008C7020008C7020008BC
:10010000C7020008C7020008C7020008C7020008AB
:10011000C7020008C7020008C7020008C70200089B
:10012000C7020008C7020008C7020008C70200088B
:10013000C7020008C7020008C7020008C70200087B
:1001400000000000000000000000000000000000AF
:10015000C7020008C7020008C7020008C70200085B
:10016000C7020008C7020008C7020008C70200084B
:10017000C7020008C7020008C7020008C70200083B
:10018000C7020008C7020008C7020008C70200082B
:10019000C7020008C7020008C7020008C70200081B
:1001A000C7020008C7020008C7020008C70200080B
:1001B000C7020008C7020008C7020008C7020008FB
:1001C000C7020008C7020008C7020008C7020008EB
:1001D000C7020008C7020008C7020008C7020008DB
:1001E000C7020008C7020008C7020008C7020008CB
:1001F000C7020008C7020008C7020008C7020008BB
:10020000C7020008C7020008C7020008C7020008AA
:10021000C7020008C7020008C7020008C70200089A
:10022000C7020008C7020008C7020008000000005B
:10023000C7020008C702000800000000C70200084B
:10024000C7020008C7020008C7020008C70200086A
:10025000C7020008C7020008C7020008C70200085A
:10026000C7020008C7020008C7020008C70200084A
:10027000C7020008C7020008C7020008000000000B
:10028000C7020008C7020008C702000800000000FB
:1002900000000000C7020008DFF80CD000F07AF878
:1002A00000480047CD550008A006002406488047B6
:1002B00006480047FEE7FEE7FEE7FEE7FEE7FEE74B
:1002C000FEE7FEE7FEE7FEE7454800089902000862
:1002D0002DE9F05F0546002092469B46884606467B
:1002E000814640241BE0284641464746224600F00E
:1002F00041F853465A46C01A914110D31146184648
:10030000224600F028F82D1A67EB01084F462246D6
:100310000120002100F01FF817EB00094E41201EBC
:10032000A4F10104DFDC484631462A464346BDE8D5
:10033000F09FD2B201E000F8012B491EFBD27047BA
:100340000022F6E710B513460A4604461946FFF7A1
:10035000F0FF204610BD202A04DB203A00FA02F10B
:10036000002070479140C2F1200320FA03F31943A3
:1003700090407047202A04DB203A21FA02F0002145
:10038000704721FA02F3D040C2F1200291400843A5
:1003900019467047064C074D06E0E06840F001033F
:1003A00094E8070098471034AC42F6D3FFF778FF83
:1003B0000057000820570008FEE70000014800F041
:1003C00059BC000098010024294A016891423AD0A2
:1003D000274A1832914236D0254A3032914232D0E3
:1003E000234A483291422ED0214A603291422AD08B
:1003F0001F4A7832914226D01D4A9032914222D033
:100400001B4AA83291421ED01A4A91421BD0194A67
:100410001832914217D0174A3032914213D0154A00
:10042000483291420FD0134A603291420BD0114AA8
:100430007832914207D00F4A9032914203D00D4A50
:10044000A832914211D1CAB21823103AB2FBF3F28A
:100450006FF30901032A02F00703074AD25CC26561
:1004600000D9091D81650846704721F0FF01F9E7B1
:100470001000024010040240D056000830B5224A55
:10048000012301689142CAB21BD01F4C1434A1420F
:1004900017D01D4C2834A14213D01B4C3C34A14230
:1004A0000FD0194C5034A1420BD0174C6434A142E8
:1004B00007D0154C7834A14203D0134C8C34A142A0
:1004C0000CD11421114C083AB2FBF1F10F4A8032E1
:1004D00001F01F0504EB8101AB4010E00C4D182426
:1004E000103A0D44B2FBF4F1A82D00D80831094AA6
:1004F00001F01F0402EB8101064AA3408032603004
:1005000080E80E0030BD0000085402580058025820
:10051000F0FBFDBF0008024010B50279531E072B07
:100520002DD8174C0168A1421BD0154C1434A142A0
:1005300017D0134C2834A14213D0114C3C34A142A3
:100540000FD00F4C5034A1420BD00D4C6434A1425B
:1005500007D00B4C7834A14203D0094C8C34A14213
:1005600003D10849074C443102E00749064C4431A5
:1005700004EB8202C0E91B2101219940416710BDB3
:1005800008540258FC580258FC08024010B5836910
:100590004FF0C074826A0146002053B1B3F5005F8A
:1005A00015D072B1012A0CD0022A0AD0032A09D12F
:1005B00004E01AB1012A06D0022A03D1C96AC9018E
:1005C00000D5012010BDC96AA142FAD010BD002A91
:1005D000F7D0012AF2D0022AF3D0032AF3D010BDBB
:1005E0002DE9F04F804E804FDFF8FC911836DFF890
:1005F000F8A148370468856D0AF1300ADFF8ECB1DC
:100600004C45DFF8ECC1DFF8ECE16DD0B4426BD0C3
:10061000544569D0BC4267D0DFF8D081A8F11808F2
:10062000444561D05C455FD064455DD074455BD086
:10063000DFF8C481444557D0DFF8BC8108F11808C1
:10064000444551D0DFF8B08108F1300844454BD023
:10065000DFF8A48108F14808444545D0DFF89881C7
:1006600008F1600844453FD0DFF88C8108F1780834
:10067000444539D0DFF8808108F19008444533D0F3
:10068000DFF8748108F1A80844452DD0DFF86C81AB
:10069000444529D0DFF8648108F11408444523D08B
:1006A000DFF8588108F1280844451DD0DFF84C8157
:1006B00008F13C08444517D0DFF8408108F15008A4
:1006C000444511D0DFF8348108F1640844450BD06B
:1006D000DFF8288108F17808444505D0DFF81C814F
:1006E00008F18C08444509D1D0E91948C4F80480C0
:1006F000C46E1CB1D0E91C48C4F8048004684C45A1
:100700002ED0B4422CD054452AD0BC4228D0374EEB
:10071000183EB44224D05C4522D0644520D07445B4
:100720001ED0354EB4421BD0334E1836B44217D0CB
:10073000314E3036B44213D02F4E4836B4420FD02B
:100740002D4E6036B4420BD02B4E7836B44207D0D3
:10075000294E9036B44203D0274EA836B44215D164
:1007600090F85C603F2406F01F06B440AC6004685B
:10077000256825F4802525602EE09A600068C16018
:10078000BDE8F08F99600068C260F9E71B4EB44283
:100790001BD01A4E1436B44217D0184E2836B44225
:1007A00013D0164E3C36B4420FD0144E5036B442DD
:1007B0000BD0124E6436B44207D0104E7836B44295
:1007C00003D00E4E8C36B442DAD190F85C6001242E
:1007D00006F01F06B4406C60046863608368402BB9
:1007E0000368CFD1C9E70000100002408800024032
:1007F000A0000240B8000240100402400854025811
:1008000070470000F0B5212488B05FF000036A460D
:1008100042F823405B1C082BFADB1E4B642608249D
:100820005F689D6A97FBF6F3434300BF03EBD37009
:1008300020F001069B1B012B03D102EB840343F83C
:10084000045C4310641EF1D171B1012917D0022953
:1008500008D111495FF0000012F820300B54401C01
:100860000828F9DB08B0F0BD0B4910395FF0000033
:1008700012F820300B54401C0828F9DBF2E7064937
:100880000839002012F820300B54401C0828F9DBEE
:10089000E8E70000400000241200002472B6FEE7E2
:1008A000F0B5D1E90843CD690A68C2B102682543B1
:1008B00022F4F84213431D430560D1E90125D1E933
:1008C00003364C692A434568334389691A43EB0B65
:1008D0002243DB030A431A4342600020F0BDD1E902
:1008E000012ED1E9036CD1E9057142EA0E0246EA14
:1008F0000C0632433A430A4301682A4322431A430F
:100900006FF30E010A430260E7E7426943F6FE73A4
:100910009A4342EA410141610020704770B5D1E934
:100920000024D1E9023105696FF01F06224306EB6E
:10093000431343EA41210A432A430261002070BD68
:100940002DE9F04F8B8A6FF00F05264C4FF07F4B4F
:10095000D1F80C9004EB03536FF0FF044FEA042A24
:100960001AB386684FEA09321F4FA2F580521A4324
:100970003E4032438260D1E900278E68521E05EB6B
:1009800007150F8A2A43C56804EB06240E7E0AEB7E
:10099000074322431A430BEB06610A4305F07043F9
:1009A0001A43C2600020BDE8F08F91E804110F4E99
:1009B000521E0F8A05EB08152A4304EB0C2C06EB9C
:1009C00009350E7E42EA0C022A4385680AEB074489
:1009D00022431A430BEB06610A4305F070431A43A6
:1009E0008260DFE70000F0FFFF0F0FFF00F0FFFF66
:1009F0002DE9F05F28B190F83510022904D080214C
:100A000041650120BDE8F09F904C904B0168183C77
:100A100018338E4ADFF83C92A1428D4CDFF838E261
:100A20008E4FDFF83CB2DFF83CA28F4D8F4E31D0B5
:100A300091422FD099422DD0A1422BD0494529D0A7
:100A4000714527D0B94225D0DFF810C20CF1180C3F
:100A500061451FD0DFF808C2ACF1600C614519D0C8
:100A6000DFF8FCC1ACF1480C614513D0DFF8F0C1F0
:100A7000ACF1300C61450DD0DFF8E4C1ACF1180CDD
:100A8000614507D0594505D0514503D0A94201D051
:100A9000B1422CD1DFF8B4C14FF0040880F83580A2
:100AA000ACF1180C61451DD091421BD0994219D070
:100AB000A14217D0494515D0714513D0B94211D084
:100AC0006648183081420DD065486038814209D0AF
:100AD00063484838814205D061483038814201D0AE
:100AE0005F481838086820F001000860ABE0D1F8D2
:100AF00000C02CF00E08DFF854C1C1F80080ACF142
:100B0000180C0168614527D0914225D0994223D025
:100B1000A14221D049451FD071451DD0B9421BD0FB
:100B2000DFF838C10CF1180C614515D0DFF830C181
:100B3000ACF1600C61450FD0DFF824C1ACF1480C7A
:100B4000614509D0DFF818C1ACF1300C614503D024
:100B5000DFF80CC1ACF1180CD1F800C02CF0010C7E
:100B6000C1F800C0DFF8E4804FF0010C0168A8F183
:100B70001808414546D0914244D0994242D0A14202
:100B800040D049453ED071453CD0B9423AD0334A75
:100B90001832914236D0324A603A914232D0304ACD
:100BA000483A91422ED02E4A303A91422AD02C4ACD
:100BB000183A914226D0594524D0514522D0A94215
:100BC00020D0B1421ED02A4A91421BD0284A14326A
:100BD000914217D0264A2832914213D0244A3C32FF
:100BE00091420FD0224A503291420BD0204A6432B7
:100BF000914207D01E4A7832914203D01C4A8C326F
:100C0000914218D1016E0A6822F480720A6090F84D
:100C10005C20816D02F01F020CFA02F24A60D0E9FA
:100C200019124A60C16E31B10A6822F480720A60FA
:100C3000D0E91C124A600022016D80F8342080F84F
:100C400035C001B188470020DCE6000028000240E2
:100C5000580002407000024088000240A00002409C
:100C60007004024088040240A0040240B80402401C
:100C7000085402582DE9FC5F0446FA4E0020DFF8C4
:100C8000E48300904FF41652F74808F11808A56D58
:100C9000DFF8D0A3DFF8CCB301680AF1300A20688E
:100CA0000BF1480BB1FBF2F1B04201912F68D5F87E
:100CB00000C0DFF8B89336D04146884233D0504563
:100CC00031D058452FD0E749603188422BD0E549D3
:100CD0007831884227D0E3499031884223D0E149D6
:100CE000A83188421FD048451DD0E04918318842BC
:100CF00019D0DE493031884215D0DC4A4832904262
:100D000011D0DA49603188420DD0DFF860E30EF18E
:100D1000780E704507D0D54B9033984203D0D34915
:100D2000A83188427ED194F85C20082102F01F028D
:100D300001FA02F23A424BD0B04233D0404531D0B2
:100D400050452FD058452DD0C64A6032904229D008
:100D5000C44A7832904225D0C24A9032904221D083
:100D6000C04AA83290421DD048451BD0BF4A183215
:100D7000904217D0BD4A3032904213D0BB4A48321D
:100D800090420FD0B94A603290420BD0B74A7832C5
:100D9000904207D0B54A9032904203D0B34AA8326D
:100DA000904203D1026802F0040202E0026802F0FD
:100DB00008026AB1026822F00402026094F85C0042
:100DC00000F01F008140A960606D40F00100606587
:100DD00094F85C00012100F01F008140394241D0AD
:100DE0002068B04235D0404533D0504531D05845C9
:100DF0002FD09C4A603290422BD09A4A783290424F
:100E000027D0984A9032904223D0964AA8329042F6
:100E10001FD048451DD0954A1832904219D0934AA8
:100E2000303200E0B2E1904213D0904A4832904212
:100E30000FD08E4A603290420BD08C4A783290426A
:100E400007D08A4A9032904203D0884AA832904212
:100E50007ED1406910F0800F04D0A960606D40F031
:100E60000200606594F85C00042100F01F008140DE
:100E700039423FD02068B04233D0404531D0504550
:100E80002FD058452DD0774A6032904229D0754AEC
:100E90007832904225D0734A9032904221D0714AE4
:100EA000A83290421DD048451BD0704A183290425B
:100EB00017D06E4A3032904213D06C4A483290427A
:100EC0000FD06A4A603290420BD0684A7832904222
:100ED00007D0664A9032904203D0644AA8329042CA
:100EE0004FD1006810F0020F04D0A960606D40F08F
:100EF0000400606594F85C00102100F01F00814040
:100F0000394259D02068B04235D0404533D05045A1
:100F100031D058452FD0534A603290422BD0514A9D
:100F20007832904227D04F4A9032904223D04D4A97
:100F3000A83290421FD048451DD04C4A18329042EA
:100F400019D04A4A3032904215D0484A483200E01F
:100F500015E090420FD0454A603290420BD0434A90
:100F60007832904207D0414A9032904203D03F4AB3
:100F7000A832904207D1006800F0080006E000683F
:100F800070E70068B6E7006800F00400A0B1A9604F
:100F900020680168490304D50068000308D5A16CE6
:100FA00007E00168C90503D4016821F00801016068
:100FB000216C09B12046884794F85C00202100F09C
:100FC0001F008140394278D02068B04233D040457C
:100FD00031D050452FD058452DD0224A6032904212
:100FE00029D0204A7832904225D01E4A9032904231
:100FF00021D01C4AA83290421DD048451BD01B4A24
:101000001832904217D0194A3032904213D0174A02
:10101000483290420FD0154A603290420BD0134AAA
:101020007832904207D0114A9032904203D00F4A52
:10103000A832904203D1006800F0100002E000687E
:1010400000F00200A0B3A96094F8350004282068DD
:1010500001680DD049037DD50068000329D4616C77
:1010600028E0000010000240340000241004024078
:1010700021F0160101602068416921F08001416181
:10108000206C08B9A06C20B12068016821F008012B
:10109000016094F85C303F21002203F01F0301201F
:1010A0009940A96084F8342084F83500216D66E009
:1010B00003E0E16B09B120468847606D00287DD0D0
:1010C000606DC0075AD02068042184F83510B04202
:1010D0002BD0404529D0504527D0584525D09E4992
:1010E000884222D09C49183188421ED09A4930311A
:1010F00088421AD098494831884216D0484514D0C1
:101100009649884211D09549183188420DD09349AB
:101110003031884209D091494831884205D08F4901
:101120006031884201D08D497831016821F0010198
:10113000016020680099019A491C0091914202D8EF
:101140000168C907F6D1002184F834100068C0078F
:1011500011D000E001E003200EE00168C905A8D429
:1011600003680022012123F01003036084F8342077
:1011700084F835109DE7012084F83500E16C0029E2
:101180001CD002B02046BDE8F05F08477449884291
:101190001DD073491431884219D0714928318842D1
:1011A00015D06F493C31884211D06D495031884289
:1011B0000DD06B496431884209D000E086E068496F
:1011C0007831884203D066498C3188427ED194F8C8
:1011D0005C800427016808F01F0807FA08F717EA7F
:1011E0000C0F009746D04F0744D500980F04686055
:1011F00003D5C8033CD4A16CC1E7880638D4206865
:10120000B0422DD054494839884229D0504527D082
:10121000584525D05049884222D04F49183188423C
:101220001ED04D49303188421AD04B49483188424E
:1012300016D0484514D04949884211D04749183141
:1012400088420DD090420BD044494831884207D0A3
:10125000704505D0984203D040499031884203D16F
:10126000016821F0080102E0016821F00401016039
:10127000216C84E7022707FA08F717EA0C0F00979A
:101280004ED08F074CD500980F04686003D5C80373
:1012900044D4616C73E7880640D42068B0422FD0F4
:1012A0002D49483988422BD0504529D0584527D060
:1012B0002949884224D028491831884220D026491B
:1012C000303188421CD02449483100E041E0884256
:1012D00016D0484514D02149884211D01F491831F1
:1012E00088420DD090420BD01C494831884207D02B
:1012F000704505D0984203D018499031884203D1F7
:10130000016821F0140102E0016821F00A01016086
:10131000002184F83410012084F83500E16B2EE7B9
:10132000082202FA08F212EA0C0F12D0090710D5AF
:10133000016821F00E01016094F85C100120002288
:1013400001F01F0100FA01F16960606584F8342042
:1013500012E7BDE8FC9F0000700002402804024034
:10136000085402582DE9F05F044600F0B1FC002C4F
:1013700007467DD0E34E022120684FF00308DFF8D6
:1013800088934FF00005DFF884A3B042DFF880B304
:1013900034D0DC4A1832904230D048452ED05045E7
:1013A0002CD058452AD0DA4A1832904226D0D84A52
:1013B0003032904222D0D64A483290421ED0D54A8E
:1013C00090421BD0D34A1832904217D0D14A3032C3
:1013D000904213D0CF4A483290420FD0CD4A60326B
:1013E00090420BD0CB4A7832904207D0C94A903213
:1013F000904203D0C74AA83290427DD184F834503D
:1014000084F83510B0422ED0BE49183188422AD017
:10141000484528D0504526D0584524D0BC491831DD
:10142000884220D0BA49303188421CD0B84948316E
:10143000884218D0B749884215D0B6491831884239
:1014400011D0B449303188420DD0B2494831884278
:1014500009D0B0496031884205D0AE497831884220
:1014600001D0AC499031016821F00101016008E030
:1014700027E100BF00F02CFCC01B052801D920216A
:101480001CE120680068C007F4D104F1080021685D
:10149000D4E9053C8E4685C809681043D4E907287D
:1014A0001F43636A38439C4F40EA0C0010433940A5
:1014B00040EA0800042B40EA010003D1D4E90B12F2
:1014C00011430843954909686FF30F01B1F1005FBB
:1014D0000FD36168A1F12902052A08D9163A032A17
:1014E00005D9083A012A02D94F39032901D840F415
:1014F0008010CEF8000000E023E02068676A4069B1
:10150000042F20F0070047EA00070DD1D4E90A01B3
:10151000074349B12046FFF739F828B140206065FC
:10152000012184F83510CCE0206847612046FEF7A1
:101530004BFF94F85C203F2102F01F029140816034
:1015400054E0774A90421BD0754B1433984217D021
:10155000734B2833984213D0714B3C3398420FD0D1
:101560006F4B503398420BD06D4B6433984207D089
:101570006B4B7833984203D0694B8C3398427DD1C2
:10158000684B84F8345084F835100168A26801EA89
:10159000030E402A73D0802A72D00022D4E9037847
:1015A000D4E9053142EAD70242EAD8085C4AD4E9D4
:1015B000077C48EAD30848EAD10141EAD701524200
:1015C00041EA1C11142341EA0E0101602068104415
:1015D000B0FBF3F08000E0652046FEF7F5FE94F8DE
:1015E0005C20012102F01F02914041602068B0425E
:1015F00057D044491831884253D0484551D05045BE
:101600004FD058454DD042491831884249D04049C1
:101610003031884245D03E494831884241D03D4929
:1016200088423ED03B49183188423AD0394930315E
:10163000884236D037494831884232D03549603106
:1016400088422ED03349783188422AD031499031AE
:10165000884226D02F49A831884222D0304988427A
:101660001FD02F49143188421BD02D492831884280
:1016700017D02B493C31884213D002E01DE017E01F
:1016800018E02749503188420BD0254964318842FF
:1016900007D023497831884203D021498C318842D0
:1016A00029D12046FEF7EAFEA06880280CD00CE085
:1016B000102273E74FF4804270E74021616584F89F
:1016C00035800120BDE8F09F6560216E20790860BB
:1016D000D4E9190141606068401E072808D82046F7
:1016E000FEF71AFFE06E0560D4E91C01416002E0DC
:1016F000E566256765670120656584F8350000208B
:10170000E0E70000100002404000024058000240A4
:1017100070000240100402403F8010FE0010005C88
:10172000085402580F00FEFF2DE9F84F04008C46C4
:101730004FF00000009013D094F83400012811D02D
:1017400094F835500120002184F83400012D0BD08D
:1017500084F83410C202009062650098BDE8F88FEA
:101760000120FBE70220F9E78C4D0226206884F86F
:101770003560A8428A4D61658A4E8B4FDFF82C8216
:10178000DFF82C92DFF82CA2DFF82CB226D0A8428A
:1017900024D0B04222D0B84220D040451ED0484587
:1017A0001CD050451AD0584518D08449884215D0CD
:1017B00082491831884211D08049303188420DD099
:1017C0007E494831884209D07C496031884205D041
:1017D0007A497831884201D078499031016821F006
:1017E0000101016061462046FEF7FAFE6B49206860
:1017F00088422CD0A8422AD0B04228D0B84226D065
:10180000404524D0484522D0504520D058451ED0D0
:101810006A4A90421BD0694A1832904217D0674AF0
:101820003032904213D0654A483290420FD0634A1A
:10183000603290420BD0614A7832904207D05F4AC2
:101840009032904203D05D4AA83290420CD1026897
:1018500022F01E0242F016020260206C88B120685D
:10186000026842F008020BE0026822F00E0242F029
:101870000A020260206C20B12068026842F0040273
:101880000260206888424BD0A84249D0B04247D07D
:10189000B84245D0404543D0484541D050453FD05F
:1018A00058453DD0454A90423AD0444A1832904279
:1018B00036D0424A3032904232D0404A483290428A
:1018C0002ED03E4A603290422AD03C4A7832904232
:1018D00026D03A4A9032904222D0384AA8329042DA
:1018E0001ED0374A90421BD0354A1432904217D04E
:1018F000334A2832904213D0314A3C3290420FD0C2
:101900002F4A503290420BD02D4A6432904207D079
:101910002B4A7832904203D0294A8C3290420DD122
:10192000206E0268D20303D5026842F4807202601E
:10193000E06E18B1026842F480720260206888424A
:1019400026D0A84224D0B04222D0B84220D0404570
:101950001ED048451CD050451AD0584518D01749BC
:10196000884215D015491831884211D013493031B9
:1019700088420DD011494831884209D00F49603161
:10198000884205D00D497831884201D00B49903109
:10199000016841F001010160DFE600001000024033
:1019A00028000240400002405800024070000240FF
:1019B00088000240A0000240B8000240100402402B
:1019C0000854025870B5044600F082F90546601CC0
:1019D00002D004480078044400F07AF9401BA04289
:1019E000FAD370BD28000024F0B587B014216846F2
:1019F000FEF7A6FC1D480168002935D101210160D0
:101A00001B48016841F480510160006802240025F0
:101A1000694600F48050059003264FF683700C272A
:101A20008DE8F100134800F02FF848F237106946AE
:101A30008DE8F100104800F027F84CF20370694679
:101A40008DE8F1000D4800F01FF84FF63F006946A1
:101A50008DE8F1000A4800F017F80D2069468DE87E
:101A6000F100084800F010F807B0F0BD1C00002499
:101A7000D44402580010025800180258000C0258B2
:101A800000140258000802582DE9FC4F01257E4C35
:101A900000234FF0030A4FF0B04E4FF00F0BEBE076
:101AA00005FA03F637403A0077D04F68012F05D08A
:101AB000022F03D0112F01D0122F1AD187684FEABD
:101AC0004308D1F80CC00AFA08F927EA09070CFA0A
:101AD00008FC4CEA070CC0F808C0476891F804C03D
:101AE000B743CCF3001C0CFA03FC4CEA070CC0F81B
:101AF00004C0C6684FEA430CD1F80880E1460AFAF0
:101B00000CF7BE43019708FA09F848EA0608C0F83E
:101B10000C804E68022E01D0122E12D1DE084FEA40
:101B2000437C00EB860600960F69366A4FEADC6C50
:101B30000BFA0CF807FA0CF726EA08063743009E62
:101B400037620E790768DDF804C006F0030606FA6E
:101B500009F627EA0C073E4306604E68F6001CD5DE
:101B60004A4E376847F00207376036689F0706F02D
:101B70000206009623F0030606F1B046B1463F0F79
:101B8000D6F80864DFF808810BFA07FC404526EA1E
:101B90000C0603D14FF0000C41E06CE0DFF8F4C01C
:101BA000604502D14FF0010C39E0DFF8ECC0604530
:101BB00002D14FF0020C32E0DFF8E0C0604502D104
:101BC0004FF0030C2BE0DFF8D8C0604502D14FF096
:101BD000040C24E0DFF8CCC0604502D14FF0050CC6
:101BE0001DE0DFF8C4C0604502D14FF0060C16E0DE
:101BF000DFF8B8C0604502D14FF0070C0FE0DFF806
:101C0000B0C0604502D14FF0080C08E0DFF8A4C076
:101C1000604502D14FF0090C01E04FF00A0C0CFABC
:101C200007FC4CEA060CC9F808C426684F6826EA87
:101C30000206FF0300D51643266066684F6826EA51
:101C40000206BF0300D516436660D1F804C076468D
:101C5000DEF800705FEACC2C27EA020700D51743B4
:101C60003760D1F804C077685FEA8C2C27EA020756
:101C700000D5174377605B1C0A681746DA407FF48B
:101C80000FAFBDE8FC8F000080000058F4440258FC
:101C9000000002580004025800080258000C0258C4
:101CA000001002580014025800180258001C025874
:101CB00000200258002402580AB1816170470904CB
:101CC000FBE7000001480068000C70470010005C52
:101CD000014880687047000028000024024881689D
:101CE000027811448160704728000024032010B559
:101CF00000F086F801F094F80F4A10491468136850
:101D0000C4F3032203F00F038A5CC95C02F01F02D4
:101D100001F01F01D0400A4A20FA01F1116009497F
:101D20000860002000F010F808B1012010BD00F09C
:101D30002BF8002010BD000018440258F05600088F
:101D4000380000243400002470B50D4D0446287876
:101D5000A0B14FF47A71B1FBF0F00A490968B1FB08
:101D6000F0F001F0DDFB48B9102C07D2002221462B
:101D7000501E00F025F800206C6070BD012070BD81
:101D80002800002434000024054808B5016841F00B
:101D900002010160006800F00200009008BD000030
:101DA000F4440258002809DB410900F01F028900B1
:101DB000012001F1E0219040C1F8000170470000CE
:101DC0000E4BF0B41B680D46C3F30223C3F10706A4
:101DD000042E00D90426191D072901D2002300E092
:101DE000DB1E012404FA06F19C40491E2940641EB2
:101DF000994014402143F0BC03F0AABB0CED00E075
:101E0000064900F0070210B54FF6FF040868044BBE
:101E1000204040EA02201843086010BD0CED00E0AD
:101E20000000FA05134970B50A68D243520705D578
:101E3000096801F00701814213D118E00A6822F015
:101E4000070202430A60FFF743FF0A4D4FF47A7618
:101E50000446083D07E000BFFFF73AFF001BB04211
:101E600001D9012070BD2868C0438004F4D400204B
:101E700070BD00000C480258F8B50446FFF728FF73
:101E800005461CB194F8410010B107E00120F8BDEF
:101E9000204600F047F841F28830A06420686FF0D7
:101EA000FF02A168036802EB012223F47061114371
:101EB0000160A06C002220212B460090204602F0F9
:101EC000D2FA0028E3D12268D4E907352679E168FF
:101ED000176845EA0665DFF844C01943104B2943EB
:101EE0000025012607EA0C07394311602268D4E96E
:101EF0000517B4F810C0D2F804E039430EEA030E17
:101F00004EEA0C431943516021680A6842F001020D
:101F10000A60656484F84160F8BD00002FFFFF008F
:101F2000FEF8E0FFF0B587B0044614216846FEF7DE
:101F300007FA2349206888423FD12248016841F4CA
:101F400080410160006800F4804005901D480C301D
:101F5000016841F040010160016801F04001059114
:101F6000016841F020010160006800240A266946EA
:101F700000F0200005904020009002251248CDE995
:101F80000154CDE90346FFF77FFD09210F4F4FF4C0
:101F900098600090CDE90154CDE903416946384687
:101FA000FFF772FD4FF440700090CDE90154CDE988
:101FB000034669463846FFF767FD07B0F0BD0000ED
:101FC00000500052D444025800180258001402581D
:101FD00010B500F0DFFE05490968054AC1F302119A
:101FE000515C01F01F01C84010BD000020440258A0
:101FF000F0560008494930B5484C0B1D0A681434A6
:1020000009681D68246802F00303C5F30012C1F3D8
:102010000531C4F3CC04002914FB02F200EE102AAF
:10202000F8EE400A75D03F4A9FED3D1AB7EE000A20
:102030006BB1DFED3D1A012B01D0022B64D002EE13
:10204000101A1168F8EE422A81EEA22A21E0334CE0
:10205000283C23689B0612D5344B246801EE901A65
:102060001168C4F3C104F8EE612AE34001EE903A2E
:10207000C1F30801F8EE611A81EEA22A0BE001EE2D
:10208000901ADFED2B2A00BFF8EE611A116882EE7C
:10209000A12AC1F3080101EE901A1168F8EE611A45
:1020A00040EE811A71EE800A62EE200AC1F34621E9
:1020B00001EE101AB8EE411A31EE001AC0EE811A84
:1020C000BCEEE11A80ED001A1168C1F3064101EE81
:1020D000101AB8EE411A31EE001AC0EE811ABCEEA9
:1020E000E11A80ED011A1168C1F3066101EE101AC0
:1020F000B8EE411A31EE000A80EE801ABCEEC10A39
:1021000080ED020A30BD04E001EE901ADFED092AED
:10211000BAE70021016041608160F3E7284402587A
:1021200000000039384402580024744A0090D0035B
:102130000024744C20BCBE4B494930B5484C0B1DA3
:102140000A681C3409681D68246802F00303C5F39B
:102150000022C1F30551C4F3CC04002914FB02F2A0
:1021600000EE102AF8EE400A75D03F4A9FED3D1A66
:10217000B7EE000A6BB1DFED3D1A012B01D0022B47
:1021800064D002EE101A1168F8EE422A81EEA22AFB
:1021900021E0334C283C23689B0612D5344B24683D
:1021A00001EE901A1168C4F3C104F8EE612AE3400D
:1021B00001EE903AC1F30801F8EE611A81EEA22A0D
:1021C0000BE001EE901ADFED2B2A00BFF8EE611A4A
:1021D000116882EEA12AC1F3080101EE901A11687C
:1021E000F8EE611A40EE811A71EE800A62EE200A62
:1021F000C1F3462101EE101AB8EE411A31EE001A71
:10220000C0EE811ABCEEE11A80ED001A1168C1F32C
:10221000064101EE101AB8EE411A31EE001AC0EE76
:10222000811ABCEEE11A80ED011A1168C1F3066152
:1022300001EE101AB8EE411A31EE000A80EE801A53
:10224000BCEEC10A80ED020A30BD04E001EE901A36
:10225000DFED092ABAE70021016041608160F3E700
:102260002844025800000039404402580024744AAF
:102270000090D0030024744C20BCBE4B2DE9FC5FC1
:10228000044650F8241B002500902E460801FE4FFE
:10229000DFF8F8831DD5606E50B1B0F5801F0CD00B
:1022A000B0F5001F0ED0B0F5401F1DD001250FE086
:1022B000386840F40030386016E00221201D02F03A
:1022C000F7F803E00098022102F082F905000BD034
:1022D0002E462088C00523D5606D05281ED2DFE874
:1022E00000F00C11161B1B00626ED8F8001021F4D0
:1022F00040111143C8F80010EBE7386840F4003093
:10230000386009E00021201D02F0D2F803E00098B7
:10231000002102F05DF905466DB100E001252E4671
:102320002088800528D5A06D80281ED00CDC90B1B7
:1023300040280ED114E0626DD8F8001021F007019A
:102340001143C8F80010EBE7C02813D0B0F5807F28
:1023500010D001250FE0386840F40030386009E003
:102360000021201D02F0A4F803E00098002102F0F3
:102370002FF9054695B12E462088DFF810934005C9
:1023800009F108092CD5D4F8A400B0F5800F20D0AD
:102390000DDCA0B1B0F5001F0FD115E0A26DD8F88B
:1023A000001021F4E0711143C8F80010E4E7B0F523
:1023B000C00F13D0B0F5000F10D001250FE0386822
:1023C00040F40030386009E00021201D02F070F870
:1023D00003E00098002102F0FBF8054675B12E4697
:1023E000208800052DD5D4F8A800B0F1007F21D0B9
:1023F0000EDCA8B1B0F1807F10D116E0D4F8A42093
:10240000D9F8001021F460011143C9F80010E7E782
:10241000B0F1407F13D0B0F1806F10D001250FE0F4
:10242000386840F40030386009E00021201D02F0D7
:102430003FF803E00098002102F0CAF805466DB1AC
:102440002E46206880011FD5A06CD8B110280FD06F
:10245000202812D0302815D0012514E0D4F8A82067
:10246000D9F8001021F0E0611143C9F80010E8E745
:10247000386840F40030386004E00221201D02F08A
:1024800017F805466DB12E462088C0042BD5E06DA7
:10249000B0F5005F20D00DDCA0B1B0F5805F0FD1AA
:1024A00015E07A48A26C001F016821F03001114349
:1024B0000160E9E7B0F5405F13D0B0F5804F10D070
:1024C00001250FE0386840F40030386009E0002151
:1024D000201D01F0EDFF03E00098002102F078F8E4
:1024E000054685B12E462088800429D5206EB0F59A
:1024F000403F23D010DC08B3B0F5803F14D0B0F5D6
:10250000003F0FD115E0E26DD8F8001021F4E04152
:102510001143C8F80010E6E7B0F5802F0ED0B0F5F3
:10252000A02F0BD001250AE00121201D01F0C0FFE2
:1025300003E00098012102F04BF805468DB12E46CC
:10254000208840042AD5D4F8AC00B0F1405F23D0F5
:1025500010DC08B3B0F1805F14D0B0F1005F0FD190
:1025600015E0226ED8F8001021F4E0211143C8F8DC
:102570000010E5E7B0F1804F0ED0B0F1A04F0BD0C6
:1025800001250AE00121201D01F092FF03E00098DF
:10259000012102F01DF805466DB12E462088000489
:1025A0001FD5E06ED8B1B0F1805F0ED0B0F1005F02
:1025B00010D0012514E0D4F8AC20D9F8001021F097
:1025C000E0411143C9F80010E8E7386840F40030F2
:1025D000386004E00121201D01F06AFF05466DB15D
:1025E0002E462068C0011ED5606CD0B101280ED0E7
:1025F000022811D0032814D0012513E0E26ED8F888
:10260000001021F040511143C8F80010E9E7386884
:1026100040F40030386004E00221201D01F048FF42
:10262000054685B12E462068DFF85CB04002ABF16C
:102630001C0B57D51648016841F480710160FFF703
:1026400047FB82460EE01148626C001F016821F0D2
:10265000030111430160E6E7FFF73AFBA0EB0A0034
:1026600064283DD80A480068C005F5D57DBBDFF871
:102670001CA0B4F8B0100AF1200ADAF8000001F446
:10268000407100F4407005E02C4402585044025858
:1026900000480258884211D0DAF80010DAF8002019
:1026A00021F4407142F48032CAF80020DAF80020A8
:1026B00022F48032CAF80020CAF80010D4F8B00022
:1026C000B0F5807F21D1FFF703FB019019E008E00E
:1026D000FFF7FEFA0199411A41F28830814210D980
:1026E00003252E462078DFF830A4C0073DD0A06F28
:1026F000182838D026DC80B3082829D0102825D106
:102700002CE0DAF800008007E2D5D4F8B010C1F36D
:102710000120032858460DD0016821F47C51016046
:10272000B4F8B020DAF80010C2F30B021143CAF873
:102730000010D7E7F94A036802EA111223F47C512A
:102740001143ECE720280ED028280CD001250BE0FF
:102750000121201D01F0ACFE04E004E000980121FD
:1027600001F036FF05465DB12E46207880071ED564
:10277000606F062819D2DFE800F0160C1116161645
:10278000A26FDAF8001021F038011143CAF80010E6
:10279000EBE70121201D01F08BFE03E000980121F1
:1027A00001F016FF054675B100E001252E462078A0
:1027B00040071FD5D4F89000062819D2DFE800F0B2
:1027C000160C11161616626FDAF8001021F00701C8
:1027D0001143CAF80010EAE70121201D01F068FE4C
:1027E00003E00098012101F0F3FE05469DB100E0F1
:1027F00001252E46207880062BD5D4F88C00B0F128
:10280000405F24D011DC10B3B0F1805F15D0B0F17F
:10281000005F10D116E0D4F89020D9F8001021F014
:1028200007011143C9F80010E4E7B0F1804F0ED062
:10283000B0F1A04F0BD001250AE00021201D01F0CE
:1028400037FE03E00098022101F0C2FE05468DB17B
:102850002E46207840062BD5D4F89800B0F5406F6E
:1028600024D011DC10B3B0F5806F15D0B0F5006F37
:1028700010D116E0D4F88C20DAF8001021F0E041F5
:102880001143CAF80010E4E7B0F5805F0ED0B0F550
:10289000A05F0BD001250AE00021201D01F008FEF9
:1028A00003E00098022101F093FE05468DB12E460B
:1028B000207800062BD5D4F89C00B0F5C04F24D06A
:1028C00011DC10B3B0F5005F15D0B0F5804F10D11A
:1028D00016E0D4F89820D9F8001021F4E051114303
:1028E000C9F80010E4E7B0F5004F0ED0B0F5204F66
:1028F0000BD001250AE00021201D01F0D9FD03E0E5
:102900000098022101F064FE05464DB12E46207864
:1029100000071ED5D4F88000B0F5805F0AD00FE024
:10292000D4F89C20D9F8001021F460411143C9F873
:102930000010ECE70098022101F04AFE00B10126E8
:10294000D4F88020DAF8001021F440511143CAF87D
:1029500000102078C00613D5D4F89400B0F5807F1D
:1029600005D10098022101F033FE00B10126D4F810
:102970009420D9F8001021F440711143C9F80010D7
:102980002068000316D5D4F8A00038B1B0F5803F18
:1029900009D0B0F5003F0BD001250AE00021201D31
:1029A00001F086FD03E00098022101F011FE0546CA
:1029B00085B12E462068400322D5D4F88400B0F5B6
:1029C000801F11D0B0F5001F13D0B0F5401F15D0F7
:1029D000012514E0D4F8A020D9F8001021F44031EA
:1029E0001143C9F80010E5E7386840F4003038605A
:1029F00004E00098012101F0EBFD054655B12E469B
:102A00002068C0031CD5E06C70B1B0F5803F10D0D9
:102A1000012514E0D4F88420DAF8001021F44011E4
:102A20001143CAF80010EBE7386840F40030386012
:102A300004E00221201D01F03BFD0546CDB12E46EC
:102A40002068800005D50098022101F0C1FD00B189
:102A50000126206880031BD5E06FB8B1B0F5807FF8
:102A600010D0B0F5007F11D0B0F5407F0ED0012519
:102A70000DE02948E26C0838016821F480311143E7
:102A80000160DDE7386840F400303860F5B32E4669
:102A90002068C00207D5226FD8F8001021F000414D
:102AA0001143C8F800102068C00008D5D4F8B4203D
:102AB000DBF8001021F480411143CBF800102068AE
:102AC000800207D5A26ED8F8001021F08071114362
:102AD000C8F80010206840000CD5DBF8001021F485
:102AE0000041CBF80010DBF80010D4F8B8201143F7
:102AF000CBF800102068002807DA0748226D083854
:102B0000016821F040511143016000E008E086B106
:102B10000120BDE8FC9F000054440258CFFFFF0095
:102B2000E26FDAF8001021F440711143CAF8001086
:102B3000AEE70020EDE700002DE9F05F04000F464E
:102B40007ED0DFF83882D8F8000000F00F00B842DD
:102B50000CD2D8F8001021F00F013943C8F800104A
:102B6000D8F8000000F00F00B84269D12078844DF9
:102B700040070AD52069296801F07001884204D90C
:102B8000296821F070010143296020787C4E361DB0
:102B900000070AD56069316801F07001884204D9E4
:102BA000316821F07001014331602078C0060AD5F8
:102BB000A069316801F4E061884204D9316821F4E8
:102BC000E061014331602078DFF8B4B180060BF199
:102BD000080B0CD5E1695846DBF8002002F07002C2
:102BE000914204D9026822F070020A430260207800
:102BF00080070AD5E068296801F00F01884204D9EE
:102C0000296821F00F01014329602078C0073ED0D8
:102C10005B49A2682868183920F470601043286066
:102C20006068022818D0032819D00968012819D033
:102C3000490700294ADADFF848A1AAF1080A00E0AA
:102C400044E0DAF8002022F007020243CAF800202C
:102C5000FFF73EF8814612E009688903E9E7096851
:102C60008901E6E7C905E4E7FFF732F8A0EB0901BF
:102C700041F28830814202D90320BDE8F09F6168AB
:102C8000DAF8000000F03800B0EBC10FECD120788A
:102C900080070AD5E068296801F00F01884204D254
:102CA000296821F00F0101432960D8F8001040463F
:102CB00001F00F01B9420BD9016821F00F0139432E
:102CC0000160006800F00F00B84201D00120D4E795
:102CD000207840070AD52069296801F070018842F0
:102CE00004D2296821F0700101432960207800078F
:102CF0000AD56069316801F07001884204D23168F8
:102D000021F07001014331602078C0060AD5A06926
:102D1000316801F4E061884204D2316821F4E06155
:102D200001433160207880060CD5E1695846DBF814
:102D3000002002F07002914204D2026822F0700278
:102D40000A43026000F06CF80E492A682B68C2F34F
:102D5000032203F00F038A5CC95C02F01F0201F03A
:102D60001F01D040084A20FA01F1116007490860AC
:102D700007480068BDE8F05FFEF7E6BF002000529C
:102D800018440258F056000838000024340000248B
:102D90002C00002430B500F043F80B4A0B490C4BD3
:102DA00015681468C5F3032204F00F048A5C095DFA
:102DB00002F01F0201F01F01D040064A20FA01F183
:102DC00019601060084630BD18440258F0560008DB
:102DD000380000243400002400B5FFF7DBFF05496C
:102DE0000968054AC1F30211515C01F01F01C84096
:102DF00000BD00001C440258F056000800B5FFF763
:102E0000C9FF05490968054AC1F30221515C01F077
:102E10001F01C84000BD00001C440258F0560008C5
:102E2000454970B545480968434B103B11F03802DD
:102E300008D00111082A03D0102A0BD0182A0BD071
:102E4000084670BD19688906FBD51968C1F3C10130
:102E5000C84070BD3A4870BD3749374D18310C1D18
:102E600024350A68096826682D6802F0030406F014
:102E70000102C1F30511C5F3CC0515FB02F200EE0A
:102E8000102AB8EE400AE9B32F4ADFED2E0AB7EE5A
:102E9000001A6CB1DFED2D1A012C01D0022C43D0A9
:102EA00002EE101A1068F8EE422A81EEA22A1EE005
:102EB0001C68A40611D51B6801EE901A1168C3F3B3
:102EC000C103F8EE612AD84001EE900AC1F3080070
:102ED000F8EE611A81EEA22A0BE001EE901ADFED06
:102EE0001C2A00BFF8EE611A106882EEA12AC0F316
:102EF000080001EE900AF8EE611A40EE201A31EE59
:102F0000810A00E015E022EE000A1068C0F34620B6
:102F1000401C00EE900AF8EE600A80EE201ABCEE2B
:102F2000C10A10EE100A70BD01EE901ADFED092AF9
:102F3000D8E7002070BD0000104402580090D00374
:102F400040787D0100000039304402580024744A62
:102F50000024744C20BCBE4B2DE9F05F04007CD0F3
:102F6000FF4F2078FE4D1837DFF8F493103DC0076F
:102F700048D0D9F80000396800F03800102815D082
:102F8000182803D101F0030002280FD06068B0F5C3
:102F9000803F12D010B1B0F5A02F18D0286820F4CF
:102FA00080302860286820F4802009E028688003A9
:102FB00028D560680028D2D024E0286840F480300A
:102FC0002860606888B1FEF783FE064609E028683D
:102FD00040F480202860F0E7FEF77AFE801B64282A
:102FE0007ED828688003F7D50CE0FEF771FE064610
:102FF00005E000BFFEF76CFE801B6428F0D828684F
:103000008003F7D4207841F20308D54E0C3E8007A8
:1030100053D5D9F80000396810F038000ED01828C0
:1030200001D188070AD0E068A8B3296821F0190106
:1030300001432960FEF74CFE82461BE028684007EA
:1030400002D5E06800288AD0FEF73CFE40451BD838
:103050002069402812D0316800E0CCE021F47C31B6
:1030600041EA0030306028E0FEF732FEA0EB0A00B3
:103070000228B5D828684007F6D5E5E7306820F47F
:103080007C3040F40030EDE7207C316821F0FE41D7
:1030900041EA0060E6E7FFE7286820F001002860C9
:1030A000FEF716FE824605E0FEF712FEA0EB0A00D0
:1030B000022895D828684007F6D42078C0065FD546
:1030C000D9F80000DFF898B2396800F03800ABF1A9
:1030D000040B082812D0182805D101F0030000E0E5
:1030E000EAE001280AD0E0690028286838D040F0DA
:1030F00080002860FEF7ECFD824623E02868C005CA
:1031000023D5E069802876D11FE0206A202821D0CD
:10311000316821F0F84141EA8060306030E000BF62
:1031200094F82010DBF8002022F07C5242EA016182
:10313000CBF8001024E000BFFEF7CAFDA0EB0A00A8
:10314000022896D82868C005F6D5FEF7BBFD404595
:10315000E6D8DAE7306820F0F84040F08040DCE75D
:1031600020F080002860FEF7B3FD064605E000BFB2
:10317000FEF7AEFD801B02289BD82868C005F7D457
:103180002078000729D57648616964300029804697
:10319000016811D041F001010160FEF799FD06467A
:1031A00005E000BFFEF794FD801B0228C9D8D8F8BF
:1031B00000008007F6D510E021F001010160FEF764
:1031C00087FD064605E000BFFEF782FD801B022852
:1031D00072D8D8F800008007F6D42078800623D56E
:1031E000A0690028286810D040F480502860FEF7BD
:1031F0006FFD064605E02CE1FEF76AFD801B022804
:103200005AD828688004F7D50EE020F48050286052
:10321000FEF75EFD064604E0FEF75AFD801B02281D
:103220004AD828688004F7D4207840074FD5DFF8C3
:103230003481D8F8001041F48071C8F80010FEF70E
:1032400047FD064605E000BFFEF742FD801B6428EF
:1032500032D8D8F80000C005F6D5414EA0686036D7
:1032600001280AD008B1052813D0306820F00100E9
:103270003060306820F0040002E0306840F0010067
:103280003060A06841F2883A90B1FEF721FD804697
:103290000AE0306840F004003060EEE7FEF718FD09
:1032A000A0EB0801514507D830688007F6D50EE03D
:1032B000FEF70EFD804607E084E000BFFEF708FD44
:1032C000A0EB080151457DD830688007F6D4606ACC
:1032D000F0B3DFF88C80D9F8001008F12008C1F3B2
:1032E000C20103296FD00228286820F0807028606E
:1032F00003D0FEF7EDFC044680E0FEF7E9FC06464D
:1033000005E000BFFEF7E4FC801B022873D82868A4
:103310008001F7D4E26A40F2F331386854F8283F6C
:10332000884340EA021018433860217B4FF4FE0CBA
:1033300022894FF0FE47208A4902267D521E401EF8
:10334000A1F5007189B20CEA0040C2F3080200E066
:1033500081E01143761E0143014807EA066203E05B
:1033600010440258004802581C3011433B4AC8F828
:103370000010016821F00101016011684FF6F87634
:10338000236AB14341EAC30111600168A26921F0D7
:103390000C01114301600168E26921F0020111434F
:1033A0000160016841F480310160016841F400313D
:1033B0000160016841F480210160016841F0010170
:1033C000016001E017E01DE0286840F0807028608F
:1033D000FEF77EFC044604E0FEF77AFC001B0228A0
:1033E00009D828688001F7D535E000BFFEF770FCEA
:1033F000001B022802D90320BDE8F09F2868800145
:10340000F4D428E039680128D8F8000021D0A26A55
:1034100001F0030393421CD1E26AC1F305118A4211
:1034200017D1216BC0F30802491E8A4211D1616B8A
:10343000C0F34622491E91420BD1A16BC0F3064254
:10344000491E914205D1E16BC0F30660491E8142DD
:1034500001D00120D0E70020CEE70000344402581C
:1034600070B504000D4603D094F82C0010B107E0AD
:10347000012070BD002084F82D00204600F018F8CF
:10348000022084F82C002068211DFDF709FAD4E9F8
:1034900000022946FDF754FA04480121026842F06F
:1034A0000042026084F82C10002070BD00400052E1
:1034B000FEF79ABA10B5044690F82C00022804D002
:1034C00094F82C00012801D0012010BD022084F8BE
:1034D0002C002068FDF719FA012084F82C00002048
:1034E00010BD000070B5044690F82C000D4602286F
:1034F00004D0012803D0052801D0012070BD02208E
:1035000084F82C002068FDF709FA2868022805D005
:103510005FF0010084F82C00002070BD0520F9E761
:10352000401EB0F1807F10B501D3012010BD4FF0D7
:10353000E02460610F21601702F00AF80020A0610A
:103540000721216110BD704770477047F0B590F8B2
:103550003C20012A38D01D4E012480F83C40022234
:1035600080F83D2002681A4D5368B242D2F808C074
:1035700001D0AA4203D14F6823F470033B430F6884
:1035800023F070031F4357600268B24210D0B2F1BB
:10359000804F0DD00F4B9A420AD00F4B9A4207D062
:1035A0000E4B9A4204D0AA4202D00D4B9A4204D14B
:1035B00089682CF0800319439160002180F83D4018
:1035C00080F83C100846F0BD0220F0BD000001402C
:1035D000000401400004004000080040000C0040CE
:1035E0000018004010B5040003D094F83D0010B15D
:1035F00007E0012010BD002084F83C00204600F0C8
:1036000023F8022084F83D002068211D01F092F982
:10361000012084F8480084F83E0084F83F0084F8D4
:10362000400084F8410084F8420084F8430084F8A4
:10363000440084F8450084F8460084F8470084F884
:103640003D00002010BD000008B500680B4988420D
:1036500012D10B48016841F00201016000680022AC
:10366000114600F0020000901D20FEF7A9FBBDE806
:1036700008401D20FEF796BB08BD00000004004076
:10368000E844025890F83D10012901D0012070470C
:103690000B4A022180F83D100168CB6843F001031A
:1036A000CB60006881681140062906D0B1F5803FE3
:1036B00003D0016841F00101016000207047000063
:1036C0000700010070B5044690F83C00012814D0B2
:1036D000394B012584F83C50022084F83D002268D3
:1036E0009068184020F47F4090600868702828D0C7
:1036F00010DC10F00F0F03D04BE04FF0020070BD54
:103700004FEA2012072A44D2DFE802F0515151510A
:1037100049323A00B0F1101F49D009DCB0F5805FA2
:1037200037D0B0F5005F17D0B0F5801F31D13EE043
:10373000A0F5801120393AD0102938D0202928D17D
:1037400035E04A682068D1E9021301F0D7F9206812
:10375000816841F0770109E04A682068D1E90213E5
:1037600001F0CCF92068816841F48041816010E06B
:10377000CA684968206801F05DFB2068502106E0B6
:10378000CA684968206801F066FB2068602101F082
:10379000BFF9002084F83D5084F83C0070BDCA6831
:1037A0004968206801F046FB20684021EFE7226865
:1037B00001461046EBE7000088FFCEFF70477047D8
:1037C00070B50446006800250169C943890715D40E
:1037D000C168C943890711D4EA1E0261012121771A
:1037E000206880698007204602D0FFF7E8FF04E0E8
:1037F00000F0D0F8204600F0C1F925772068016973
:10380000C943490717D4C168C943490713D40221E2
:103810006FF00402026121772068806910F4407F14
:10382000204602D0FFF7CBFF04E000F0B3F82046BB
:1038300000F0A4F9257720680169C943090716D467
:10384000C168C943090712D404216FF0080202615C
:1038500021772068C0698007204602D0FFF7AFFFBC
:1038600004E000F097F8204600F088F925772068FA
:103870000169C943C90617D4C168C943C90613D42D
:1038800008216FF01002026121772068C06910F4EE
:10389000407F204602D0FFF792FF04E000F07AF864
:1038A000204600F06BF9257720680169C943C907F4
:1038B00008D1C168C943C90704D1891E01612046E6
:1038C00000F0C2FA20680169C943090609D4C16839
:1038D000C943090605D46FF0800101612046FFF756
:1038E00033FE20680169C943C90509D4C168C943C9
:1038F000090605D46FF4807101612046FFF723FEAD
:1039000020680169C943490609D4C168C943490609
:1039100005D46FF040010161204600F0B5FA20683F
:103920000169C94389060BD4C168C943890607D414
:103930006FF0200101612046BDE87040FFF705BE31
:1039400070BD000010B586B0044614216846FCF72F
:10395000F7FC2068B0F1804F16D10C48016841F0A7
:103960000101016000680123022200F001000590BE
:1039700000204FF4004100916946CDE90120CDE9D6
:1039800003030348FEF780F806B010BDE044025878
:1039900000000258704770B5044690F83C000D4690
:1039A00001280BD0012084F83C000C2A45D007DC0C
:1039B0005AB1042A1BD0082A78D12CE0022070BD0D
:1039C000102A4ED0142A71D15DE0206801F0AAF8C7
:1039D0002068816941F0080181612068816921F0D6
:1039E0000401816120682A698169114311E020681E
:1039F00001F0ECF82068816941F400618161206880
:103A0000816921F48061816120682969826942EAC3
:103A1000012181614AE0206801F024F92068C16930
:103A200041F00801C1612068C16921F00401C16150
:103A300020682A69C169114311E0206801F058F932
:103A40002068C16941F40061C1612068C16921F445
:103A50008061C16120682969C26942EA0121C161AE
:103A600024E0206801F07AF92068416D41F00801F6
:103A700041652068416D21F00401416520682A6993
:103A8000416D114311E0206801F09EF92068416DFD
:103A900041F4006141652068416D21F48061416518
:103AA00020682969426D42EA01214165002084F8BD
:103AB0003C0070BD10B5040003D094F83D0010B177
:103AC00007E0012010BD002084F83C00204600F0F3
:103AD00023F8022084F83D002068211D00F02AFF11
:103AE000012084F8480084F83E0084F83F0084F800
:103AF000400084F8410084F8420084F8430084F8D0
:103B0000440084F8450084F8460084F8470084F8AF
:103B10003D00002010BD0000F8B505460068B0F17A
:103B2000804F23D11248016841F001010160006813
:103B30004FF4804C10494FF4807E0E4C00F0010091
:103B4000009000200E158F1484E8C150606112228D
:103B5000A061A4F10C000C3C402384E80E00FDF7AA
:103B600001FC08B1FCF79AFE6C62A563F8BD000089
:103B7000E8440258A40100248800024001480021C2
:103B800000F0E8B800010024704700002DE9F04182
:103B90000D001646044610D0042D15D0082D1AD05D
:103BA0000C2D1FD0102D24D094F84300022827D0CC
:103BB00094F84300012826D078E094F83E000228CB
:103BC0001ED094F83E00F5E794F83F00022817D085
:103BD00094F83F00EEE794F84000022810D094F8E3
:103BE0004000E7E794F84100022809D094F841002A
:103BF000E0E794F84200022802D094F84200D9E7A6
:103C00000220BDE8F08106B983BB49494FF00200AC
:103C1000484A494F55B1042D18D0082D27D00C2DF6
:103C200035D0102D44D084F843004EE084F83E0097
:103C3000606AC1633146606A0264606AC764226870
:103C4000606A3432FDF770FD80B934E084F83F00DB
:103C5000A06AC1633146A06A0264A06AC764226890
:103C6000A06A3832FDF760FD00B929E01EE084F853
:103C70004000E06AC1633146E06A0264E06AC764FA
:103C80002268E06A3C32FDF74FFD78B946E084F8DF
:103C90004100206BC1633146206B0264206BC76416
:103CA0002268206B4032FDF73FFDB0B30120A8E74A
:103CB00084F8420009E02068C16841F4007103E023
:103CC0002068C16841F48061C160206801222946F2
:103CD00000F092FE1949206888420BD018498842AA
:103CE00008D01849884205D01749884202D01749A0
:103CF000884203D1416C41F4004141642068144A78
:103D000081681140062906D0B1F5803F03D00168D3
:103D100041F001010160002073E704E02068C16800
:103D200041F40061D0E72068C16841F48051CBE7DD
:103D3000134A0008714A0008A94A0008000001401F
:103D4000000401400040014000440140004801409F
:103D50000700010070B5044600680D0006D0042D70
:103D60000AD0082D4BD00C2D0DD14EE0C16821F4A6
:103D70000071C160606A04E0C16821F48061C160C3
:103D8000A06AFCF735FE20680022294600F034FEC8
:103D900041F21111274B20688A1098420BD0264B14
:103DA000984208D0254B984205D0254B984202D026
:103DB000244B984209D1036A0B4206D1036A13428D
:103DC00003D1436C23F4004343642068036A0B422D
:103DD00006D1016A114203D1016821F0010101609D
:103DE0004FF00100BDB1042D18D0082D19D00C2DB5
:103DF0001AD0102D1BD084F84300002070BDC1687C
:103E000021F40061C160E06ABBE7C16821F4805120
:103E1000C160206BB5E784F83E00EEE784F83F0010
:103E2000EBE784F84000E8E784F84100E5E784F830
:103E30004200E2E700000140000401400040014070
:103E4000004401400048014010B500680C49884218
:103E500015D101F06FFB4FF47A720A4992FBF0F230
:103E60000888401C80B20880824208DC002008805C
:103E7000012C04D1BDE81040012001F021BC10BD8F
:103E80000004004024000024704730B590F87C10F6
:103E9000012918D0012280F87C202421C0F880104C
:103EA0000022202450F8601B0B680D6823F000539B
:103EB00025F001050D60426050F8601C0B60046243
:103EC0000277104630BD022030BD70B5044690F830
:103ED0007C0001281DD0012284F87C202420C4F815
:103EE000800020680568026822F0010202602068F4
:103EF000826822F060620A438260204600F0BEFFC2
:103F00002268202100201560C4F8801084F87C000D
:103F100070BD022070BD70B5044690F87C00012889
:103F20001DD0012284F87C202420C4F88000206861
:103F30000568026822F0010202602068826822F0AF
:103F400060420A438260204600F098FF22682021E8
:103F500000201560C4F8801084F87C0070BD022039
:103F600070BD10B5040003D0D4F8800010B107E094
:103F7000012010BD002084F87C00204600F026F8C7
:103F80002420C4F880002068016821F0010101604C
:103F9000204601F039F80128EBD0A06A10B1204684
:103FA00000F09EFF2068416821F490414160206844
:103FB000816821F02A0181602068016841F00101D7
:103FC00001602046BDE8104000F0EEBF70B586B03D
:103FD000044614216846FCF7B3F91C49206888425E
:103FE00031D11B48016841F400210160006800F4F0
:103FF0000020059016480838016841F4807101607E
:10400000016801F480710591016841F001010160CE
:10401000006802250024694600F00100059008268A
:1040200028020090CDE901540A48CDE90346FDF786
:104030002BFD01200090CDE9015407486946CDE9E8
:104040000346FDF721FD06B070BD0000004C0040A6
:10405000E844025800200258000002582DE9F843B5
:104060000446D0F880001F4616460D46202852D13F
:10407000DDB1D6B194F87C0001284CD0012084F841
:104080007C0021224FF00008C4F88880C4F880200A
:104090001834FDF71DFE814654F8100CA687E687FC
:1040A000183CB0F5805F03D004E00120BDE8F88340
:1040B000206920B12E46002584F87C8010E000267F
:1040C000FAE78021204601F077F9B8B9C6B116F8B1
:1040D000010B21688862B4F85600401EA4F856000F
:1040E000B4F856004B464FF0000200970028E8D184
:1040F0004FF04001204601F05FF938B10320D5E7C9
:1041000035F8020B2168C0F30800E3E72020C4F86B
:1041100080000020CAE70220C8E7FEE70B4900EB59
:1041200040000B4B10B503EB801391F82C200121BC
:10413000012001EB410403EBC4042254401C182865
:10414000FBDB491C0829F3DB10BD00004000002404
:10415000000000C0094808B5016841F00101016094
:1041600000680022114600F0010000901020FDF7C9
:1041700027FEBDE808401020FDF714BED8440258C1
:10418000F0B587B01C216846FCF7DAF816484024E1
:10419000144D08224FF0100E0026056001234660E2
:1041A0000221C0E90232C0E904E44FF4C075856120
:1041B0000B03C661CF024FF4006CC0F820C0062488
:1041C00007250526C0E909738DE87600059106915B
:1041D0006946FFF745F9002801D0FCF75FFB07B0FF
:1041E000F0BD000040410052800000242DE9F04362
:1041F00087B014216846FCF7A3F83748016841F0FE
:1042000001010160016801F001010591016841F0BF
:1042100010010160016801F010010591016841F091
:1042200004010160016801F004010591016841F099
:1042300040010160016801F040010591016841F011
:1042400008010160016801F008010591016841F46D
:1042500080710160016801F480710591016841F08D
:1042600020010160016801F020010591016841F021
:104270008001016000684FF40046DFF86080002292
:1042800000F08000314605904046FDF715FDDFF84F
:104290005090F711002239464846FDF70DFD0024E5
:1042A0000096012569464046CDE901540394FDF787
:1042B000EBFB00976946CDE9015448460394FDF7AE
:1042C000E3FB10206946CDE9000406480294FDF79F
:1042D000DBFB07B0BDE8F083E04402580008025859
:1042E00000200258001C02580C48002110B5012281
:1042F000094CFF23C0E90221C0E904218161C161A9
:104300000162C0E90043FDF7B7FD002803D0BDE816
:104310001040FCF7C3BA10BD00500052B400002496
:1043200010B58AB0002468461C21079408940994AB
:10433000FCF706F815484D2103224FF08043C0E9F1
:10434000024104618461C0E90032FFF7B3FB08B1A8
:10435000FCF7A4FA0D4807A907940994FFF7F6F8AB
:1043600008B1FCF79BFA60203B218DE81300074859
:10437000002269460494FFF70EFB08B1FCF78EFAA1
:104380000248FFF7DFFA0AB010BD00000001002468
:1043900030B587B01748002415494F2240F6B7338F
:1043A0000094802501940294039404940594069447
:1043B00080E816008561C0E90334FFF713F908B1FE
:1043C000FCF76CFA4FF4805000900A486946FFF7FA
:1043D00079F908B1FCF762FA064804A90494069436
:1043E000FFF7B4F8002801D0FCF758FA07B030BD49
:1043F000000400404C0100241848002110B5164C60
:104400000C224FF4E1330460C0E90131C160C0E91E
:1044100004128161C161016241628162FFF7A1FD05
:1044200008B1FCF73BFA0D480021FFF774FD08B115
:10443000FCF734FA09480021FFF747FD08B1FCF703
:104440002DFA0648FFF721FD002803D0BDE81040F3
:10445000FCF724BA10BD0000004C004010020024FC
:10446000FEE7FEE770472DE9F041984616460F46F5
:104470000446069D08E0681C06D0FDF729FCA0EB69
:104480000800A8420AD84DB120688068384000D0A2
:104490000120B042EFD10020BDE8F081042084F873
:1044A0004100606C40F0010060640120F4E700000E
:1044B0002DE9F047454D044689464FF0000A28682B
:1044C000C04380070AD0414E283E306820F080600B
:1044D0003060FDF7FDFB0746B04608E00120BDE86F
:1044E000F08700BFFDF7F4FBC01B022867D8D8F89F
:1044F00000000001F6D4206829684FF4FE0721F47B
:104500007C313E0241EA00302860207AA389B4F869
:1045100004C040022D4D2D495B1E227CACF1010CE4
:104520001035091DA0F5007080B2521ECCF3080CA6
:1045300007EA034340EA0C00184306EA026210430C
:1045400028600868626920F0C000104308600A68AB
:10455000A06922F0200202430A60281D0A6822F0A6
:1045600010020A6002684FF6F873E4699A4342EA5F
:10457000C40202600868B9F1000F40F010020A603E
:1045800011D00868B9F1010F11D040F40010086093
:10459000D8F80000444640F08060C8F80000FDF7FD
:1045A00097FB05460DE0086840F40020EFE740F473
:1045B0008010ECE7FDF78CFB401B022801D903209B
:1045C0008DE720680001F5D5504688E72844025859
:1045D0002DE9F047454D044689464FF0000A28680A
:1045E000C04380070AD0414E283E306820F08050FA
:1045F0003060FDF76DFB0746B04608E00120BDE8DE
:10460000F08700BFFDF764FBC01B022867D8D8F80D
:1046100000008000F6D4208829684FF4FE0721F0BE
:104620007C713E0241EA00502860207AA389B4F8E8
:1046300004C040022D4D2D495B1E227CACF1010CC3
:104640001835091DA0F5007080B2521ECCF3080C7D
:1046500007EA034340EA0C00184306EA02621043EB
:1046600028600868626920F44060104308600A68A6
:10467000A06922F4007202430A60281D0A6822F42D
:1046800080720A6002684FF6F873E4699A4342EA5E
:10469000C40202600868B9F1000F40F480720A6039
:1046A00011D00868B9F1010F11D040F08070086096
:1046B000D8F80000444640F08050C8F80000FDF7EC
:1046C00007FB05460DE0086840F48000EFE740F482
:1046D0000000ECE7FDF7FCFA401B022801D903209B
:1046E0008DE720688000F5D5504688E728440258B9
:1046F0002DE9F8431D4C102700254FF6FF790126C0
:1047000000951B484A46C4E90067C4E90265214692
:10471000FEF7E8FE0120FDF755F902204A46C4E9FC
:10472000000713482146C4E90265FEF7DBFE0321BA
:104730004FF00408E5604A4684E882010C482146AF
:10474000FEF7D0FE40F2222000904A462146C4E9FE
:1047500002600748C4E90087FEF7C4FEBDE8F843DD
:10476000034840F2A521FEF7A5BE0000700000241A
:10477000800000247047FDF7B1BA000070B5CCB0DE
:104780004C212FA8FBF7DCFD202142A8FBF7D8FD28
:10479000BC216846FBF7D4FD0220FDF743FB264809
:1047A00000242649026842F44042026002680A6816
:1047B00042F001020A60096801F001014A910168B2
:1047C0008904FCD538AB02202F904025339508266C
:1047D0000121329183E851007822CDE93B203EAAA5
:1047E0003D900C2182E813002FA84194FEF7B4FB02
:1047F00008B172B6FEE74FF48062CDE945653F200F
:10480000CDE9475242AA4995032182E813000421C9
:1048100042A8FEF791F908B172B6FEE70848119474
:1048200012941D9400906846FDF728FD002801D0E1
:1048300072B6FEE74CB070BD184802582C04005800
:10484000020000032E48F0B52E4A016841F47001C1
:104850000160106800F00F00072804D2106820F0F3
:104860000F00C01D106028490020274C10340B6831
:10487000264D43F001030B6020600B682B400B605A
:10488000136803F00F03072B04D9136823F00F03F9
:10489000DB1D13601C4C1E4A18341E4B261D371D91
:1048A0002060194C1C4D28343060261D3860371D9F
:1048B00023603B1D35601C1D3A60251D2E1D1860B0
:1048C000331D22602860326018600A680E4B134C5A
:1048D00022F4802260330A60186020686FF30F00B2
:1048E000B0F1005F03D20E490120C1F8080143F284
:1048F000D2000C49024B4A03803B08601A60F0BDAD
:1049000088ED00E000200052004402587FEDF6EAF6
:1049100080020101000202020000FF010010005CA1
:1049200000800051004000520148FEF749BF0000DE
:104930004C0100242DE9F047274B4FF0804A274DCA
:1049400002689842264E274F274C09D0504507D081
:10495000A84205D0B04203D0B84201D0A04205D150
:10496000D1F804C022F070024CEA0202DFF87CC0E9
:10497000DFF87C809842DFF87C900FD050450DD056
:10498000A8420BD0B04209D0B84207D0A04205D00F
:10499000604503D0404501D0484503D1CD6822F49D
:1049A00040722A434D6922F080022A4302609842F5
:1049B0008A68C2620A68826207D0A04205D0604558
:1049C00003D0404501D0484501D109690163012167
:1049D0004161BDE8F0870000000001400004004094
:1049E00000080040000C004000040140004001406D
:1049F000004401400048014010B5046A012301F061
:104A00001F018B409C4304628A40016A114301628A
:104A100010BD10B5846B0121626A824205D12177F5
:104A2000C069F8B984F83E101CE0A26A824206D13F
:104A300002222277C069A8B984F83F1012E0E26A26
:104A4000824206D104222277C06958B984F8401006
:104A500008E0226B824205D108222277C06908B99A
:104A600084F841102046FFF789F80020207710BD18
:104A700010B5846B616A814201D101200DE0A16A09
:104A8000814201D1022008E0E16A814201D1042083
:104A900003E0216B814201D1082020772046FFF7F7
:104AA00073F80020207710BD10B5846B0121626A75
:104AB000824203D1217784F83E1019E0A26A824233
:104AC00004D10220207784F83F1011E0E26A82428C
:104AD00004D10420207784F8401009E0226B824240
:104AE00004D10820207784F8411001E084F83D10BB
:104AF0002046FEF763FE0020207710BD42EA032225
:104B000083680A4323F47F410A43826070470000B0
:104B1000034B82681A400A4342F0070181607047E4
:104B20008FFFCFFF2DE9F04F026ADFF88880DFF8B2
:104B3000889022F00102DFF884A0DFF884B0214FD2
:104B40000262DFF884C0066A4268836926F00206C2
:104B50000D68B8428C6803EA0C0323F0030344EAAF
:104B6000060445EA030507D0404505D0484503D073
:104B7000504501D0584505D1CB6824F008042343A3
:104B800023F00404B84207D0404505D0484503D07F
:104B9000504501D0584505D122F44076D1E905327F
:104BA00033431A4342608561496841630462BDE84A
:104BB000F08F00000004014000400140004401402B
:104BC00000480140000001408FFFFEFFF0B5026A7F
:104BD0001E4E1F4C22F01002DFF878E00262056AD8
:104BE0004368826925F02005D1F808C0A0420F680B
:104BF00002EA060222F4407245EA0C1542EA072254
:104C000001D0704506D1CE6825F0800545EA06152D
:104C100025F04005A0420AD0704508D00E4CA042B5
:104C200005D00E4CA04202D00D4CA04207D1D1E9D4
:104C3000054623F4406343EA840343EA8603436062
:104C40008261496881630562F0BD0000FF8FFFFE4D
:104C500000000140000401400040014000440140C8
:104C600000480140F0B5026A1C4D1D4E22F48072CE
:104C7000A8420262026A4368C76922F40072D1F84E
:104C800008C00C6827F0730742EA0C2244EA0704C4
:104C900001D0B04206D1CF6822F4006242EA072276
:104CA00022F48062A8420AD0B04208D00D4DA8423A
:104CB00005D00D4DA84202D00C4DA84207D1D1E934
:104CC000055623F4405343EA051343EA06134360B1
:104CD000C4614968C1630262F0BD00000000014088
:104CE00000040140004001400044014000480140F0
:104CF00070B5026A144B22F4805202629842036A31
:104D00004268C46923F400538E680D6824F4E644B5
:104D100043EA063344EA05240BD00C4DA84208D0E0
:104D20000B4DA84205D00B4DA84202D00A4DA84217
:104D300004D14D6922F4804242EA85124260C46186
:104D400049680164036270BD000001400004014035
:104D5000004001400044014000480140F0B5026AB3
:104D600022F480320262134F056A4268446D25F4D2
:104D700000350E89B8420B6824F0700445EA0645F8
:104D800043EA04030BD00C4CA04208D00B4CA042C9
:104D900005D00B4CA04202D00A4CA04204D14C6971
:104DA00022F4803242EA0422426043654968816508
:104DB0000562F0BD000001400004014000400140D8
:104DC0000044014000480140F0B5026A22F480121C
:104DD0000262134F046A4268436D24F400140E8982
:104DE000B8420D6823F4E04344EA065443EA05233D
:104DF0000BD00C4DA84208D00B4DA84205D00B4D4E
:104E0000A84202D00A4DA84204D14D6922F40032D2
:104E100042EA8522426043654968C1650462F0BD8B
:104E200000000140000401400040014000440140F6
:104E30000048014010B5036A046A23F00A0324F015
:104E40000104046284690B4324F0F00141EA021179
:104E50008161036210BD10B5036A23F01003036281
:104E60008369046A23F4704324F0A00443EA023205
:104E7000826144EA0111016210BD00003FB514A136
:104E8000D1E9002314A1CDE90023D1E90021CDE926
:104E90000221416EB9B1016802AC8A688968C2F327
:104EA0004262490F1DF80150615C2D01B5FBF1F123
:104EB000A0F86A101DF80210A25C0901B1FBF2F122
:104EC000A0F868103FBD0121A0F86A10F8E70000C3
:104ED00001010103070100000804020408010101A7
:104EE00090F82810C90706D00168C36A4A6822F4FE
:104EF00000321A434A6090F82810890706D50168E5
:104F0000036B4A6822F480321A434A6090F82810F2
:104F1000490706D50168436B4A6822F480221A4388
:104F20004A6090F82810090706D50168836B4A6823
:104F300022F400421A434A6090F82810C90606D5A8
:104F40000168C36B8A6822F480521A438A6090F821
:104F50002810890606D50168036C8A6822F400527D
:104F60001A438A6090F82810490611D50168436CED
:104F70004A6822F480121A434A60416CB1F5801FDE
:104F800006D10168836C4A6822F4C0021A434A6061
:104F900090F82810090606D50168C26C486820F40C
:104FA0000020104348607047F8B500260446C0F85A
:104FB0008860FCF78DFE054620686FF07E4700682C
:104FC000000708D500222B464FF400112046009719
:104FD00000F0F2F960B92068006840070AD50022A5
:104FE0002B464FF480012046009700F0E5F908B108
:104FF0000320F8BD2020C4F8800084F87C60C4F849
:1050000084000020F8BD00002DE9F04304468068CC
:10501000D94F87B02268D4E90465E369616E3043F3
:1050200016681D432843D54B002501433E400E43DF
:1050300016602068E268416821F4405111434160E4
:105040002268A1699A4201D0206A01439668DFF87C
:1050500030C3CC4FCC4806EA0C060E43966021685C
:10506000666ACA6A22F00F023243CA622268BA42F2
:105070000ED1006800F03800182873D047DCB8B3B0
:10508000082879D010286FD178E028287ED17BE0DD
:10509000BE498A4209D1006800F00700062875D28F
:1050A000DFE800F0546A6C6E7072B9498A4209D127
:1050B000006800F00700062868D2DFE800F0475DCE
:1050C0005F616365B3498A4209D1006800F0070057
:1050D00006285BD2DFE800F03A5052545658AE49E9
:1050E0008A420BD1006800F0070006284ED200E08B
:1050F00010E0DFE800F02B4143454749A7498A42C9
:105100000AD1006800F03800182839D0B7DD20280F
:10511000BBD13CE001203AE0A1498A4209D10068B4
:1051200000F00700062831D2DFE800F01026282A18
:105130002C2E9C498A420BD1006800F007000628FB
:1051400024D2DFE800F003191B1D1F2100201EE000
:105150009A421BD18C48001D006800F00700062809
:1051600014D202E00CE007E010E0DFE800F00305F5
:1051700007090B0D02200AE0042008E0082006E0E1
:10518000102004E0202002E0402000E0802086493A
:10519000DFF818829A42864A4FF400434FEA2117FB
:1051A0004FF000064ED110281AD006DC022809D094
:1051B00004280BD008287DD10DE020283ED04028BF
:1051C00078D13DE0FCF704FF014610E06846FCF7AB
:1051D00011FF01990BE003A8FCF7AEFF049906E06C
:1051E0001068800604D51068C0F3C100C140C1B387
:1051F000606A676838F8102007EB4703B1FBF2F0EC
:10520000834257D8B0EB073F54D8002308461946CD
:10521000FBF75EF80902020241EA106170084FEAEA
:10522000370010183A4671410023FBF751F8614AE4
:10523000A0F5407191423DD821684CE03946D7E74E
:105240001946D5E7D4F81CC04FF6EF799C4552D1EA
:1052500008281AD006DC60B101280DD0042829D115
:105260000EE039E0102815D0202840D040287CD10D
:105270003FE0FDF7B1FD01E0FDF7C0FD014610E0A4
:105280006846FCF7B7FE01990BE003A8FCF754FF52
:10529000049906E01068800604D51068C0F3C100C8
:1052A000C140C9B1636A606838F81330B1FBF3F1EB
:1052B000490000E059E001EB5001B1FBF0F080B291
:1052C000A0F11001494550D84FF6F0732168C0F3A2
:1052D000420218401043C8600120A4F86A00A4F8F4
:1052E00068002846E666266707B0BDE8F0833946C1
:1052F000D8E71946D6E7082819D005DC58B10128A7
:105300000CD0042831D10DE0102815D020282ED043
:1053100040282AD12DE0FDF75FFD01E0FDF76EFD8D
:10532000014610E06846FCF765FE01990BE003A812
:10533000FCF702FF049906E01068800605D51068A6
:10534000C0F3C100C1400029C6D0636A606838F864
:105350001330B1FBF3F101EB5001B1FBF0F080B27F
:10536000A0F1100149457FF667AF0125B4E7394642
:10537000EBE71946E9E70000F369FFCF000C00589E
:10538000FFF4FF1100100140544402580044004053
:1053900000480040004C0040005000400014014014
:1053A00000780040007C00400090D003D8560008F0
:1053B00000440258FFFC0F002DE9F0479A461746BB
:1053C0000E460446089D4FF000094FF0200839E0D2
:1053D000681C37D0FCF77CFCA0EB0A00A84222D85E
:1053E0000DB32068016849072CD5C069C04300058A
:1053F00028D423684FF40061196221680B6823F4F4
:10540000D0730B6021688B6823F001038B60C4F8B4
:105410008080C4F88480C4F8888000BF032084F8AA
:105420007C90BDE8F08721680B6823F4D0730B6093
:1054300021688B6823F001038B60C4F88080C4F876
:105440008480EBE72068C06936EA000004D00020C1
:10545000B842BDD00020E4E70120F9E7FEE70000F4
:105460000E484FF0640CF0B408233121C0E9003C31
:1054700000223C2484603225C56041271B26C0E9F8
:105480000771C0E9046200F1240682612723152414
:1054900086E81A00F0BC00F003B8000040000024C9
:1054A00010B501242046FEF739FE641C102CF9DBF0
:1054B000BDE81040012000F0DDB8000070B50546E1
:1054C00008680C460021FBF79DF960680121FBF795
:1054D00099F9A0680221FBF795F9144A05EB4500FC
:1054E000134B002102EB801401EB4102002004EB7E
:1054F000C2021D5C1554401C0828FADB0C4D103DFF
:1055000008202E1816F8086C1654401C1028F8DBDA
:10551000074D083D10202E1816F8106C1654401C2C
:105520001828F8DB491C0829DEDB70BD000000C02C
:1055300012000024014880687047000040000024E9
:10554000014A024900F024B8B55500083C00002487
:10555000090700284FEA116104DB00F1E02080F820
:105560000014704700F00F0000F1E02080F8141DD7
:10557000704702E008C8121F08C1002AFAD170471C
:105580007047002001E001C1121F002AFBD17047C3
:105590002DE9F04116460F460446002503E0394642
:1055A000B047641C6D1C20780028F8D12846BDE85F
:1055B000F081000013B5044801224FF47A73694664
:1055C000FEF74CFD00981CBD100200240EB5FCF740
:1055D0008DFBFFF7D3F8FEF709FEFEF7BBFDFEF7E4
:1055E000CFFDFEF781FEFEF79BFEFEF705FFFEF7FF
:1055F000CFFE124801686FF0010008610F48FEF706
:1056000041F8FFF775F80EA0FFF79AFFFFF728FFA4
:1056100012A0FFF795FF164D0DF10C0495E8070059
:105620008DE8070000202146FFF748FF002000F02A
:1056300047F80120FCF7C6F9F0E700004C01002410
:10564000534452414D20573938323547364B48B3D1
:10565000F5CABCBBAFB3C9B9A60D0A00575332385F
:105660003132B3F5CABCBBAFB3C9B9A60D0A00004D
:10567000C456000870B50F4A0223002104460E48A4
:10568000FEF784FA0D4904EB4400002501EB801479
:10569000C0340948C02322460021FEF777FA6D1C6A
:1056A000082DF6DBBDE870400223024A02480021C3
:1056B000FEF76CBA0000002400010024000000C0C6
:1056C000FFF7D8BFFF00000000000000000000004E
:1056D0000006101600061016010002000400060065
:1056E00008000A000C0010002000400080000001AB
:1056F0000000000001020304010203040607080978
:1057000020570008000000244000000072550008E7
:105710006057000840000024600600008255000821
:105720000000000000000000000000000000000079
:105730000000000000000000000000000000000069
:105740000000000000000000010000001000000048
:10575000000000000090D0030090D0030000000083
:040000050800029954
:00000001FF
