:020000040800F2
:1000000070060024AD0200081B330008C72F00084B
:1000100019330008DD0300086940000800000000F3
:10002000000000000000000000000000D3380008BD
:10003000DF030008000000001D330008D538000869
:10004000C7020008C7020008C7020008C70200086C
:10005000C7020008C7020008C7020008C70200085C
:10006000C7020008C7020008C7020008C70200084C
:10007000C7020008C7020008C7020008C70200083C
:10008000C7020008C7020008C7020008C70200082C
:10009000C7020008C7020008C7020008C70200081C
:1000A000C7020008C7020008C7020008C70200080C
:1000B000C7020008C7020008C7020008C7020008FC
:1000C000C7020008C7020008C7020008C7020008EC
:1000D000C7020008C7020008C7020008C7020008DC
:1000E000C7020008C702000800000000C70200089D
:1000F000C7020008C7020008C7020008C7020008BC
:10010000C7020008C7020008C7020008C7020008AB
:10011000C7020008C7020008C7020008C70200089B
:10012000C7020008C7020008C7020008C70200088B
:10013000C7020008C7020008C7020008C70200087B
:1001400000000000000000000000000000000000AF
:10015000C7020008C7020008C7020008C70200085B
:10016000C7020008C7020008C7020008C70200084B
:10017000C7020008C7020008C7020008C70200083B
:10018000C7020008C7020008C7020008C70200082B
:10019000C7020008C7020008C7020008C70200081B
:1001A000C7020008C7020008C7020008C70200080B
:1001B000C7020008C7020008C7020008C7020008FB
:1001C000C7020008C7020008C7020008C7020008EB
:1001D000C7020008C7020008C7020008C7020008DB
:1001E000C7020008C7020008C7020008C7020008CB
:1001F000C7020008C7020008C7020008C7020008BB
:10020000C7020008C7020008C7020008C7020008AA
:10021000C7020008C7020008C7020008C70200089A
:10022000C7020008C7020008C7020008000000005B
:10023000C7020008C702000800000000C70200084B
:10024000C7020008C7020008C7020008C70200086A
:10025000C7020008C7020008C7020008C70200085A
:10026000C7020008C7020008C7020008C70200084A
:10027000C7020008C7020008C7020008000000000B
:10028000C7020008C7020008C702000800000000FB
:1002900000000000C7020008DFF80CD000F07CF876
:1002A000004800478D50000870060024064880472B
:1002B00006480047FEE7FEE7FEE7FEE7FEE7FEE74B
:1002C000FEE7FEE7FEE7FEE7A53900089902000811
:1002D0002DE9F05F0546002092469B46884606467B
:1002E000814640241BE0284641464746224600F00E
:1002F00041F853465A46C01A914110D31146184648
:10030000224600F028F82D1A67EB01084F462246D6
:100310000120002100F01FF817EB00094E41201EBC
:10032000A4F10104DFDC484631462A464346BDE8D5
:10033000F09FD2B201E000F8012B491EFBD27047BA
:100340000022F6E710B513460A4604461946FFF7A1
:10035000F0FF204610BD202A04DB203A00FA02F10B
:10036000002070479140C2F1200320FA03F31943A3
:1003700090407047202A04DB203A21FA02F0002145
:10038000704721FA02F3D040C2F1200291400843A5
:100390001946704700207047064C074D06E0E0689C
:1003A00040F0010394E8070098471034AC42F6D3BC
:1003B000FFF776FF145300083453000810B5064CBD
:1003C00000224021204600F03DFA01222046BDE8EF
:1003D0001040402100F036BA00080258FEE770478E
:1003E00072B6FEE7F0B5D1E90843CD690A68C2B13B
:1003F0000268254322F4F84213431D430560D1E906
:100400000125D1E903364C692A434568334389699C
:100410001A43EB0B2243DB030A431A4342600020DA
:10042000F0BDD1E9012ED1E9036CD1E9057142EAB1
:100430000E0246EA0C0632433A430A4301682A4355
:1004400022431A436FF30E010A430260E7E7426951
:1004500043F6FE739A4342EA41014161002070472E
:1004600070B5D1E90024D1E9023105696FF01F06AA
:10047000224306EB431343EA41210A432A43026124
:10048000002070BD2DE9F04F8B8A6FF00F05264CD0
:100490004FF07F4BD1F80C9004EB03536FF0FF0447
:1004A0004FEA042A1AB386684FEA09321F4FA2F5B1
:1004B00080521A433E4032438260D1E900278E6861
:1004C000521E05EB07150F8A2A43C56804EB062464
:1004D0000E7E0AEB074322431A430BEB06610A43E5
:1004E00005F070431A43C2600020BDE8F08F91E828
:1004F00004110F4E521E0F8A05EB08152A4304EB18
:100500000C2C06EB09350E7E42EA0C022A43856864
:100510000AEB074422431A430BEB06610A4305F03A
:1005200070431A438260DFE70000F0FFFF0F0FFF08
:1005300000F0FFFF70B5044600F090F90546601C1E
:1005400002D004480078044400F088F9401BA0421F
:10055000FAD370BD08000024F0B587B014216846B6
:10056000FFF7EEFE23480168002941D10121016017
:100570002148016841F4805101600068022500268D
:10058000694600F48050059003274FF683700C24D1
:1005900004948DE8E100194800F03CF848F2371067
:1005A00004948DE8E1001648694600F033F84CF2F7
:1005B000037004948DE8E1001248694600F02AF8BF
:1005C0004FF63F0004948DE8E1000F48694600F0C3
:1005D00021F88DE8F0000D486946049400F01AF8FF
:1005E000202004948DE8E1000948694600F012F8E3
:1005F00007B0F0BD00000024D44402580010025897
:1006000000180258000C0258001402580008025842
:10061000001C02582DE9FC4F01257E4C00234FF0B1
:10062000030A4FF0B04E4FF00F0BEBE005FA03F664
:1006300037403A0077D04F68012F05D0022F03D002
:10064000112F01D0122F1AD187684FEA4308D1F831
:100650000CC00AFA08F927EA09070CFA08FC4CEA68
:10066000070CC0F808C0476891F804C0B743CCF342
:10067000001C0CFA03FC4CEA070CC0F804C0C66866
:100680004FEA430CD1F80880E1460AFA0CF7BE4362
:10069000019708FA09F848EA0608C0F80C804E6885
:1006A000022E01D0122E12D1DE084FEA437C00EB5D
:1006B000860600960F69366A4FEADC6C0BFA0CF876
:1006C00007FA0CF726EA08063743009E37620E79D0
:1006D0000768DDF804C006F0030606FA09F627EA03
:1006E0000C073E4306604E68F6001CD54A4E37683C
:1006F00047F00207376036689F0706F0020600964B
:1007000023F0030606F1B046B1463F0FD6F8086461
:10071000DFF808810BFA07FC404526EA0C0603D1F6
:100720004FF0000C41E06CE0DFF8F4C0604502D10E
:100730004FF0010C39E0DFF8ECC0604502D14FF01A
:10074000020C32E0DFF8E0C0604502D14FF0030C4C
:100750002BE0DFF8D8C0604502D14FF0040C24E054
:10076000DFF8CCC0604502D14FF0050C1DE0DFF88A
:10077000C4C0604502D14FF0060C16E0DFF8B8C0E7
:10078000604502D14FF0070C0FE0DFF8B0C06045C4
:1007900002D14FF0080C08E0DFF8A4C0604502D198
:1007A0004FF0090C01E04FF00A0C0CFA07FC4CEA80
:1007B000060CC9F808C426684F6826EA0206FF033B
:1007C00000D51643266066684F6826EA0206BF0316
:1007D00000D516436660D1F804C07646DEF8007096
:1007E0005FEACC2C27EA020700D517433760D1F81F
:1007F00004C077685FEA8C2C27EA020700D517430C
:1008000077605B1C0A681746DA407FF40FAFBDE8DB
:10081000FC8F000080000058F44402580000025889
:100820000004025800080258000C02580010025838
:100830000014025800180258001C025800200258E8
:10084000002402580AB1816170470904FBE70000E7
:1008500001480068000C70470010005C0148806887
:1008600070470000080000240248816802781144A3
:100870008160704708000024032010B500F078F86C
:1008800001F0D8F90F4A104914681368C4F3032221
:1008900003F00F038A5CC95C02F01F0201F01F0124
:1008A000D0400A4A20FA01F111600949086000208D
:1008B00000F010F808B1012010BD00F02BF8002066
:1008C00010BD000018440258C4510008180000244C
:1008D0001400002470B50D4D04462878A0B14FF4E3
:1008E0007A71B1FBF0F00A490968B1FBF0F002F04F
:1008F0000FFA48B9102C07D200222146501E00F0F2
:1009000017F800206C6070BD012070BD0800002445
:1009100014000024054808B5016841F00201016097
:10092000006800F00200009008BD0000F444025886
:100930000E4BF0B41B680D46C3F30223C3F1070648
:10094000042E00D90426191D072901D2002300E036
:10095000DB1E012404FA06F19C40491E2940641E56
:10096000994014402143F0BC03F0A9BE0CED00E017
:10097000064900F0070210B54FF6FF040868044B63
:10098000204040EA02201843086010BD0CED00E052
:100990000000FA05134970B50A68D243520705D51D
:1009A000096801F00701814213D118E00A6822F0BA
:1009B000070202430A60FFF751FF0A4D4FF47A76AF
:1009C0000446083D07E000BFFFF748FF001BB042A8
:1009D00001D9012070BD2868C0438004F4D40020F0
:1009E00070BD00000C4802582DE9F84F1E46154610
:1009F0008A460446FFF732FF814694F840000128FA
:100A00000ED001274FF0000884F8407094F84100A0
:100A1000012807D05FF0020084F84080BDE8F88F1D
:100A20000220FBE74221C4F8448084F841100022F0
:100A300020214B462046009602F045FD0028EBD1D0
:100A40002168286888622168686848622168A86807
:100A5000C86220682969026822F4400242F48002D8
:100A600011430160E9684FF000622046CAF828107F
:100A7000514602F054FC01224B46082120460096C4
:100A800002F021FD0028C7D122680821D16084F836
:100A90004170C1E72DE9F84F17468B460446FFF732
:100AA000DDFE824694F8400001280ED001264FF06A
:100AB000000884F8406094F84100012807D002251E
:100AC00084F840802846BDE8F88F0220FBE74FF00D
:100AD0000209C4F8448084F8419000222021534642
:100AE0002046009702F0EFFC0500E9D100225946AC
:100AF000204602F014FCDBF8240058B901225346CA
:100B000002212046009702F0DEFC0500D8D12168C2
:100B1000C1F80C9084F84160D2E70000F8B50446B3
:100B2000FFF79CFE05461CB194F8410010B107E0A8
:100B30000120F8BD204600F047F841F28830A0645B
:100B400020686FF0FF02A168036802EB012223F422
:100B5000706111430160A06C002220212B4600909F
:100B6000204602F0B0FC0028E3D12268D4E9073522
:100B70002679E168176845EA0665DFF844C019433D
:100B8000104B29430025012607EA0C073943116061
:100B90002268D4E90517B4F810C0D2F804E039434C
:100BA0000EEA030E4EEA0C431943516021680A68AD
:100BB00042F001020A60656484F84160F8BD0000FB
:100BC0002FFFFF00FEF8E0FF2DE9F04186B004465C
:100BD00014216846FFF7B4FB20492068884239D1C8
:100BE0001F48016841F480410160006800F48040C2
:100BF00005901B480C30016841F04001016001681C
:100C000001F040010591016841F020010160006898
:100C100002240125694600F02000059003260A27DA
:100C200040208DE8F1000F48FFF7F4FC0921DFF8C0
:100C300038804FF49860CDE903618DE83100694652
:100C40004046FFF7E7FC300269468DE8F100404678
:100C5000FFF7E0FC06B0BDE8F08100000050005254
:100C6000D444025800180258001402582DE9F84FD5
:100C700015460E460446FFF7F1FD8246206881695D
:100C800094F8403000F12009012B0DD001274FF0DE
:100C9000000884F8407094F84120012A06D0022010
:100CA00084F84080BDE8F88F0220FBE7C4F8448058
:100CB000A6B3222284F841200269521CA263026971
:100CC000521C62632663426922F0406242F08062F5
:100CD0004261206881610EE00621204602F0F3FBAC
:100CE000C8B999F80000216B0870206B401C206384
:100CF000A06B401EA063A06B53464FF0010200950D
:100D00000028E9D14FF00201204602F0DCFB10B9C7
:100D100022680221D16084F84170C1E7FFE7616C6D
:100D2000012041F008016164BAE700002DE9F84FA5
:100D300015460E460446FFF791FD94F84010824692
:100D40002068012900F120090ED001274FF000088A
:100D500084F8407094F84110012907D05FF0020038
:100D600084F84080BDE8F88F0220FBE7C4F8448097
:100D700086B3122184F841100169491CE1620169BE
:100D8000491CA1626662416921F0406141610EE047
:100D90000421204602F097FBC8B9606A017889F8FF
:100DA0000010606A401C6062E06A401EE062E06A17
:100DB00053464FF0010200950028E9D14FF002019F
:100DC000204602F080FB10B922680221D16084F82D
:100DD0004170C5E7FFE7616C012041F008016164E3
:100DE000BEE7000010B500F0DFFE05490968054ABE
:100DF000C1F30211515C01F01F01C84010BD000099
:100E000020440258C4510008494930B5484C0B1DD4
:100E10000A68143409681D68246802F00303C5F3E6
:100E20000012C1F30531C4F3CC04002914FB02F213
:100E300000EE102AF8EE400A75D03F4A9FED3D1AA9
:100E4000B7EE000A6BB1DFED3D1A012B01D0022B8A
:100E500064D002EE101A1168F8EE422A81EEA22A3E
:100E600021E0334C283C23689B0612D5344B246880
:100E700001EE901A1168C4F3C104F8EE612AE34050
:100E800001EE903AC1F30801F8EE611A81EEA22A50
:100E90000BE001EE901ADFED2B2A00BFF8EE611A8D
:100EA000116882EEA12AC1F3080101EE901A1168BF
:100EB000F8EE611A40EE811A71EE800A62EE200AA5
:100EC000C1F3462101EE101AB8EE411A31EE001AB4
:100ED000C0EE811ABCEEE11A80ED001A1168C1F370
:100EE000064101EE101AB8EE411A31EE001AC0EEBA
:100EF000811ABCEEE11A80ED011A1168C1F3066196
:100F000001EE101AB8EE411A31EE000A80EE801A96
:100F1000BCEEC10A80ED020A30BD04E001EE901A79
:100F2000DFED092ABAE70021016041608160F3E743
:100F30002844025800000039384402580024744AFA
:100F40000090D0030024744C20BCBE4B494930B5FE
:100F5000484C0B1D0A681C3409681D68246802F09F
:100F60000303C5F30022C1F30551C4F3CC040029E7
:100F700014FB02F200EE102AF8EE400A75D03F4A48
:100F80009FED3D1AB7EE000A6BB1DFED3D1A012B64
:100F900001D0022B64D002EE101A1168F8EE422A3A
:100FA00081EEA22A21E0334C283C23689B0612D50F
:100FB000344B246801EE901A1168C4F3C104F8EEB2
:100FC000612AE34001EE903AC1F30801F8EE611A9C
:100FD00081EEA22A0BE001EE901ADFED2B2A00BF72
:100FE000F8EE611A116882EEA12AC1F3080101EE40
:100FF000901A1168F8EE611A40EE811A71EE800ABB
:1010000062EE200AC1F3462101EE101AB8EE411A31
:1010100031EE001AC0EE811ABCEEE11A80ED001A22
:101020001168C1F3064101EE101AB8EE411A31EE13
:10103000001AC0EE811ABCEEE11A80ED011A1168A7
:10104000C1F3066101EE101AB8EE411A31EE000A42
:1010500080EE801ABCEEC10A80ED020A30BD04E0C9
:1010600001EE901ADFED092ABAE700210160416024
:101070008160F3E7284402580000003940440258D8
:101080000024744A0090D0030024744C20BCBE4B52
:101090002DE9FC5F044650F8241B002500902E46E5
:1010A0000801FE4FDFF8F8831DD5606E50B1B0F532
:1010B000801F0CD0B0F5001F0ED0B0F5401F1DD022
:1010C00001250FE0386840F40030386016E0022156
:1010D000201D02F01DFA03E00098022102F0A8FA98
:1010E00005000BD02E462088C00523D5606D05284D
:1010F0001ED2DFE800F00C11161B1B00626ED8F840
:10110000001021F440111143C8F80010EBE73868D3
:1011100040F40030386009E00021201D02F0F8F9A9
:1011200003E00098002102F083FA05466DB100E06B
:1011300001252E462088800528D5A06D80281ED048
:101140000CDC90B140280ED114E0626DD8F800108C
:1011500021F007011143C8F80010EBE7C02813D0B5
:10116000B0F5807F10D001250FE0386840F40030E2
:10117000386009E00021201D02F0CAF903E0009860
:10118000002102F055FA054695B12E462088DFF879
:101190001093400509F108092CD5D4F8A400B0F546
:1011A000800F20D00DDCA0B1B0F5001F0FD115E0ED
:1011B000A26DD8F8001021F4E0711143C8F80010B6
:1011C000E4E7B0F5C00F13D0B0F5000F10D0012543
:1011D0000FE0386840F40030386009E00021201D3D
:1011E00002F096F903E00098002102F021FA05468A
:1011F00075B12E46208800052DD5D4F8A800B0F191
:10120000007F21D00EDCA8B1B0F1807F10D116E0B4
:10121000D4F8A420D9F8001021F460011143C9F8D2
:101220000010E7E7B0F1407F13D0B0F1806F10D02D
:1012300001250FE0386840F40030386009E00021F3
:10124000201D02F065F903E00098002102F0F0F99A
:1012500005466DB12E46206880011FD5A06CD8B11F
:1012600010280FD0202812D0302815D0012514E0E6
:10127000D4F8A820D9F8001021F0E0611143C9F892
:101280000010E8E7386840F40030386004E00221DC
:10129000201D02F03DF905466DB12E462088C004A0
:1012A0002BD5E06DB0F5005F20D00DDCA0B1B0F51E
:1012B000805F0FD115E07A48A26C001F016821F011
:1012C000300111430160E9E7B0F5405F13D0B0F59C
:1012D000804F10D001250FE0386840F400303860AE
:1012E00009E00021201D02F013F903E0009800211D
:1012F00002F09EF9054685B12E462088800429D546
:10130000206EB0F5403F23D010DC08B3B0F5803F2D
:1013100014D0B0F5003F0FD115E0E26DD8F8001001
:1013200021F4E0411143C8F80010E6E7B0F5802F42
:101330000ED0B0F5A02F0BD001250AE00121201D11
:1013400002F0E6F803E00098012102F071F9054689
:101350008DB12E46208840042AD5D4F8AC00B0F1D7
:10136000405F23D010DC08B3B0F1805F14D0B0F13F
:10137000005F0FD115E0226ED8F8001021F4E021B3
:101380001143C8F80010E5E7B0F1804F0ED0B0F17E
:10139000A04F0BD001250AE00121201D02F0B8F872
:1013A00003E00098012102F043F905466DB12E4695
:1013B000208800041FD5E06ED8B1B0F1805F0ED058
:1013C000B0F1005F10D0012514E0D4F8AC20D9F8BA
:1013D000001021F0E0411143C9F80010E8E7386837
:1013E00040F40030386004E00121201D02F090F844
:1013F00005466DB12E462068C0011ED5606CD0B187
:1014000001280ED0022811D0032814D0012513E0A2
:10141000E26ED8F8001021F040511143C8F80010D6
:10142000E9E7386840F40030386004E00221201D0C
:1014300002F06EF8054685B12E462068DFF85CB0F4
:101440004002ABF11C0B57D51648016841F480717E
:101450000160FFF703FA82460EE01148626C001F3C
:10146000016821F0030111430160E6E7FFF7F6F997
:10147000A0EB0A0064283DD80A480068C005F5D5ED
:101480007DBBDFF81CA0B4F8B0100AF1200ADAF82E
:10149000000001F4407100F4407005E02C44025853
:1014A0005044025800480258884211D0DAF800101F
:1014B000DAF8002021F4407142F48032CAF80020AA
:1014C000DAF8002022F48032CAF80020CAF80010AE
:1014D000D4F8B000B0F5807F21D1FFF7BFF90190BB
:1014E00019E008E0FFF7BAF90199411A41F2883092
:1014F000814210D903252E462078DFF830A4C0079A
:101500003DD0A06F182838D026DC80B3082829D019
:10151000102825D12CE0DAF800008007E2D5D4F8B5
:10152000B010C1F30120032858460DD0016821F402
:101530007C510160B4F8B020DAF80010C2F30B025D
:101540001143CAF80010D7E7F94A036802EA1112FA
:1015500023F47C511143ECE720280ED028280CD02E
:1015600001250BE00121201D01F0D2FF04E004E081
:101570000098012102F05CF805465DB12E46207806
:1015800080071ED5606F062819D2DFE800F0160C20
:1015900011161616A26FDAF8001021F03801114367
:1015A000CAF80010EBE70121201D01F0B1FF03E0B4
:1015B0000098012102F03CF8054675B100E00125D4
:1015C0002E46207840071FD5D4F89000062819D25F
:1015D000DFE800F0160C11161616626FDAF800102C
:1015E00021F007011143CAF80010EAE70121201D8C
:1015F00001F08EFF03E00098012102F019F8054682
:101600009DB100E001252E46207880062BD5D4F828
:101610008C00B0F1405F24D011DC10B3B0F1805FDA
:1016200015D0B0F1005F10D116E0D4F89020D9F8B1
:10163000001021F007011143C9F80010E4E7B0F1F0
:10164000804F0ED0B0F1A04F0BD001250AE0002151
:10165000201D01F05DFF03E00098022101F0E8FF8A
:1016600005468DB12E46207840062BD5D4F898003B
:10167000B0F5406F24D011DC10B3B0F5806F15D0F9
:10168000B0F5006F10D116E0D4F88C20DAF8001015
:1016900021F0E0411143CAF80010E4E7B0F5805FA3
:1016A0000ED0B0F5A05F0BD001250AE00021201D6F
:1016B00001F02EFF03E00098022101F0B9FF05467A
:1016C0008DB12E46207800062BD5D4F89C00B0F5BD
:1016D000C04F24D011DC10B3B0F5005F15D0B0F5C9
:1016E000804F10D116E0D4F89820D9F8001021F4DA
:1016F000E0511143C9F80010E4E7B0F5004F0ED0F7
:10170000B0F5204F0BD001250AE00021201D01F08B
:10171000FFFE03E00098022101F08AFF05464DB16B
:101720002E46207800071ED5D4F88000B0F5805FE3
:101730000AD00FE0D4F89C20D9F8001021F46041C1
:101740001143C9F80010ECE70098022101F070FF86
:1017500000B10126D4F88020DAF8001021F44051BD
:101760001143CAF800102078C00613D5D4F89400AD
:10177000B0F5807F05D10098022101F059FF00B13A
:101780000126D4F89420D9F8001021F440711143B7
:10179000C9F800102068000316D5D4F8A00038B1AD
:1017A000B0F5803F09D0B0F5003F0BD001250AE02D
:1017B0000021201D01F0ACFE03E00098022101F0A1
:1017C00037FF054685B12E462068400322D5D4F860
:1017D0008400B0F5801F11D0B0F5001F13D0B0F514
:1017E000401F15D0012514E0D4F8A020D9F800102E
:1017F00021F440311143C9F80010E5E7386840F49E
:101800000030386004E00098012101F011FF054626
:1018100055B12E462068C0031CD5E06C70B1B0F500
:10182000803F10D0012514E0D4F88420DAF80010AD
:1018300021F440111143CAF80010EBE7386840F476
:101840000030386004E00221201D01F061FE0546F1
:10185000CDB12E462068800005D50098022101F008
:10186000E7FE00B10126206880031BD5E06FB8B108
:10187000B0F5807F10D0B0F5007F11D0B0F5407F7B
:101880000ED001250DE02948E26C0838016821F4EA
:10189000803111430160DDE7386840F40030386082
:1018A000F5B32E462068C00207D5226FD8F8001085
:1018B00021F000411143C8F800102068C00008D58D
:1018C000D4F8B420DBF8001021F480411143CBF8A8
:1018D00000102068800207D5A26ED8F8001021F011
:1018E00080711143C8F80010206840000CD5DBF867
:1018F000001021F40041CBF80010DBF80010D4F800
:10190000B8201143CBF800102068002807DA0748F8
:10191000226D0838016821F040511143016000E058
:1019200008E086B10120BDE8FC9F00005444025845
:10193000CFFFFF00E26FDAF8001021F4407111438D
:10194000CAF80010AEE70020EDE700002DE9F05FD7
:1019500004000F467ED0DFF83882D8F8000000F08F
:101960000F00B8420CD2D8F8001021F00F01394313
:10197000C8F80010D8F8000000F00F00B84269D194
:101980002078844D40070AD52069296801F070014C
:10199000884204D9296821F0700101432960207828
:1019A0007C4E361D00070AD56069316801F0700170
:1019B000884204D9316821F07001014331602078F8
:1019C000C0060AD5A069316801F4E061884204D9F3
:1019D000316821F4E061014331602078DFF8B4B16F
:1019E00080060BF1080B0CD5E1695846DBF80020A6
:1019F00002F07002914204D9026822F070020A4398
:101A00000260207880070AD5E068296801F00F019C
:101A1000884204D9296821F00F0101432960207808
:101A2000C0073ED05B49A2682868183920F470606E
:101A3000104328606068022818D0032819D009686C
:101A4000012819D0490700294ADADFF848A1AAF18C
:101A5000080A00E044E0DAF8002022F0070202431E
:101A6000CAF80020FEF7FAFE814612E009688903F1
:101A7000E9E709688901E6E7C905E4E7FEF7EEFE54
:101A8000A0EB090141F28830814202D90320BDE870
:101A9000F09F6168DAF8000000F03800B0EBC10F89
:101AA000ECD1207880070AD5E068296801F00F01A1
:101AB000884204D2296821F00F0101432960D8F837
:101AC0000010404601F00F01B9420BD9016821F026
:101AD0000F0139430160006800F00F00B84201D0E7
:101AE0000120D4E7207840070AD52069296801F051
:101AF0007001884204D2296821F0700101432960F5
:101B0000207800070AD56069316801F070018842C9
:101B100004D2316821F07001014331602078C006A1
:101B20000AD5A069316801F4E061884204D23168C5
:101B300021F4E06101433160207880060CD5E16931
:101B40005846DBF8002002F07002914204D202688D
:101B500022F070020A43026000F06CF80E492A6815
:101B60002B68C2F3032203F00F038A5CC95C02F006
:101B70001F0201F01F01D040084A20FA01F1116054
:101B80000749086007480068BDE8F05FFEF7A2BE9D
:101B90000020005218440258C451000818000024C4
:101BA000140000240C00002430B500F043F80B4A68
:101BB0000B490C4B15681468C5F3032204F00F049D
:101BC0008A5C095D02F01F0201F01F01D040064A45
:101BD00020FA01F119601060084630BD184402581F
:101BE000C4510008180000241400002400B5FFF7B9
:101BF000DBFF05490968054AC1F30211515C01F098
:101C00001F01C84000BD00001C440258C451000818
:101C100000B5FFF7C9FF05490968054AC1F302216C
:101C2000515C01F01F01C84000BD00001C44025877
:101C3000C4510008454970B545480968434B103BFD
:101C400011F0380208D00111082A03D0102A0BD055
:101C5000182A0BD0084670BD19688906FBD519688B
:101C6000C1F3C101C84070BD3A4870BD3749374D16
:101C700018310C1D24350A68096826682D6802F0A1
:101C8000030406F00102C1F30511C5F3CC0515FBF1
:101C900002F200EE102AB8EE400AE9B32F4ADFED57
:101CA0002E0AB7EE001A6CB1DFED2D1A012C01D00F
:101CB000022C43D002EE101A1068F8EE422A81EE90
:101CC000A22A1EE01C68A40611D51B6801EE901A1A
:101CD0001168C3F3C103F8EE612AD84001EE900AFF
:101CE000C1F30800F8EE611A81EEA22A0BE001EEC2
:101CF000901ADFED1C2A00BFF8EE611A106882EE20
:101D0000A12AC0F3080001EE900AF8EE611A40EE35
:101D1000201A31EE810A00E015E022EE000A106878
:101D2000C0F34620401C00EE900AF8EE600A80EEF8
:101D3000201ABCEEC10A10EE100A70BD01EE901A16
:101D4000DFED092AD8E7002070BD000010440258DA
:101D50000090D00340787D010000003930440258E3
:101D60000024744A0024744C20BCBE4B2DE9F05F63
:101D700004007CD0FF4F2078FE4D1837DFF8F49335
:101D8000103DC00748D0D9F80000396800F038008D
:101D9000102815D0182803D101F0030002280FD015
:101DA0006068B0F5803F12D010B1B0F5A02F18D008
:101DB000286820F480302860286820F4802009E01A
:101DC0002868800328D560680028D2D024E02868DD
:101DD00040F480302860606888B1FEF73FFD064619
:101DE00009E0286840F480202860F0E7FEF736FD1F
:101DF000801B64287ED828688003F7D50CE0FEF7A6
:101E00002DFD064605E000BFFEF728FD801B642877
:101E1000F0D828688003F7D4207841F20308D54E23
:101E20000C3E800753D5D9F80000396810F038000F
:101E30000ED0182801D188070AD0E068A8B3296815
:101E400021F0190101432960FEF708FD82461BE0DD
:101E50002868400702D5E06800288AD0FEF7F8FC21
:101E600040451BD82069402812D0316800E0CCE002
:101E700021F47C3141EA0030306028E0FEF7EEFCCE
:101E8000A0EB0A000228B5D828684007F6D5E5E798
:101E9000306820F47C3040F40030EDE7207C31687D
:101EA00021F0FE4141EA0060E6E7FFE7286820F004
:101EB00001002860FEF7D2FC824605E0FEF7CEFC6A
:101EC000A0EB0A00022895D828684007F6D42078AD
:101ED000C0065FD5D9F80000DFF898B2396800F085
:101EE0003800ABF1040B082812D0182805D101F0F6
:101EF000030000E0EAE001280AD0E0690028286831
:101F000038D040F080002860FEF7A8FC824623E02D
:101F10002868C00523D5E069802876D11FE0206AB3
:101F2000202821D0316821F0F84141EA80603060FA
:101F300030E000BF94F82010DBF8002022F07C5243
:101F400042EA0161CBF8001024E000BFFEF786FCF6
:101F5000A0EB0A00022896D82868C005F6D5FEF73F
:101F600077FC4045E6D8DAE7306820F0F84040F0EA
:101F70008040DCE720F080002860FEF76FFC06461A
:101F800005E000BFFEF76AFC801B02289BD828688A
:101F9000C005F7D42078000729D5764861696430F8
:101FA00000298046016811D041F001010160FEF76F
:101FB00055FC064605E000BFFEF750FC801B0228DA
:101FC000C9D8D8F800008007F6D510E021F001014B
:101FD0000160FEF743FC064605E000BFFEF73EFC4D
:101FE000801B022872D8D8F800008007F6D4207829
:101FF000800623D5A0690028286810D040F48050BE
:102000002860FEF72BFC064605E02CE1FEF726FCD7
:10201000801B02285AD828688004F7D50EE020F4E7
:1020200080502860FEF71AFC064604E0FEF716FC16
:10203000801B02284AD828688004F7D420784007FB
:102040004FD5DFF83481D8F8001041F48071C8F81A
:102050000010FEF703FC064605E000BFFEF7FEFB9E
:10206000801B642832D8D8F80000C005F6D5414E50
:10207000A068603601280AD008B1052813D030685E
:1020800020F001003060306820F0040002E0306889
:1020900040F001003060A06841F2883A90B1FEF74C
:1020A000DDFB80460AE0306840F004003060EEE777
:1020B000FEF7D4FBA0EB0801514507D83068800734
:1020C000F6D50EE0FEF7CAFB804607E084E000BFCD
:1020D000FEF7C4FBA0EB080151457DD830688007AE
:1020E000F6D4606AF0B3DFF88C80D9F8001008F1FC
:1020F0002008C1F3C20103296FD00228286820F00C
:102100008070286003D0FEF7A9FB044680E0FEF74C
:10211000A5FB064605E000BFFEF7A0FB801B0228DA
:1021200073D828688001F7D4E26A40F2F331386846
:1021300054F8283F884340EA021018433860217B56
:102140004FF4FE0C22894FF0FE47208A4902267D7B
:10215000521E401EA1F5007189B20CEA0040C2F384
:10216000080200E081E01143761E0143014807EABE
:10217000066203E010440258004802581C30114324
:102180003B4AC8F80010016821F0010101601168A4
:102190004FF6F876236AB14341EAC3011160016842
:1021A000A26921F00C01114301600168E26921F08C
:1021B000020111430160016841F48031016001684E
:1021C00041F400310160016841F48021016001683F
:1021D00041F00101016001E017E01DE0286840F0D6
:1021E00080702860FEF73AFB044604E0FEF736FBF9
:1021F000001B022809D828688001F7D535E000BF08
:10220000FEF72CFB001B022802D90320BDE8F09F3B
:1022100028688001F4D428E039680128D8F8000043
:1022200021D0A26A01F0030393421CD1E26AC1F3F8
:1022300005118A4217D1216BC0F30802491E8A4258
:1022400011D1616BC0F34622491E91420BD1A16BA3
:10225000C0F30642491E914205D1E16BC0F306600E
:10226000491E814201D00120D0E70020CEE70000C6
:102270003444025870B504000D4603D094F82C0085
:1022800010B107E0012070BD002084F82D00204629
:1022900000F018F8022084F82C002068211DFEF7B9
:1022A000A1F8D4E900022946FEF7ECF80448012120
:1022B000026842F00042026084F82C10002070BDD9
:1022C00000400052FEF748B910B5044690F82C00C3
:1022D000022804D094F82C00012801D0012010BD60
:1022E000022084F82C002068FEF7B1F8012084F861
:1022F0002C00002010BD000070B5044690F82C00A2
:102300000D46022804D0012803D0052801D0012061
:1023100070BD022084F82C002068FEF7A1F8286820
:10232000022805D05FF0010084F82C00002070BD69
:102330000520F9E72DE9F047040029D04A4A4FF07B
:1023400000092068494B4A4D9042C4F8289006D0B5
:10235000984204D0A84202D0E1680F2918D8E16859
:102360004FF0010AE76B0831C9080AEB57167143B1
:10237000904205D0984203D0A84201D0082907D83E
:10238000904203D0984201D0A84204D1102902D92A
:102390000120BDE8F08794F8810020B9204684F838
:1023A000809000F067F8022084F8810020680168BE
:1023B00021F001010160A069B0F1806F0AD160686D
:1023C000B0F5800F06D1A06B20B92068016841F4F8
:1023D00080510160A56AE0692368E16B2843E268E7
:1023E000084310439860D4E90D02D4E905C1636A3B
:1023F00025691843D4F820800A43266810432843EF
:10240000A56DD4E90172D4E9123140EA0C0040EA2A
:10241000080038430843104318432843F0606068BD
:1024200068B92068816821F4C05141F4006181607D
:102430002068816821F4C06141F480618160206876
:10244000016D21F0010101656068400206D5206838
:10245000626DC16821F000411143C160C4F88490ED
:1024600084F881A0002094E700300140003800404B
:10247000003C00402DE9F04186B006461421684634
:10248000FDF75EFF30680025324A022430490326FA
:10249000052790423CD12E481030026842F4805209
:1024A0000260006800F480500590086840F0020067
:1024B0000860086800F002000590086840F04000DD
:1024C0000860086800F040000590086840F00100CE
:1024D0000860086801AA4FF02008CDF8008000F0DD
:1024E00001006946CDE9047082E870001A48FEF7E1
:1024F00091F8200269468DE8F1001848FEF78AF845
:1025000001AACDF800801648694682E8F00019E07B
:10251000144A904218D10E480830026842F48042B2
:102520000260006800F480400590086840F4807004
:1025300008600868694600F4807005900E208DE8F8
:10254000F1000948FEF766F806B0BDE8F08100002A
:10255000E0440258003001400004025800180258BC
:102560000000025800380040002002582DE9FF5FAB
:10257000044616460F461D4600214FF0040BD4E9D1
:102580000002009130300290B2F5800F01D1A068B6
:1025900088B194F88000012819D04FF0010984F81F
:1025A0008090FEF75BF994F88110824600200129A3
:1025B0000FD0022126E084F881B03A461146204629
:1025C0000093334600F014FA04B0BDE8F09F0220F7
:1025D000FAE7B7B1AEB1A26880466766A4F8686052
:1025E00084F881B0C4F88400A4F86A60E065A4F8B7
:1025F0006000A4F86200B2F5C02F2067606705D0C4
:1026000009E0012184F880000846DDE720680168C0
:1026100021F400610160206841686FF30F013143CC
:1026200041602068016841F0010101606068B0F517
:10263000800F04D12068016841F400710160E068F6
:102640000F282ED948F20806B4F86A00002859D09D
:102650002068416931420BD0006B616E0860606E8A
:10266000001D6066B4F86A00401EA4F86A00EBE73B
:10267000FEF7F4F8A0EB0A00A84202D3681CE3D0EE
:1026800001E0002DE0D1204601F0A4F8D4F8842028
:1026900084F8808042F48071C4F8841084F88190BA
:1026A00079E007282AD868E02068416911F4604F72
:1026B00019D04169090409D5006B616E0860606E2C
:1026C000001D6066B4F86A00801E09E00298008868
:1026D000616E0880606E801C6066B4F86A00401EFF
:1026E000A4F86A000AE0FEF7B9F8A0EB0A00A842D5
:1026F00002D3681C02D0C6E7002DC4D0B4F86A002B
:102700000028D1D13DE02068416911F4604F2AD002
:102710004169090409D5006B616E0860606E001D97
:102720006066B4F86A00001F1AE0416901F4C04114
:10273000B1F5005F0AD902980088616E0880606E6A
:10274000801C6066B4F86A00801E09E090F83000D2
:10275000616E0870606E401C6066B4F86A00401ECE
:10276000A4F86A0009E0FEF779F8A0EB0A00A84295
:1027700002D3681C01D010E07DB1B4F86A000028D3
:10278000C1D1204601F026F884F88190D4F8841055
:1027900084F8808079B1012016E7204601F01AF80C
:1027A000D4F8842084F8808042F48070C4F88400D7
:1027B00084F88190EFE7009806E72DE9FC5F044676
:1027C000006817468A4600211D4694F8802000F1D3
:1027D000200B0191012A0DD04FF0010884F8808070
:1027E000FEF73CF8814694F881000026012804D0C9
:1027F00002201EE00220BDE8FC9FBAF1000F17D0B6
:10280000B7B1A1680320C4F85CA0A4F8607084F894
:102810008100C4F88460A4F862706666A4F86860F9
:10282000A4F86A60B1F5C02F6667266704D008E097
:10283000012084F88060DEE72068016841F40061CF
:102840000160206841686FF30F01394341602068DF
:10285000016841F0010101606068B0F5800F04D1AA
:102860002068016841F400710160E0680F281AD8FF
:102870002CE02068416989070BD5E16D0968016288
:10288000E06D001DE065B4F86200401EA4F862002F
:1028900009E0FDF7E3FFA0EB0900A84202D3681CA2
:1028A00001D005E025B1B4F862000028E1D183E051
:1028B000204600F08FFFD4F8841084F8806041F443
:1028C0008071C4F8841084F881808DE007282CD8AA
:1028D0006EE02068416989071CD5B4F862100129AF
:1028E0000BD9E16B49B1E16D09680162E06D001D32
:1028F000E065B4F86200801E09E0E06D0188ABF885
:102900000010E06D801CE065B4F86200401EA4F881
:1029100062000AE0FDF7A2FFA0EB0900A84202D383
:10292000681C02D0C4E7002DC2D0B4F862000028B1
:10293000CFD141E02068416989072ED5B4F86210F3
:1029400003290CD9E16B402909D9E16D09680162BD
:10295000E06D001DE065B4F86200001F1AE0B4F8F5
:10296000621001290CD9E16B51B1E06D0188ABF81F
:102970000010E06D801CE065B4F86200801E09E084
:10298000E16D097880F82010E06D401CE065B4F836
:102990006200401EA4F862000AE0FDF75FFFA0EBB2
:1029A0000900A84202D3681C02D081E7002DB9D0EB
:1029B000B4F862000028BDD100224B460821204611
:1029C000009500F065FF28B1D4F8840040F02000A5
:1029D000C4F88400204600F0FDFE84F88180D4F81D
:1029E000840084F8806008B1012004E7019802E7C0
:1029F0002DE9FF4F83B090F880100446006801294C
:102A00004FF00001109F1D46019100F1200100F1DF
:102A1000300093460291009014D04FF0010A84F8E0
:102A200080A0FDF71BFF804694F8810063680021B9
:102A300001282E464FF480020CD0934208D1A3689F
:102A400033B903E0022007B0BDE8F08F042801D0BD
:102A5000022037E0049898B3BBF1000F31D07DB36A
:102A600094F88100042802D0052084F8810089466A
:102A70000846C4F88410C4F864B0A4F86A50A4F8F6
:102A800068500499E165A4F86250A4F8605020678A
:102A90006067206841686FF30F0129434160206837
:102AA000016841F0010101606068904204D1206832
:102AB000016841F400710160E0680F2835D846E0F4
:102AC000FFE7012084F88010BDE72068416989078D
:102AD0000DD565B1E16D09680162E06D001DE0652D
:102AE000B4F86200401EA4F86200B4F8625048F2E4
:102AF00008022068416911420DD066B1006B616E19
:102B00000860606E001D6066B4F86A00401EA4F89C
:102B10006A00B4F86A60FDF7A1FEA0EB0800B842B5
:102B200002D3781C01D004E01FB155EA0600CCD1D5
:102B3000D2E0204600F04EFED4F8842084F8809045
:102B400042F48071C4F8841084F881A0DCE0072886
:102B50004DD8BEE02068416989071CD5DDB1012D43
:102B60000BD9E16B49B1E16D09680162E06D001DAF
:102B7000E065B4F86200801E09E0E06D018802980B
:102B80000180E06D801CE065B4F86200401EA4F88E
:102B90006200B4F862502068416911F4604F1BD0A4
:102BA000D6B14169090409D5006B616E0860606E99
:102BB000001D6066B4F86A00801E09E00098008875
:102BC000616E0880606E801C6066B4F86A00401E0A
:102BD000A4F86A00B4F86A60FDF740FEA0EB0800B4
:102BE000B84202D3781C02D0A3E7002FA1D055EA47
:102BF0000600AFD170E02068416989072CD55DB32C
:102C0000032D0CD9E16B40290BD9E16D09680162F4
:102C1000E06D001DE065B4F86200001F18E0012DB2
:102C20000CD9E16B51B1E06D018802980180E06D33
:102C3000801CE065B4F86200801E09E0E16D09784F
:102C400080F82010E06D401CE065B4F86200401E82
:102C5000A4F86200B4F862502068416911F4604F32
:102C60002CD05EB34169090409D5006B616E086020
:102C7000606E001D6066B4F86A00001F1AE04169CA
:102C800001F4C041B1F5005F0AD900980088616E77
:102C90000880606E801C6066B4F86A00801E09E0DF
:102CA00090F83000616E0870606E401C6066B4F889
:102CB0006A00401EA4F86A00B4F86A60FDF7CEFD11
:102CC000A0EB0800B84202D3781C02D031E7002FF5
:102CD0008AD055EA06008ED10022434608212046BC
:102CE000009700F0D5FD28B1D4F8840040F0200012
:102CF000C4F88400204600F06DFD84F881A0D4F86B
:102D0000841084F8809009B101209CE601989AE62D
:102D1000401EB0F1807F10B501D3012010BD4FF0EF
:102D2000E02460610F21601701F0C9FC0020A06160
:102D30000721216110BD30B590F87C10012918D011
:102D4000012280F87C202421C0F880100022202459
:102D500050F8601B0B680D6823F0005325F0010547
:102D60000D60426050F8601C0B60046202771046F0
:102D700030BD022030BD70B5044690F87C000128BB
:102D80001DD0012284F87C202420C4F88000206813
:102D90000568026822F0010202602068826822F061
:102DA00060620A438260204600F06EFE22682021A5
:102DB00000201560C4F8801084F87C0070BD0220EB
:102DC00070BD70B5044690F87C0001281DD001222A
:102DD00084F87C202420C4F88000206805680268FC
:102DE00022F0010202602068826822F060420A43F9
:102DF0008260204600F048FE2268202100201560F5
:102E0000C4F8801084F87C0070BD022070BD10B53D
:102E1000040003D0D4F8800010B107E0012010BDF9
:102E2000002084F87C00204600F026F82420C4F816
:102E300080002068016821F001010160204600F057
:102E4000E9FE0128EBD0A06A10B1204600F04EFE4A
:102E50002068416821F4904141602068816821F038
:102E60002A0181602068016841F00101016020466B
:102E7000BDE8104000F09EBE70B586B00446142137
:102E80006846FDF75DFA1C492068884231D11B482D
:102E9000016841F400210160006800F40020059001
:102EA00016480838016841F480710160016801F436
:102EB00080710591016841F00101016000680225FF
:102EC0000024694600F001000590082628020090C1
:102ED000CDE901540A48CDE90346FDF79BFB0120EB
:102EE0000090CDE9015407486946CDE90346FDF756
:102EF00091FB06B070BD0000004C0040E844025851
:102F000000200258000002582DE9F8430446D0F88A
:102F100080001F4616460D46202852D1DDB1D6B19D
:102F200094F87C0001284CD0012084F87C002122F8
:102F30004FF00008C4F88880C4F880201834FDF7EA
:102F40008DFC814654F8100CA687E687183CB0F536
:102F5000805F03D004E00120BDE8F883206920B140
:102F60002E46002584F87C8010E00026FAE78021B8
:102F7000204601F027F8B8B9C6B116F8010B216850
:102F80008862B4F85600401EA4F85600B4F8560003
:102F90004B464FF0000200970028E8D14FF0400167
:102FA000204601F00FF838B10320D5E735F8020BC1
:102FB0002168C0F30800E3E72020C4F88000002067
:102FC000CAE70220C8E7FEE710B5FDF7F7F90F4C96
:102FD000002208212046FDF735FC0A20FDF7AAFA59
:102FE000012220460821FDF72DFC3220FDF7A2FA30
:102FF000002220460821FDF725FCC820FDF79AFA9B
:10300000BDE8104002A001F037BB000000000258EC
:103010004C4344B3F5CABCBBAFD7BCB1B8CDEAB1E1
:10302000CF000000F0B587B01C216846FDF788F995
:1030300015480022134F082301260221C0E900721F
:103040004027C0E90263102400F11C0EC0E90447C8
:103050008E02CF024FF4807CC0F818C08EE8C40006
:10306000062582628DE82A00CDE904410395069188
:103070006946FFF7FFF8002801D0FDF7B1F907B066
:10308000F0BD000040410052240000242DE9F0472B
:1030900086B014216846FDF753F94448016841F0B1
:1030A00002010160016801F002010591016841F02F
:1030B00040010160016801F040010591016841F49F
:1030C00080710160016801F480710591016841F02F
:1030D00010010160016801F010010591016841F0E3
:1030E00001010160016801F001010591016841F0F1
:1030F00004010160016801F004010591016841F0DB
:1031000008010160016801F008010591016841F0C2
:1031100020010160016801F020010591016841F082
:1031200080010160006840F20116DFF8848000220F
:1031300000F08000314605904046FDF783FBDFF844
:10314000749048F2C007002239464846FDF77AFBE2
:10315000DFF864A0002218215046FDF773FB00241D
:103160000096012569464046CDE901540394FDF7D8
:1031700051FA00976946CDE9015448460394FDF79A
:1031800049FA10206946CDE900040C480294FDF785
:1031900041FA18200090CDE9015469465046039445
:1031A000FDF738FA06B0BDE8F0870000E0440258A9
:1031B000002002580008025800000258001C025863
:1031C0002DE9F0410C48002101230A4A04249E0203
:1031D000C0E90561C16110251727016280E8BC00C4
:1031E000FDF79CFC002803D0BDE8F041FDF7F8B8DE
:1031F000BDE8F081005000525800002470B5154819
:1032000007224FF48005124E00212C01C0E9021262
:1032100001613304C0E90514C0E9073141622201AC
:103220008162C162C0E90D21C163016441648164AE
:10323000C164016541658165C0E90065FFF77AF801
:10324000002803D0BDE87040FDF7CAB870BD00008B
:1032500000300140A400002470B5144817244FF03A
:103260008042114E00211311C0E9021401611512B0
:10327000C0E90513C0E9072141628162C162C0E96A
:103280000D21C163016441648164C16401654165CC
:103290008165C0E90065FFF74DF8002803D0BDE85F
:1032A0007040FDF79DB870BD003800402C0100242F
:1032B0001848002110B5164C0C224FF4E13304607D
:1032C000C0E90131C160C0E904128161C1610162DC
:1032D00041628162FFF79BFD08B1FDF781F80D485F
:1032E0000021FFF76EFD08B1FDF77AF809480021CB
:1032F000FFF741FD08B1FDF773F80648FFF71BFD26
:10330000002803D0BDE81040FDF76AB810BD0000EA
:10331000004C0040B4010024FEE7FEE770472DE9B1
:10332000F0434B6A4FF040652BB1AA4203D00468CA
:103330008B6A5B1E23618B69002B68D00C6AB4B367
:1033400003688C68DC61CC69FCB1D1E90B38D1F839
:1033500024C04E6B8F8A43EA080346EA0C063343C7
:103360000E6A43EA8743D1E9037C43EA0C03334303
:103370008E693B430F682343046833433B4365E056
:10338000006849688161BDE8F083D1E90B364F6A76
:103390004C6B8D8A33433C430E6923430C6A43EAEA
:1033A00085438D693343096823432B4362E0FFE77C
:1033B000CC69B4F1000918D0D1E90B484F6A4E6BC3
:1033C000B1F814C044EA08043E430F683443CE68A1
:1033D00044EA8C44344344EA09041C4303683C43F4
:1033E0001443AA425C61CBD1CDE7D1E90B464F6AC9
:1033F0004D6BB1F814C034433D4300682C43096859
:1034000044EA8C441C430C4314434461BBE70B6AFD
:10341000ABB303688C68DC61CC69E4B1D1E90B38EB
:10342000D1F824C04E6B8F8A43EA080346EA0C06A3
:1034300033430E6A43EA8743D1E9037C43EA0C0332
:1034400033438E693B432343046833431343AA4207
:10345000636195D197E7D1E90B364F6A4C6B8D8A42
:1034600033433C430E6923430C6A43EA854389692D
:103470003343234300680B431343436183E7FFE770
:10348000CC6984B1D1E90B384F6A4E6BB1F814C0E6
:1034900043EA08033E433343CE6843EA8C43334355
:1034A00023430468D2E74C6A002C9DD0D1E90B3647
:1034B0008F8A4D6B0168334325432B4343EA874092
:1034C000104348615FE72DE9F041984616460F46E4
:1034D0000446069D08E0681C06D0FDF7BFF9A0EB86
:1034E0000800A8420AD84DB120688068384000D052
:1034F0000120B042EFD10020BDE8F081042084F823
:103500004100606C40F0010060640120F4E70000BD
:103510002DE9F047454D044689464FF0000A2868DA
:10352000C04380070AD0414E283E306820F08060BA
:103530003060FDF793F90746B04608E00120BDE88A
:10354000F08700BFFDF78AF9C01B022867D8D8F8BA
:1035500000000001F6D4206829684FF4FE0721F42A
:103560007C313E0241EA00302860207AA389B4F819
:1035700004C040022D4D2D495B1E227CACF1010C94
:103580001035091DA0F5007080B2521ECCF3080C56
:1035900007EA034340EA0C00184306EA02621043BC
:1035A00028600868626920F0C000104308600A685B
:1035B000A06922F0200202430A60281D0A6822F056
:1035C00010020A6002684FF6F873E4699A4342EA0F
:1035D000C40202600868B9F1000F40F010020A60EE
:1035E00011D00868B9F1010F11D040F40010086043
:1035F000D8F80000444640F08060C8F80000FDF7AD
:103600002DF905460DE0086840F40020EFE740F48E
:103610008010ECE7FDF722F9401B022801D90320B6
:103620008DE720680001F5D5504688E72844025808
:103630002DE9F047454D044689464FF0000A2868B9
:10364000C04380070AD0414E283E306820F08050A9
:103650003060FDF703F90746B04608E00120BDE8F9
:10366000F08700BFFDF7FAF8C01B022867D8D8F82A
:1036700000008000F6D4208829684FF4FE0721F06E
:103680007C713E0241EA00502860207AA389B4F898
:1036900004C040022D4D2D495B1E227CACF1010C73
:1036A0001835091DA0F5007080B2521ECCF3080C2D
:1036B00007EA034340EA0C00184306EA026210439B
:1036C00028600868626920F44060104308600A6856
:1036D000A06922F4007202430A60281D0A6822F4DD
:1036E00080720A6002684FF6F873E4699A4342EA0E
:1036F000C40202600868B9F1000F40F480720A60E9
:1037000011D00868B9F1010F11D040F08070086045
:10371000D8F80000444640F08050C8F80000FDF79B
:103720009DF805460DE0086840F48000EFE740F49E
:103730000000ECE7FDF792F8401B022801D90320B6
:103740008DE720688000F5D5504688E72844025868
:103750002DE9F8431D4C102700254FF6FF7901266F
:1037600000951B484A46C4E90067C4E90265214642
:10377000FEF7C2FD0120FCF7DDFE02204A46C4E947
:10378000000713482146C4E90265FEF7B5FD032191
:103790004FF00408E5604A4684E882010C4821465F
:1037A000FEF7AAFD40F2222000904A462146C4E9D5
:1037B00002600748C4E90087FEF79EFDBDE8F843B4
:1037C000034840F2A521FEF77FBD00005C02002403
:1037D0002400002410B5026840F26F3351699469E7
:1037E00044F0080494610268946944F01004946100
:1037F0000268146824F001041460026814699C4390
:1038000014610268936823F44043936090F8812028
:10381000042A0CD08A060AD5D0F8842042F080020F
:10382000C0F884200268936943F02003936190F804
:103830008120032A0CD04A060AD5D0F8842042F011
:103840000402C0F884200268936943F04003936146
:103850008A050AD5D0F8842042F00102C0F88420FD
:103860000268936943F400739361C9050AD5D0F8DF
:10387000841041F00801C0F8841001688A6942F49C
:1038800080728A610021A0F86210A0F86A1010BD51
:103890002DE9F041984616460D460746069C09E07C
:1038A000FCF7DCFFA0EB0800A04202D3601C01D0B3
:1038B0000BE054B13868406935EA000007D00020B9
:1038C000B042EDD00020BDE8F0810320FBE70120ED
:1038D000F6E77047FCF7C8BF70B5CCB04C212FA8F5
:1038E000FCF72EFD202142A8FCF72AFDBC216846EA
:1038F000FCF726FD0220FDF74DF827480024274954
:10390000026842F44042026002680A6842F0010222
:103910000A60096801F001014A9101688904FCD537
:1039200038AB02202F904025339508260121329193
:1039300083E851007822CDE93B203EAA3D900C213E
:1039400082E813002FA84194FEF710FA08B172B66E
:10395000FEE74FF48062CDE945653F20CDE947524F
:1039600042AA4995032182E81300042142A8FDF7E9
:10397000EDFF08B172B6FEE709481294119417944E
:103980001D9400906846FDF783FB002801D072B6B5
:10399000FEE74CB070BD0000184802582C040058D7
:1039A000021000032E48F0B52E4A016841F4700160
:1039B0000160106800F00F00072804D2106820F0A2
:1039C0000F00C01D106028490020274C10340B68E0
:1039D000264D43F001030B6020600B682B400B6009
:1039E000136803F00F03072B04D9136823F00F03A8
:1039F000DB1D13601C4C1E4A18341E4B261D371D40
:103A00002060194C1C4D28343060261D3860371D4D
:103A100023603B1D35601C1D3A60251D2E1D18605E
:103A2000331D22602860326018600A680E4B134C08
:103A300022F4802260330A60186020686FF30F0060
:103A4000B0F1005F03D20E490120C1F8080143F232
:103A5000D2000C49024B4A03803B08601A60F0BD5B
:103A600088ED00E000200052004402587FEDF6EAA5
:103A700080020101000202020000FF010010005C50
:103A800000800051004000523FB514A1D1E900234D
:103A900014A1CDE90023D1E90021CDE90221416E35
:103AA000B9B1016802AC8A688968C2F34262490F01
:103AB0001DF80150615C2D01B5FBF1F1A0F86A1011
:103AC0001DF80210A25C0901B1FBF2F1A0F8681028
:103AD0003FBD0121A0F86A10F8E7000001010103D1
:103AE00007010000080402040801010190F82810F1
:103AF000C90706D00168C36A4A6822F400321A4333
:103B00004A6090F82810890706D50168036B4A6857
:103B100022F480321A434A6090F82810490706D5EB
:103B20000168436B4A6822F480221A434A6090F885
:103B30002810090706D50168836B4A6822F4004201
:103B40001A434A6090F82810C90606D50168C36B6D
:103B50008A6822F480521A438A6090F828108906F5
:103B600006D50168036C8A6822F400521A438A6001
:103B700090F82810490611D50168436C4A6822F470
:103B800080121A434A60416CB1F5801F06D101686A
:103B9000836C4A6822F4C0021A434A6090F82810E5
:103BA000090606D50168C26C486820F4002010435D
:103BB00048607047F8B500260446C0F88860FCF7F6
:103BC0004DFE054620686FF07E470068000708D567
:103BD00000222B464FF400112046009700F0F2F926
:103BE00060B92068006840070AD500222B464FF4D0
:103BF00080012046009700F0E5F908B10320F8BDE8
:103C00002020C4F8800084F87C60C4F88400002080
:103C1000F8BD00002DE9F04304468068D94F87B015
:103C20002268D4E90465E369616E304316681D4378
:103C30002843D54B002501433E400E4316602068C3
:103C4000E268416821F44051114341602268A16952
:103C50009A4201D0206A01439668DFF830C3CC4F06
:103C6000CC4806EA0C060E4396602168666ACA6A6A
:103C700022F00F023243CA622268BA420ED10068B3
:103C800000F03800182873D047DCB8B3082879D082
:103C900010286FD178E028287ED17BE0BE498A4287
:103CA00009D1006800F00700062875D2DFE800F0AF
:103CB000546A6C6E7072B9498A4209D1006800F08A
:103CC0000700062868D2DFE800F0475D5F616365A2
:103CD000B3498A4209D1006800F0070006285BD288
:103CE000DFE800F03A5052545658AE498A420BD1A0
:103CF000006800F0070006284ED200E010E0DFE880
:103D000000F02B4143454749A7498A420AD1006840
:103D100000F03800182839D0B7DD2028BBD13CE0AE
:103D200001203AE0A1498A4209D1006800F0070069
:103D3000062831D2DFE800F01026282A2C2E9C49D4
:103D40008A420BD1006800F00700062824D2DFE881
:103D500000F003191B1D1F2100201EE09A421BD1F9
:103D60008C48001D006800F00700062814D202E00D
:103D70000CE007E010E0DFE800F0030507090B0D99
:103D800002200AE0042008E0082006E0102004E0F9
:103D9000202002E0402000E080208649DFF81882E1
:103DA0009A42864A4FF400434FEA21174FF000062B
:103DB0004ED110281AD006DC022809D004280BD0D6
:103DC00008287DD10DE020283ED0402878D13DE064
:103DD000FDF708F8014610E06846FDF715F801996F
:103DE0000BE003A8FDF7B2F8049906E0106880061E
:103DF00004D51068C0F3C100C140C1B3606A6768F0
:103E000038F8102007EB4703B1FBF2F0834257D894
:103E1000B0EB073F54D8002308461946FCF758FA80
:103E20000902020241EA106170084FEA37001018D7
:103E30003A4671410023FCF74BFA614AA0F5407104
:103E400091423DD821684CE03946D7E71946D5E77D
:103E5000D4F81CC04FF6EF799C4552D108281AD0EF
:103E600006DC60B101280DD0042829D10EE039E02C
:103E7000102815D0202840D040287CD13FE0FDF705
:103E8000B5FE01E0FDF7C4FE014610E06846FCF710
:103E9000BBFF01990BE003A8FDF758F8049906E071
:103EA0001068800604D51068C0F3C100C140C9B1D4
:103EB000636A606838F81330B1FBF3F1490000E041
:103EC00059E001EB5001B1FBF0F080B2A0F110011C
:103ED000494550D84FF6F0732168C0F342021840AC
:103EE0001043C8600120A4F86A00A4F868002846BE
:103EF000E666266707B0BDE8F0833946D8E719467D
:103F0000D6E7082819D005DC58B101280CD00428C0
:103F100031D10DE0102815D020282ED040282AD1EC
:103F20002DE0FDF763FE01E0FDF772FE014610E0B3
:103F30006846FCF769FF01990BE003A8FDF706F856
:103F4000049906E01068800605D51068C0F3C1002A
:103F5000C1400029C6D0636A606838F81330B1FBED
:103F6000F3F101EB5001B1FBF0F080B2A0F11001D0
:103F700049457FF667AF0125B4E73946EBE71946B7
:103F8000E9E70000F369FFCF000C0058FFF4FF11D0
:103F900000100140544402580044004000480040D2
:103FA000004C0040005000400014014000780040E8
:103FB000007C00400090D003AC510008004402583F
:103FC000FFFC0F002DE9F0479A4617460E460446BF
:103FD000089D4FF000094FF0200839E0681C37D0E9
:103FE000FCF73CFCA0EB0A00A84222D80DB32068E5
:103FF000016849072CD5C069C043000528D423684F
:104000004FF40061196221680B6823F4D0730B60D0
:1040100021688B6823F001038B60C4F88080C4F8AA
:104020008480C4F8888000BF032084F87C90BDE8B9
:10403000F08721680B6823F4D0730B6021688B68CC
:1040400023F001038B60C4F88080C4F88480EBE720
:104050002068C06936EA000004D00020B842BDD014
:104060000020E4E70120F9E7FEE700007CB511A09D
:10407000114C00221021006800902046FCF7E2FB62
:104080004FF47A750D4801222B466946FEF795FBE1
:104090000A48012201A92B46FEF768FA01222046B0
:1040A0001021FCF7CFFB9DF80400C00700D00220D0
:1040B0007CBD00000500000000000258A4000024A0
:1040C00038B54FF48072044611010801E060C4E97C
:1040D0000512684600F0F2F9BDF80000A0F56F4047
:1040E0001338052801D3012038BD00EE100AF8EE80
:1040F000C00AB0EE000A00F0F3FABCEEC00A636931
:10410000BDF8001010EE100AE26800056060B0FB18
:10411000F3F3B0FBF2F023612160A060002038BD12
:104120000DA038B50D4C00220068102100902046EB
:10413000FCF788FB0A4802224FF47A736946FEF7BF
:104140003CFB012220461021FCF77CFBBDE83840F7
:104150000448FFF7B5BF0000669900000000025850
:10416000A40000244002002430B595B001220021B3
:104170000524079413061502CDE90D51CDE90F135F
:104180000C9110231291940513911491CDE9011211
:10419000CDE90332CDE9051401AA0346044807A975
:1041A000FCF722FC002800D0012015B030BD000033
:1041B0005800002470B54FF4807690B0B400002011
:1041C000E1000391CDE90664CA0241F288349025EA
:1041D0000C90CDE9005002230590CDE90802CDE90D
:1041E0000A300D9022460C486946FCF753FC18B182
:1041F0000AA000F041FAFEE707480EA92246FCF7A4
:1042000035FD18B10FA000F037FAFEE7BDF8380011
:1042100010B040BA70BD00005800002451535049FE
:104220005F464C4153485F526561644465766963FB
:10423000654944204552524F522121212E2E2E2EC7
:104240000D0A0000515350495F464C4153485F529C
:104250006561644465766963654944204552524FFF
:1042600052212121202E2E2E2E0D0A0010B590B0A5
:1042700002208DF8380000F07FF810B1042010B053
:1042800010BD00F0B7F810BB002007904FF4807409
:1042900006943121009122040590012341F28834D3
:1042A000CDE90A30CDE908020C9022460D9069460E
:1042B0001C48FCF7EFFB50B91A480EA92246FCF740
:1042C00035FD20B94FF44870FFF74EFF08B10120CB
:1042D000D5E7FFF76FFF044613A000F0CDF9A4F572
:1042E0006F40133810D0A4F56F4014380ED0A4F5E9
:1042F0006F4015380CD0A4F56F4016380AD0A4F5DD
:104300006F40173808D00AE00CA006E00EA004E0C9
:1043100010A002E012A000E014A000F0ADF900200F
:10432000ADE7000058000024CAB6B1F0B5BD515346
:1043300050492D466C6173683A0000005732355180
:1043400038300D0A000000005732355131360D0A61
:10435000000000005732355133320D0A00000000D2
:104360005732355136340D0A0000000057323551AE
:104370003132380D0A00000070B58EB041F2883439
:10438000002022464FF4807166250095CDE9061085
:1043900008906946099005900B900C900D90144878
:1043A000FCF778FB00BB1248992622466946009626
:1043B000FCF770FBC0B94FF4407006900C482246E1
:1043C00069460095FCF766FB70B9094822466946C4
:1043D0000096FCF75FFB38B90120FCF7ABF82046EC
:1043E000FFF7C2FE002800D001200EB070BD000013
:1043F00058000024F0B595B041F2883500242A46D3
:104400004FF4807006210691CDE90C040E9406A9A4
:1044100011480F940B94119412941394FCF73AFBE7
:10442000B0B902200090012143051022052606960E
:10443000CDE90221CDE90443C7050190CDE90F7113
:10444000054806A92B466A46FCF7CEFA002800D09C
:10445000012015B0F0BD000058000024F8B5054655
:1044600014460320134F8DF800000A0C8DF801202C
:104470000B0A8DF80230002238468DF80310102107
:10448000FCF7E0F94FF47A760B480422334669468C
:10449000FEF793F9A2B2084833462946FEF766F8BC
:1044A00008B10120F8BD012238461021FCF7CAF9F5
:1044B0000020F8BD00000258A40000247CB51BA118
:1044C000044611208DF80000194D00228DF80100DE
:1044D0000868102101902846FCF7B4F94FF47A7669
:1044E00014480422334601A9FEF767F91148022255
:1044F00033466946FEF73AF80FA000F0BDF89DF884
:10450000001011A000F0B8F89DF801100FA000F005
:10451000B3F89DF8001001229DF8010000EB012086
:10452000208010212846FCF78DF97CBD900000000A
:1045300000000258A4000024466C617368D0CDBA14
:10454000C5B2CECAFDA3BA002558000025580D0AF1
:10455000000000002DE9F84F17460D468346FCF792
:104560007DF90646002001E000F58070A842FBD9E5
:10457000441BBC4200D93C46DFF8908005EB070A9B
:104580004FF002094FF47A778DF80090290C8DF8DE
:1045900001102A0A8DF802208DF8035000F03AF835
:1045A000002240461021FCF74DF9194804223B46F1
:1045B0006946FEF702F930B9A2B215483B465946A2
:1045C000FEF7FBF810B10120BDE8F88F012240464C
:1045D0001021FCF737F906E0FCF740F9801BB842E0
:1045E00001D90320F0E7FFF741FD0228F4D025446C
:1045F00005F580705045A34402D9AAEB050401E0FB
:104600004FF480745545BFD30020DDE70000025809
:10461000A4000024F8B515A000680090FCF71EF96E
:10462000134E0022102105463046FCF70BF94FF4DB
:104630007A741048012223466946FEF7BEF801222B
:1046400030461021FCF7FEF80AE000BFFCF706F93F
:10465000401BA04201D90320F8BD0120FBF76AFFEF
:10466000FFF704FD0228F1D00020F8BD060000008D
:1046700000000258A40000240FB4054B10B503A994
:10468000044A029800F096FB10BC5DF814FB000091
:10469000755000081C0000244100080218BF0420C7
:1046A0000A0E18BF40F001004FF07F4232EA0101CC
:1046B00008BF40F00200012808BF05207047090725
:1046C00000284FEA116104DB00F1E02080F80014BB
:1046D000704700F00F0000F1E02080F8141D7047D3
:1046E00010B52DED088B9FEDFE1A10EE100A10EE9E
:1046F000901AB0EE418A0022A0F5000C4FF0007332
:10470000DFEDF89ABCF1FE4F4FF07F4403EB410C14
:1047100080F0A481BCF1804FC0F01882F2490144BE
:104720009FEDF23A9FEDF2AAB1F5005F40F2CA8226
:1047300000F58021CB0C03F00F0100EE101AC3F33B
:1047400007137F3BA0EBC350B8EEC02A01EE900ADE
:104750001A44DFEDE82AB0EE410A02EE220AF0EE3A
:10476000403A31EEA30A31EEE32A10EE100A00F5CA
:1047700000606FF30B0002EE900A73EEE23A73EE04
:10478000A13AC1EE001A22EE210A10EE100A00F53D
:1047900000606FF30B0000EE100A00EE622A00EEDC
:1047A000632A62EE212A70EE221A21EEA12ADFEDA1
:1047B000D23A02EE233A23EE023A20EE012A22EE0A
:1047C000811A03EE211A32EE010A10EE100A00F5EA
:1047D00000606FF30B0000EE100A72EE401A31EE2B
:1047E000812A9FEDC61A60EE011A9FEDC51A20EED0
:1047F000011A9FEDC40A02EE001A31EE810A10EE92
:10480000100A00F500606FF30B0000EE100ABE48BE
:1048100071EEC01A31EE812A784400EBC10090EDB0
:10482000003AD0ED011A100101EE100AF8EEC12A8B
:1048300032EE211A31EE001A31EE031A31EE221A4D
:1048400011EE100A00F500606FF30B0008EE900AFD
:1048500038EEE21A31EE431A31EE400A30EE610AC8
:1048600072EE40AA10EE900A002100F500606FF38E
:104870000B0009EE100A084630EEC9BAFBF78AFDB4
:1048800028EE890A00F00C01F0EEC00A10EE900A42
:10489000B0F18B4F0FDD10EE900AB4EB400F0AD34E
:1048A00010EE100A4FF08B42B0EE699A62F31E00D0
:1048B00008EE900A13E068EE8B0A39EE0B1A4AEE06
:1048C000810A30EE201A11EE100A00F500606FF335
:1048D0000B0008EE900A30EE680A30EE209A0C20A9
:1048E000FBF758FD38EE890AB4EEE90AF1EE10FA4A
:1048F00038BF9FED86AA3AEE000ABDEEC00A10EE60
:10490000100A011100EE101AF8EEC00A00EE100AAB
:10491000B8EEC00A38EEC00A30EE090ADFED7C1AA4
:104920009FED7C1A00EE211ADFED7B1A7B4900F027
:104930000F0040EE011A21EE800A794401EB80015C
:1049400091ED001A7649794401EB8001D1ED001A0E
:10495000744901EE801A794401EB8000724990EDB0
:10496000000A31EE001AB0EEE00A10EE100A88429A
:1049700015DA10EE100AB4EB400F10D39FED6B0A5E
:1049800030EE800ADFED6A0A20EE200A68EE010AA6
:10499000BDEC088BBCEEC00A20EE200A10BD10EE64
:1049A000100A6449884233DA10EE100AB4EB400F63
:1049B0002ED3BDEEE00A68EE010A10EE100A00EBFD
:1049C000D0725110C90501F17E5100EE101AA0EB12
:1049D0006200C00560EE200A00F17E5000EE100A71
:1049E00060EE808A18EE900AB4EB400F25D018EEE6
:1049F000900A400011D018EE900AFFF74DFE0428EF
:104A000008BF00F0B9F9B0EE680ABDEC088B10BD24
:104A1000F4EEE90AF1EE10FA0FD2022000F0C4F928
:104A200000F0AAF918EE100A10EE101ABDEC088B6F
:104A300061F31E0000EE100A10BD022000F0B4F970
:104A400000F092F918EE100A10EE101ABDEC088B67
:104A500061F31E0000EE100A10BD00BFBCF1804FD4
:104A600074D300BF00F1FF43B3F1FE4F24D200BF67
:104A7000B0EEC00A10EE100AC1F3C7537F2B0DDB56
:104A8000972BBFF64BAEC3F196034FF0010C0CFA17
:104A900003F3A3F1010C1CEA010F08D0012000F080
:104AA00083F9BDEC088BBDE8104000F055B90B420E
:104AB00018BF9FED218A31E643001CBF4FF0807381
:104AC000B3EB400F3CD96FF01A02DFED1C1A20EE59
:104AD000210A10EE100A10F0004FC9D11EE635E091
:104AE0000000803F00000000001080C0ABAAAA3E7A
:104AF0000000003F0000803D7EE24C3E00B03842A6
:104B0000D49AB8BB3BAA3842B8090000000000BFE5
:104B1000FC596337C9FF753A1872313D56090000D8
:104B20008A090000FA0800000000FC420000FE4272
:104B30000000004B00004043000080BF0000004D1B
:104B4000A0F50003B3F1FE4F21D2E7E503EB4103EB
:104B5000B3F1007F11D3F4EE690AF1EE10FA05D13A
:104B6000430018BFB4EB400F76D87BE701F000415B
:104B700041F0FC5100EE901A74E7B3F1807F06D249
:104B800010EE903AA3F5000300EE903A6AE720F0A9
:104B900000426FF0FF4C604C02EB0C03A34210D3B9
:104BA00021F000439C44A4450BD3B0F17E5F18BFB5
:104BB0005FEA410C50D0B2F1FF4F98BFB3F1FF4F05
:104BC00005D9BDEC088BBDE8104000F0C1B8B0F1CC
:104BD000FF4F0FD0C1F3C7527F2A09DB972A11DAA2
:104BE000C2F19602012303FA02F2531E0B4205D0D2
:104BF000002208E011F0004F55D128E00A4218BF0A
:104C0000012200D1022210F5000F13D028B3B0F119
:104C1000004F26D010F1814F4FD04FF0FE42B2EB43
:104C2000400F94BF01200020012202EBE171884275
:104C300039D10CE011F0004F02D0012A38D032E017
:104C4000012A02BF9FED350ABDEC088B10BD9FED18
:104C5000340ABDEC088B10BD2FE011F0004F0CD1D1
:104C600021E0B1F1FF4F1ED011F5000F05D011F07A
:104C7000004F15D00AB1012A08D0022000F094F8A4
:104C8000BDEC088BBDE8104000F056B8022000F0E3
:104C90008BF800F051F8BDEC088BB1EE400A10BD66
:104CA0000AB1012A04D0B0EE690ABDEC088B10BD30
:104CB000BDEC088B9FED1B0A10BDBDEC088BB0EE60
:104CC000410A10BD30EE410A9FED171A9FED182AD8
:104CD00000EE413AB0EE4A1A60EE001A00EE431AB6
:104CE00061EEC11A9FED111A20EE011A20EE020AA0
:104CF0009FED102A01EE820A71EE001A11EE900A61
:104D000000F500606FF30B0008EE900A31EE681AB0
:104D100071EE00AAA6E50000FFFF3F00000080FF43
:104D20000000807F000000800000803E00B0B8419D
:104D3000D49A38BB3BAAB841DFED030A9FED031AB2
:104D400080EE810A704700000000803F00000000F4
:104D500030EE200A70470000DFED020A80EEA00A64
:104D600070470000000000009FED020A20EE000ADC
:104D700070470000000000709FED020A20EE000A5C
:104D8000704700000000001002E008C8121F08C1B0
:104D9000002AFAD170477047002001E001C1121FBC
:104DA000002AFBD1704700000149086070470000ED
:104DB000200000242DE9FF4F8DB09B460F4604468E
:104DC000002606E025280BD05A460F999047641C10
:104DD000761C20780028F5D111B03046BDE8F08F60
:104DE0000025A8460122984900E0054314F8013F38
:104DF000203B02FA03F00842F7D120782E2817D181
:104E000014F8010F45F004052A280ED06FF02F0288
:104E10002078A0F1300109290AD808EB880102EBBB
:104E2000410100EB0108641CF2E757F8048B641C95
:104E300020786C280DD004DC4C2812D06A2811D1BF
:104E400004E074280DD07A280CD10AE045F400154E
:104E500007E0617845F48015814202D1641C05F5B4
:104E60008015641C2278692A45D008DC002AB3D05A
:104E7000582A69D0632A10D0642A08D13BE0702AEE
:104E800067D0732A13D0752A5CD0782A5CD010467C
:104E90005A460F999047761CD3E017F8040B8DF80B
:104EA000000000208DF80100E946012003E057F8DA
:104EB000049B4FF0FF3069074FF0000501D40AE072
:104EC0006D1C45450DDA8542FADB19F805100029FD
:104ED000F6D106E06D1C8542FCDB19F805100029AF
:104EE000F8D12E4404E019F8010B5A460F99904767
:104EF0006D1EF8D2A5E00A200021CDE90801C5F316
:104F0000025002280DD001CFC117031E71F100031A
:104F10000DDA4FF0000CD0EB0C006CEB01012D23EF
:104F200008E0FF1D27F00707F7E80201EDE72B0572
:104F300004D52B238DF8283001233BE0EB0739D033
:104F40002023F7E70A2000E010200021CDE9080126
:104F500007E01020002145F00405CDE908014FF0DD
:104F60000808C5F3025002280FD001CF00214FF0EE
:104F7000000A2B071FD5702A0DD0DDE908C38CF07D
:104F8000100C5CEA030C0CD015E0FF1D27F007079E
:104F9000F7E80201EBE740228DF828204FF0010AE4
:104FA0000BE050EA010306D030238DF828308DF84D
:104FB000292002239A46582A04D024A20DF1200960
:104FC0000B9209E026A2F9E7DDE90823FBF780F957
:104FD0000B9B9B5C09F8013D50EA0102F4D1ADEB5B
:104FE000090020300890680701D44FF001080899A3
:104FF000884502DDA8EB010000E000208046002586
:1050000006E00AA85A46405D0F9990476D1C761C31
:105010005545F6DB04E030205A460F999047761C40
:10502000B8F10001A8F10108F5DC05E019F8010B61
:105030005A460F999047761C0899481E08900029F7
:10504000F4DC641CC5E6000009280100303132336D
:1050500034353637383961626364656600000000B4
:10506000303132333435363738394142434445469E
:105070000000000013B5044801224FF47A7369461A
:10508000FDF742FF00981CBDB40100241FB5FBF7DB
:10509000F3FBFEF721FCFDF7F9FFFDF7C3FFFEF779
:1050A0008FF8FEF705F9FEF7A9F8FEF7D5F8FEF739
:1050B0004FFB23A0FFF7E0FAFFF732F827A0FFF736
:1050C000DBFA2CA0FFF7D8FA2FA10622D1E90001C4
:1050D000CDE9000100216846FFF73CFA2CA0FFF75C
:1050E000CBFA0622002102A8FFF7B8F902A92BA0EB
:1050F000FFF7C2FAFFF7BAF8FDF766FF4FF4004476
:10510000284D294F4FF4FA78E6112146012228460E
:10511000FBF798FB012231463846FBF793FB4046EC
:10512000FBF708FA002221462846FBF78BFB0022FA
:1051300031463846FBF786FB4046FBF7FBF9E4E7D0
:10514000534452414D20573938323547364B48B3D6
:10515000F5CABCBBAFB3C9B9A60D0A005350492D5F
:10516000466C617368B3F5CABCBBAFB3C9B9A60DD1
:105170000A000000B4E6B4A2CAFDBEDDA3BA5732ED
:1051800035513634200D0A0057323551363400007F
:10519000C8A1B3F6CAFDBEDDA3BA000025730D0A8F
:1051A0000000000000080258002002580100020020
:1051B0000400060008000A000C0010002000400057
:1051C000800000010000000001020304010203044A
:1051D0000607080900000000000000000000B33FBF
:1051E000B2BE7D3A00002E40DFCF513800007E4035
:1051F000BF51FABA00E0A44019DAC3BA00E0C840CF
:10520000C2ED8AB90040EB40CD1F2CBA0010064118
:105210002AFFFABA00C01541DFCFD13700D02441B0
:105220009A97703A0050334189478E360040414189
:10523000E75B9D3800B04E41C00A98B900A05B41C1
:10524000558F943A00306841DA92C0BA00407441F8
:1052500062B3C63A0000803F00A0853F00908B3FBC
:1052600000C0913F0030983F00F09E3F00F0A53F06
:105270000050AD3F0000B53F0000BD3F0060C53F9E
:105280000020CE3F0040D73F00C0E03F00C0EA3FD3
:105290000020F53F000000007D36AC397D3C3839F8
:1052A000EBDCF438320A7E39124C26399B6AED3930
:1052B000A4EE83397F661E39F6398A392B42653967
:1052C000A48211395B991F39C3EECD39DDE7C637AA
:1052D000A5A22F390000803FC3AA853FC2958B3F0E
:1052E000D3C3913FF037983F32F59E3FD7FEA53F9D
:1052F0003F58AD3FF304B53FA408BD3F2A67C53F03
:105300008C24CE3FFD44D73FDFCCE03FC7C0EA3F0F
:105310007D25F53F345300080000002424000000E0
:10532000884D000858530008240000244C06000053
:10533000984D00080000000000000000010000007F
:1053400010000000000000000090D0030090D00387
:08535000000000000000000055
:040000050800029954
:00000001FF
