:020000040800F2
:1000000040050024AD020008432500082323000812
:1000100041250008B9030008E92F0008000000008E
:10002000000000000000000000000000552800084B
:10003000BB03000800000000452500085728000801
:10004000C7020008C7020008C7020008C70200086C
:10005000C7020008C7020008C7020008C70200085C
:10006000C7020008C7020008C7020008C70200084C
:10007000C7020008C7020008C7020008C70200083C
:10008000C7020008C7020008C7020008C70200082C
:10009000C7020008C7020008C7020008C70200081C
:1000A000C7020008C7020008C7020008C70200080C
:1000B000C7020008C7020008C7020008C7020008FC
:1000C000C7020008C7020008C7020008C7020008EC
:1000D000C7020008C7020008C7020008C7020008DC
:1000E000C7020008C702000800000000C70200089D
:1000F000C7020008C7020008C7020008C7020008BC
:10010000C7020008C7020008C7020008C7020008AB
:10011000C7020008C7020008C7020008C70200089B
:10012000C7020008C7020008C7020008C70200088B
:10013000C7020008C7020008C7020008C70200087B
:1001400000000000000000000000000000000000AF
:10015000C7020008C7020008C7020008C70200085B
:10016000C7020008C7020008C7020008C70200084B
:10017000C7020008C7020008C7020008C70200083B
:10018000C7020008C7020008C7020008C70200082B
:10019000C7020008C7020008C7020008C70200081B
:1001A000C7020008C7020008C7020008C70200080B
:1001B000C7020008C7020008C7020008C7020008FB
:1001C000C7020008C7020008C7020008C7020008EB
:1001D000C7020008C7020008C7020008C7020008DB
:1001E000C7020008C7020008C7020008C7020008CB
:1001F000C7020008C7020008C7020008C7020008BB
:10020000C7020008C7020008C7020008C7020008AA
:10021000C7020008C7020008C7020008C70200089A
:10022000C7020008C7020008C7020008000000005B
:10023000C7020008C702000800000000C70200084B
:10024000C7020008C7020008C7020008C70200086A
:10025000C7020008C7020008C7020008C70200085A
:10026000C7020008C7020008C7020008C70200084A
:10027000C7020008C7020008C7020008000000000B
:10028000C7020008C7020008C702000800000000FB
:1002900000000000C7020008DFF80CD000F07AF878
:1002A00000480047213100084005002406488047E7
:1002B00006480047FEE7FEE7FEE7FEE7FEE7FEE74B
:1002C000FEE7FEE7FEE7FEE72529000899020008A1
:1002D0002DE9F05F0546002092469B46884606467B
:1002E000814640241BE0284641464746224600F00E
:1002F00041F853465A46C01A914110D31146184648
:10030000224600F028F82D1A67EB01084F462246D6
:100310000120002100F01FF817EB00094E41201EBC
:10032000A4F10104DFDC484631462A464346BDE8D5
:10033000F09FD2B201E000F8012B491EFBD27047BA
:100340000022F6E710B513460A4604461946FFF7A1
:10035000F0FF204610BD202A04DB203A00FA02F10B
:10036000002070479140C2F1200320FA03F31943A3
:1003700090407047202A04DB203A21FA02F0002145
:10038000704721FA02F3D040C2F1200291400843A5
:1003900019467047064C074D06E0E06840F001033F
:1003A00094E8070098471034AC42F6D3FFF778FF83
:1003B0000432000824320008FEE7704772B6FEE7F8
:1003C000F0B5D1E90843CD690A68C2B10268254396
:1003D00022F4F84213431D430560D1E90125D1E918
:1003E00003364C692A434568334389691A43EB0B4A
:1003F0002243DB030A431A4342600020F0BDD1E9E7
:10040000012ED1E9036CD1E9057142EA0E0246EAF8
:100410000C0632433A430A4301682A4322431A43F3
:100420006FF30E010A430260E7E7426943F6FE7389
:100430009A4342EA410141610020704770B5D1E919
:100440000024D1E9023105696FF01F06224306EB53
:10045000431343EA41210A432A430261002070BD4D
:100460002DE9F04F8B8A6FF00F05264C4FF07F4B34
:10047000D1F80C9004EB03536FF0FF044FEA042A09
:100480001AB386684FEA09321F4FA2F580521A4309
:100490003E4032438260D1E900278E68521E05EB50
:1004A00007150F8A2A43C56804EB06240E7E0AEB63
:1004B000074322431A430BEB06610A4305F07043DE
:1004C0001A43C2600020BDE8F08F91E804110F4E7E
:1004D000521E0F8A05EB08152A4304EB0C2C06EB81
:1004E00009350E7E42EA0C022A4385680AEB07446E
:1004F00022431A430BEB06610A4305F070431A438B
:100500008260DFE70000F0FFFF0F0FFF00F0FFFF4A
:1005100070B5044600F090F90546601C02D004480E
:100520000078044400F088F9401BA042FAD370BD63
:1005300008000024F0B587B014216846FFF700FFDB
:1005400023480168002941D1012101602148016847
:1005500041F480510160006802250026694600F4DC
:100560008050059003274FF683700C2404948DE887
:10057000E100194800F03CF848F2371004948DE887
:10058000E1001648694600F033F84CF20370049419
:100590008DE8E1001248694600F02AF84FF63F0066
:1005A00004948DE8E1000F48694600F021F88DE8D9
:1005B000F0000D486946049400F01AF820200494D5
:1005C0008DE8E1000948694600F012F807B0F0BD77
:1005D00000000024D44402580010025800180258A9
:1005E000000C02580014025800080258001C02585F
:1005F0002DE9FC4F01257E4C00234FF0030A4FF0FC
:10060000B04E4FF00F0BEBE005FA03F637403A001F
:1006100077D04F68012F05D0022F03D0112F01D0C2
:10062000122F1AD187684FEA4308D1F80CC00AFA92
:1006300008F927EA09070CFA08FC4CEA070CC0F88D
:1006400008C0476891F804C0B743CCF3001C0CFA0B
:1006500003FC4CEA070CC0F804C0C6684FEA430C20
:10066000D1F80880E1460AFA0CF7BE43019708FA70
:1006700009F848EA0608C0F80C804E68022E01D03E
:10068000122E12D1DE084FEA437C00EB860600965C
:100690000F69366A4FEADC6C0BFA0CF807FA0CF7B4
:1006A00026EA08063743009E37620E790768DDF8B0
:1006B00004C006F0030606FA09F627EA0C073E43D3
:1006C00006604E68F6001CD54A4E376847F00207B0
:1006D000376036689F0706F00206009623F003068F
:1006E00006F1B046B1463F0FD6F80864DFF808813E
:1006F0000BFA07FC404526EA0C0603D14FF0000C2C
:1007000041E06CE0DFF8F4C0604502D14FF0010C2D
:1007100039E0DFF8ECC0604502D14FF0020C32E066
:10072000DFF8E0C0604502D14FF0030C2BE0DFF8AA
:10073000D8C0604502D14FF0040C24E0DFF8CCC0F3
:10074000604502D14FF0050C1DE0DFF8C4C06045E4
:1007500002D14FF0060C16E0DFF8B8C0604502D1B8
:100760004FF0070C0FE0DFF8B0C0604502D14FF04A
:10077000080C08E0DFF8A4C0604502D14FF0090C76
:1007800001E04FF00A0C0CFA07FC4CEA060CC9F821
:1007900008C426684F6826EA0206FF0300D5164300
:1007A000266066684F6826EA0206BF0300D5164336
:1007B0006660D1F804C07646DEF800705FEACC2CA3
:1007C00027EA020700D517433760D1F804C07768DD
:1007D0005FEA8C2C27EA020700D5174377605B1C81
:1007E0000A681746DA407FF40FAFBDE8FC8F0000BF
:1007F00080000058F44402580000025800040258D7
:1008000000080258000C0258001002580014025848
:1008100000180258001C02580020025800240258F8
:100820000AB1816170470904FBE7000001480068D4
:10083000000C70470010005C0148806870470000A1
:1008400008000024024881680278114481607047E2
:1008500008000024032010B500F078F801F086F8B5
:100860000F4A104914681368C4F3032203F00F03FE
:100870008A5CC95C02F01F0201F01F01D0400A4AE5
:1008800020FA01F1116009490860002000F010F819
:1008900008B1012010BD00F02BF8002010BD0000B1
:1008A00018440258F43100081800002414000024F1
:1008B00070B50D4D04462878A0B14FF47A71B1FBA4
:1008C000F0F00A490968B1FBF0F001F0CFFB48B93C
:1008D000102C07D200222146501E00F017F80020ED
:1008E0006C6070BD012070BD08000024140000245D
:1008F000054808B5016841F002010160006800F098
:100900000200009008BD0000F44402580E4BF0B401
:100910001B680D46C3F30223C3F10706042E00D95A
:100920000426191D072901D2002300E0DB1E012443
:1009300004FA06F19C40491E2940641E9940144067
:100940002143F0BC02F05ABB0CED00E0064900F078
:10095000070210B54FF6FF040868044B204040EA38
:1009600002201843086010BD0CED00E00000FA05FD
:10097000134970B50A68D243520705D5096801F0DA
:100980000701814213D118E00A6822F007020243EE
:100990000A60FFF751FF0A4D4FF47A760446083D8E
:1009A00007E000BFFFF748FF001BB04201D901205C
:1009B00070BD2868C0438004F4D4002070BD0000DE
:1009C0000C480258F8B50446FFF736FF05461CB13F
:1009D00094F8410010B107E00120F8BD204600F076
:1009E00047F841F28830A06420686FF0FF02A168E8
:1009F000036802EB012223F4706111430160A06CD3
:100A0000002220212B460090204601F09CFD00286A
:100A1000E3D12268D4E907352679E168176845EA09
:100A20000665DFF844C01943104B29430025012611
:100A300007EA0C07394311602268D4E90517B4F8B6
:100A400010C0D2F804E039430EEA030E4EEA0C431C
:100A50001943516021680A6842F001020A60656426
:100A600084F84160F8BD00002FFFFF00FEF8E0FFB2
:100A7000F0B587B0044614216846FFF761FC2349AE
:100A8000206888423FD12248016841F480410160DA
:100A9000006800F4804005901D480C30016841F06A
:100AA00040010160016801F040010591016841F0D9
:100AB00020010160006800240A26694600F0200039
:100AC00005904020009002251248CDE90154CDE95F
:100AD0000346FFF78DFD09210F4F4FF498600090FA
:100AE000CDE90154CDE9034169463846FFF780FD61
:100AF0004FF440700090CDE90154CDE903466946BA
:100B00003846FFF775FD07B0F0BD000000500052F9
:100B1000D4440258001802580014025810B500F0CE
:100B2000DFFE05490968054AC1F30211515C01F075
:100B30001F01C84010BD000020440258F4310008D5
:100B4000494930B5484C0B1D0A68143409681D68C2
:100B5000246802F00303C5F30012C1F30531C4F3A6
:100B6000CC04002914FB02F200EE102AF8EE400A31
:100B700075D03F4A9FED3D1AB7EE000A6BB1DFED2D
:100B80003D1A012B01D0022B64D002EE101A11681D
:100B9000F8EE422A81EEA22A21E0334C283C236859
:100BA0009B0612D5344B246801EE901A1168C4F3E9
:100BB000C104F8EE612AE34001EE903AC1F3080166
:100BC000F8EE611A81EEA22A0BE001EE901ADFED39
:100BD0002B2A00BFF8EE611A116882EEA12AC1F338
:100BE000080101EE901A1168F8EE611A40EE811AC0
:100BF00071EE800A62EE200AC1F3462101EE101A5E
:100C0000B8EE411A31EE001AC0EE811ABCEEE11ABC
:100C100080ED001A1168C1F3064101EE101AB8EE1A
:100C2000411A31EE001AC0EE811ABCEEE11A80EDD5
:100C3000011A1168C1F3066101EE101AB8EE411AEB
:100C400031EE000A80EE801ABCEEC10A80ED020A85
:100C500030BD04E001EE901ADFED092ABAE7002169
:100C6000016041608160F3E72844025800000039C8
:100C7000384402580024744A0090D0030024744C75
:100C800020BCBE4B494930B5484C0B1D0A681C348A
:100C900009681D68246802F00303C5F30022C1F34C
:100CA0000551C4F3CC04002914FB02F200EE102A13
:100CB000F8EE400A75D03F4A9FED3D1AB7EE000AA4
:100CC0006BB1DFED3D1A012B01D0022B64D002EE97
:100CD000101A1168F8EE422A81EEA22A21E0334C64
:100CE000283C23689B0612D5344B246801EE901AE9
:100CF0001168C4F3C104F8EE612AE34001EE903AB2
:100D0000C1F30801F8EE611A81EEA22A0BE001EEB0
:100D1000901ADFED2B2A00BFF8EE611A116882EEFF
:100D2000A12AC1F3080101EE901A1168F8EE611AC8
:100D300040EE811A71EE800A62EE200AC1F346216C
:100D400001EE101AB8EE411A31EE001AC0EE811A07
:100D5000BCEEE11A80ED001A1168C1F3064101EE04
:100D6000101AB8EE411A31EE001AC0EE811ABCEE2C
:100D7000E11A80ED011A1168C1F3066101EE101A43
:100D8000B8EE411A31EE000A80EE801ABCEEC10ABC
:100D900080ED020A30BD04E001EE901ADFED092A71
:100DA000BAE70021016041608160F3E728440258FE
:100DB00000000039404402580024744A0090D003D7
:100DC0000024744C20BCBE4B2DE9FC5F044650F857
:100DD000241B002500902E460801FE4FDFF8F88303
:100DE0001DD5606E50B1B0F5801F0CD0B0F5001F5E
:100DF0000ED0B0F5401F1DD001250FE0386840F43B
:100E00000030386016E00221201D01F0C1FB03E034
:100E10000098022101F04CFC05000BD02E462088E2
:100E2000C00523D5606D05281ED2DFE800F00C1147
:100E3000161B1B00626ED8F8001021F440111143FC
:100E4000C8F80010EBE7386840F40030386009E07B
:100E50000021201D01F09CFB03E00098002101F01F
:100E600027FC05466DB100E001252E46208880054F
:100E700028D5A06D80281ED00CDC90B140280ED162
:100E800014E0626DD8F8001021F007011143C8F892
:100E90000010EBE7C02813D0B0F5807F10D00125FB
:100EA0000FE0386840F40030386009E00021201D70
:100EB00001F06EFB03E00098002101F0F9FB05460C
:100EC00095B12E462088DFF81093400509F10809F6
:100ED0002CD5D4F8A400B0F5800F20D00DDCA0B143
:100EE000B0F5001F0FD115E0A26DD8F8001021F465
:100EF000E0711143C8F80010E4E7B0F5C00F13D05B
:100F0000B0F5000F10D001250FE0386840F4003034
:100F1000386009E00021201D01F03AFB03E0009851
:100F2000002101F0C5FB054675B12E46208800055D
:100F30002DD5D4F8A800B0F1007F21D00EDCA8B1E7
:100F4000B0F1807F10D116E0D4F8A420D9F80010B9
:100F500021F460011143C9F80010E7E7B0F1407FC8
:100F600013D0B0F1806F10D001250FE0386840F445
:100F70000030386009E00021201D01F009FB03E08A
:100F80000098002101F094FB05466DB12E462068C3
:100F900080011FD5A06CD8B110280FD0202812D006
:100FA000302815D0012514E0D4F8A820D9F8001075
:100FB00021F0E0611143C9F80010E8E7386840F417
:100FC0000030386004E00221201D01F0E1FA0546FE
:100FD0006DB12E462088C0042BD5E06DB0F5005FC2
:100FE00020D00DDCA0B1B0F5805F0FD115E07A48BC
:100FF000A26C001F016821F0300111430160E9E794
:10100000B0F5405F13D0B0F5804F10D001250FE050
:10101000386840F40030386009E00021201D01F0FC
:10102000B7FA03E00098002101F042FB054685B1C4
:101030002E462088800429D5206EB0F5403F23D06D
:1010400010DC08B3B0F5803F14D0B0F5003F0FD1ED
:1010500015E0E26DD8F8001021F4E0411143C8F822
:101060000010E6E7B0F5802F0ED0B0F5A02F0BD022
:1010700001250AE00121201D01F08AFA03E0009811
:10108000012101F015FB05468DB12E462088400454
:101090002AD5D4F8AC00B0F1405F23D010DC08B3FF
:1010A000B0F1805F14D0B0F1005F0FD115E0226E77
:1010B000D8F8001021F4E0211143C8F80010E5E74A
:1010C000B0F1804F0ED0B0F1A04F0BD001250AE057
:1010D0000121201D01F05CFA03E00098012101F0DC
:1010E000E7FA05466DB12E46208800041FD5E06E54
:1010F000D8B1B0F1805F0ED0B0F1005F10D0012503
:1011000014E0D4F8AC20D9F8001021F0E0411143EC
:10111000C9F80010E8E7386840F40030386004E0AF
:101120000121201D01F034FA05466DB12E462068DC
:10113000C0011ED5606CD0B101280ED0022811D09C
:10114000032814D0012513E0E26ED8F8001021F036
:1011500040511143C8F80010E9E7386840F4003006
:10116000386004E00221201D01F012FA054685B125
:101170002E462068DFF85CB04002ABF11C0B57D55F
:101180001648016841F480710160FFF755FB824603
:101190000EE01148626C001F016821F00301114349
:1011A0000160E6E7FFF748FBA0EB0A0064283DD8A2
:1011B0000A480068C005F5D57DBBDFF81CA0B4F86F
:1011C000B0100AF1200ADAF8000001F4407100F4CE
:1011D000407005E02C440258504402580048025820
:1011E000884211D0DAF80010DAF8002021F44071BA
:1011F00042F48032CAF80020DAF8002022F480326B
:10120000CAF80020CAF80010D4F8B000B0F5807F0A
:1012100021D1FFF711FB019019E008E0FFF70CFB6B
:101220000199411A41F28830814210D903252E4696
:101230002078DFF830A4C0073DD0A06F182838D040
:1012400026DC80B3082829D0102825D12CE0DAF834
:1012500000008007E2D5D4F8B010C1F301200328C4
:1012600058460DD0016821F47C510160B4F8B020DB
:10127000DAF80010C2F30B021143CAF80010D7E7E6
:10128000F94A036802EA111223F47C511143ECE796
:1012900020280ED028280CD001250BE00121201D8C
:1012A00001F076F904E004E00098012101F000FA71
:1012B00005465DB12E46207880071ED5606F062852
:1012C00019D2DFE800F0160C11161616A26FDAF824
:1012D000001021F038011143CAF80010EBE701219A
:1012E000201D01F055F903E00098012101F0E0F91B
:1012F000054675B100E001252E46207840071FD530
:10130000D4F89000062819D2DFE800F0160C111668
:101310001616626FDAF8001021F007011143CAF8BF
:101320000010EAE70121201D01F032F903E00098E6
:10133000012101F0BDF905469DB100E001252E46D1
:10134000207880062BD5D4F88C00B0F1405F24D0F3
:1013500011DC10B3B0F1805F15D0B0F1005F10D197
:1013600016E0D4F89020D9F8001021F007011143BD
:10137000C9F80010E4E7B0F1804F0ED0B0F1A04FF3
:101380000BD001250AE00021201D01F001F903E046
:101390000098022101F08CF905468DB12E46207887
:1013A00040062BD5D4F89800B0F5406F24D011DC5E
:1013B00010B3B0F5806F15D0B0F5006F10D116E006
:1013C000D4F88C20DAF8001021F0E0411143CAF87B
:1013D0000010E4E7B0F5805F0ED0B0F5A05F0BD051
:1013E00001250AE00021201D01F0D2F803E0009859
:1013F000022101F05DF905468DB12E4620780006E8
:101400002BD5D4F89C00B0F5C04F24D011DC10B31C
:10141000B0F5005F15D0B0F5804F10D116E0D4F8CC
:101420009820D9F8001021F4E0511143C9F80010B8
:10143000E4E7B0F5004F0ED0B0F5204F0BD00125FA
:101440000AE00021201D01F0A3F803E0009802212A
:1014500001F02EF905464DB12E46207800071ED525
:10146000D4F88000B0F5805F0AD00FE0D4F89C205B
:10147000D9F8001021F460411143C9F80010ECE7DD
:101480000098022101F014F900B10126D4F880205F
:10149000DAF8001021F440511143CAF80010207806
:1014A000C00613D5D4F89400B0F5807F05D100981C
:1014B000022101F0FDF800B10126D4F89420D9F8FA
:1014C000001021F440711143C9F800102068000396
:1014D00016D5D4F8A00038B1B0F5803F09D0B0F5EA
:1014E000003F0BD001250AE00021201D01F050F83B
:1014F00003E00098022101F0DBF8054685B12E4695
:101500002068400322D5D4F88400B0F5801F11D0A4
:10151000B0F5001F13D0B0F5401F15D0012514E021
:10152000D4F8A020D9F8001021F440311143C9F8B3
:101530000010E5E7386840F40030386004E00098B7
:10154000012101F0B5F8054655B12E462068C003CB
:101550001CD5E06C70B1B0F5803F10D0012514E0CF
:10156000D4F88420DAF8001021F440111143CAF8AD
:101570000010EBE7386840F40030386004E00221E6
:10158000201D01F005F80546CDB12E4620688000EB
:1015900005D50098022101F08BF800B101262068E2
:1015A00080031BD5E06FB8B1B0F5807F10D0B0F5E7
:1015B000007F11D0B0F5407F0ED001250DE0294805
:1015C000E26C0838016821F4803111430160DDE7E5
:1015D000386840F400303860F5B32E462068C00209
:1015E00007D5226FD8F8001021F000411143C8F848
:1015F00000102068C00008D5D4F8B420DBF8001033
:1016000021F480411143CBF800102068800207D5F7
:10161000A26ED8F8001021F080711143C8F80010B4
:10162000206840000CD5DBF8001021F40041CBF815
:101630000010DBF80010D4F8B8201143CBF80010EC
:101640002068002807DA0748226D0838016821F071
:1016500040511143016000E008E086B10120BDE87F
:10166000FC9F000054440258CFFFFF00E26FDAF8FD
:10167000001021F440711143CAF80010AEE70020B9
:10168000EDE700002DE9F05F04000F467ED0DFF8A3
:101690003882D8F8000000F00F00B8420CD2D8F819
:1016A000001021F00F013943C8F80010D8F80000ED
:1016B00000F00F00B84269D12078844D40070AD568
:1016C0002069296801F07001884204D9296821F055
:1016D00070010143296020787C4E361D00070AD531
:1016E0006069316801F07001884204D9316821F0E5
:1016F0007001014331602078C0060AD5A0693168C5
:1017000001F4E061884204D9316821F4E0610143C9
:1017100031602078DFF8B4B180060BF1080B0CD5EE
:10172000E1695846DBF8002002F07002914204D9CA
:10173000026822F070020A430260207880070AD50E
:10174000E068296801F00F01884204D9296821F076
:101750000F01014329602078C0073ED05B49A26891
:101760002868183920F470601043286060680228E7
:1017700018D0032819D00968012819D04907002971
:101780004ADADFF848A1AAF1080A00E044E0DAF8F2
:10179000002022F007020243CAF80020FFF74CF8AD
:1017A000814612E009688903E9E709688901E6E7EB
:1017B000C905E4E7FFF740F8A0EB090141F28830E2
:1017C000814202D90320BDE8F09F6168DAF8000089
:1017D00000F03800B0EBC10FECD1207880070AD5BB
:1017E000E068296801F00F01884204D2296821F0DD
:1017F0000F0101432960D8F80010404601F00F01A5
:10180000B9420BD9016821F00F013943016000682A
:1018100000F00F00B84201D00120D4E72078400743
:101820000AD52069296801F07001884204D229682C
:1018300021F0700101432960207800070AD5606912
:10184000316801F07001884204D2316821F07001E2
:10185000014331602078C0060AD5A069316801F4DF
:10186000E061884204D2316821F4E06101433160D3
:10187000207880060CD5E1695846DBF8002002F09C
:101880007002914204D2026822F070020A430260A0
:1018900000F06CF80E492A682B68C2F3032203F0AB
:1018A0000F038A5CC95C02F01F0201F01F01D040E7
:1018B000084A20FA01F111600749086007480068EA
:1018C000BDE8F05FFEF7F4BF002000521844025854
:1018D000F431000818000024140000240C00002437
:1018E00030B500F043F80B4A0B490C4B15681468EF
:1018F000C5F3032204F00F048A5C095D02F01F02A5
:1019000001F01F01D040064A20FA01F11960106071
:10191000084630BD18440258F4310008180000246D
:101920001400002400B5FFF7DBFF05490968054AEC
:10193000C1F30211515C01F01F01C84000BD00005D
:101940001C440258F431000800B5FFF7C9FF0549EF
:101950000968054AC1F30221515C01F01F01C8402A
:1019600000BD00001C440258F4310008454970B520
:1019700045480968434B103B11F0380208D001116B
:10198000082A03D0102A0BD0182A0BD0084670BDA5
:1019900019688906FBD51968C1F3C101C84070BD3B
:1019A0003A4870BD3749374D18310C1D24350A6847
:1019B000096826682D6802F0030406F00102C1F3ED
:1019C0000511C5F3CC0515FB02F200EE102AB8EEA6
:1019D000400AE9B32F4ADFED2E0AB7EE001A6CB1C8
:1019E000DFED2D1A012C01D0022C43D002EE101A8B
:1019F0001068F8EE422A81EEA22A1EE01C68A406B6
:101A000011D51B6801EE901A1168C3F3C103F8EEFB
:101A1000612AD84001EE900AC1F30800F8EE611A7D
:101A200081EEA22A0BE001EE901ADFED1C2A00BF26
:101A3000F8EE611A106882EEA12AC0F3080001EEE8
:101A4000900AF8EE611A40EE201A31EE810A00E0A9
:101A500015E022EE000A1068C0F34620401C00EE9C
:101A6000900AF8EE600A80EE201ABCEEC10A10EE71
:101A7000100A70BD01EE901ADFED092AD8E70020A8
:101A800070BD0000104402580090D00340787D01E2
:101A900000000039304402580024744A0024744C79
:101AA00020BCBE4B2DE9F05F04007CD0FF4F2078B6
:101AB000FE4D1837DFF8F493103DC00748D0D9F831
:101AC0000000396800F03800102815D0182803D11C
:101AD00001F0030002280FD06068B0F5803F12D0FB
:101AE00010B1B0F5A02F18D0286820F480302860FD
:101AF000286820F4802009E02868800328D56068E1
:101B00000028D2D024E0286840F480302860606843
:101B100088B1FEF791FE064609E0286840F480206F
:101B20002860F0E7FEF788FE801B64287ED82868CE
:101B30008003F7D50CE0FEF77FFE064605E000BF08
:101B4000FEF77AFE801B6428F0D828688003F7D45B
:101B5000207841F20308D54E0C3E800753D5D9F8C2
:101B60000000396810F038000ED0182801D188071D
:101B70000AD0E068A8B3296821F01901014329605F
:101B8000FEF75AFE82461BE02868400702D5E0684F
:101B900000288AD0FEF74AFE40451BD8206940281D
:101BA00012D0316800E0CCE021F47C3141EA003011
:101BB000306028E0FEF740FEA0EB0A000228B5D80E
:101BC00028684007F6D5E5E7306820F47C3040F41B
:101BD0000030EDE7207C316821F0FE4141EA0060F1
:101BE000E6E7FFE7286820F001002860FEF724FE02
:101BF000824605E0FEF720FEA0EB0A00022895D8F9
:101C000028684007F6D42078C0065FD5D9F80000D0
:101C1000DFF898B2396800F03800ABF1040B0828FF
:101C200012D0182805D101F0030000E0EAE00128F5
:101C30000AD0E0690028286838D040F08000286089
:101C4000FEF7FAFD824623E02868C00523D5E06947
:101C5000802876D11FE0206A202821D0316821F029
:101C6000F84141EA8060306030E000BF94F8201015
:101C7000DBF8002022F07C5242EA0161CBF8001030
:101C800024E000BFFEF7D8FDA0EB0A00022896D89A
:101C90002868C005F6D5FEF7C9FD4045E6D8DAE765
:101CA000306820F0F84040F08040DCE720F0800011
:101CB0002860FEF7C1FD064605E000BFFEF7BCFD4B
:101CC000801B02289BD82868C005F7D4207800071D
:101CD00029D576486169643000298046016811D0B1
:101CE00041F001010160FEF7A7FD064605E000BFD7
:101CF000FEF7A2FD801B0228C9D8D8F80000800793
:101D0000F6D510E021F001010160FEF795FD0646D1
:101D100005E000BFFEF790FD801B022872D8D8F8BE
:101D200000008007F6D42078800623D5A06900281B
:101D3000286810D040F480502860FEF77DFD0646EC
:101D400005E02CE1FEF778FD801B02285AD82868B0
:101D50008004F7D50EE020F480502860FEF76CFD7B
:101D6000064604E0FEF768FD801B02284AD8286872
:101D70008004F7D4207840074FD5DFF83481D8F8B5
:101D8000001041F48071C8F80010FEF755FD0646BA
:101D900005E000BFFEF750FD801B642832D8D8F85C
:101DA0000000C005F6D5414EA068603601280AD073
:101DB00008B1052813D0306820F001003060306889
:101DC00020F0040002E0306840F001003060A068BC
:101DD00041F2883A90B1FEF72FFD80460AE0306864
:101DE00040F004003060EEE7FEF726FDA0EB0801AE
:101DF000514507D830688007F6D50EE0FEF71CFD88
:101E0000804607E084E000BFFEF716FDA0EB080166
:101E100051457DD830688007F6D4606AF0B3DFF8AA
:101E20008C80D9F8001008F12008C1F3C201032901
:101E30006FD00228286820F08070286003D0FEF759
:101E4000FBFC044680E0FEF7F7FC064605E000BF19
:101E5000FEF7F2FC801B022873D828688001F7D4B3
:101E6000E26A40F2F331386854F8283F884340EA88
:101E7000021018433860217B4FF4FE0C22894FF08A
:101E8000FE47208A4902267D521E401EA1F50071A0
:101E900089B20CEA0040C2F3080200E081E011437D
:101EA000761E0143014807EA066203E01044025827
:101EB000004802581C3011433B4AC8F80010016822
:101EC00021F00101016011684FF6F876236AB143F1
:101ED00041EAC30111600168A26921F00C011143BC
:101EE00001600168E26921F00201114301600168AB
:101EF00041F480310160016841F400310160016802
:101F000041F480210160016841F00101016001E0BC
:101F100017E01DE0286840F080702860FEF78CFC18
:101F2000044604E0FEF788FC001B022809D8286854
:101F30008001F7D535E000BFFEF77EFC001B0228CC
:101F400002D90320BDE8F09F28688001F4D428E07E
:101F500039680128D8F8000021D0A26A01F00303F3
:101F600093421CD1E26AC1F305118A4217D1216B59
:101F7000C0F30802491E8A4211D1616BC0F34622A8
:101F8000491E91420BD1A16BC0F30642491E9142FA
:101F900005D1E16BC0F30660491E814201D00120EA
:101FA000D0E70020CEE700003444025870B50400AA
:101FB0000D4603D094F82C0010B107E0012070BD4D
:101FC000002084F82D00204600F018F8022084F844
:101FD0002C002068211DFEF7F3F9D4E90002294600
:101FE000FEF73EFA04480121026842F00042026016
:101FF00084F82C10002070BD00400052FEF79ABA01
:1020000010B5044690F82C00022804D094F82C0057
:10201000012801D0012010BD022084F82C00206886
:10202000FEF703FA012084F82C00002010BD000008
:1020300070B5044690F82C000D46022804D0012803
:1020400003D0052801D0012070BD022084F82C00A7
:102050002068FEF7F3F92868022805D05FF0010038
:1020600084F82C00002070BD0520F9E7401EB0F177
:10207000807F10B501D3012010BD4FF0E0246061D6
:102080000F21601700F0BAFF0020A0610721216135
:1020900010BD30B590F87C10012918D0012280F8CD
:1020A0007C202421C0F880100022202450F8601BDE
:1020B0000B680D6823F0005325F001050D604260A8
:1020C00050F8601C0B6004620277104630BD02209D
:1020D00030BD70B5044690F87C0001281DD0012267
:1020E00084F87C202420C4F88000206805680268F9
:1020F00022F0010202602068826822F060620A43D6
:102100008260204600F080FC2268202100201560BB
:10211000C4F8801084F87C0070BD022070BD70B5DA
:10212000044690F87C0001281DD0012284F87C2010
:102130002420C4F8800020680568026822F00102AB
:1021400002602068826822F060420A438260204672
:1021500000F05AFC2268202100201560C4F880108D
:1021600084F87C0070BD022070BD10B5040003D05F
:10217000D4F8800010B107E0012010BD002084F8E1
:102180007C00204600F026F82420C4F88000206857
:10219000016821F001010160204600F0FBFC0128EC
:1021A000EBD0A06A10B1204600F060FC20684168C6
:1021B00021F4904141602068816821F02A0181600A
:1021C0002068016841F0010101602046BDE810402F
:1021D00000F0B0BC70B586B0044614216846FEF726
:1021E000AFF81C492068884231D11B48016841F48E
:1021F00000210160006800F40020059016480838AE
:10220000016841F480710160016801F480710591F9
:10221000016841F00101016000680225002469465F
:1022200000F001000590082628020090CDE9015435
:102230000A48CDE90346FEF7DBF901200090CDE91D
:10224000015407486946CDE90346FEF7D1F906B0C7
:1022500070BD0000004C0040E844025800200258C5
:10226000000002582DE9F8430446D0F880001F46CC
:1022700016460D46202852D1DDB1D6B194F87C0027
:1022800001284CD0012084F87C0021224FF0000866
:10229000C4F88880C4F880201834FEF7CDFA81464F
:1022A00054F8100CA687E687183CB0F5805F03D081
:1022B00004E00120BDE8F883206920B12E46002506
:1022C00084F87C8010E00026FAE78021204600F0A8
:1022D00039FEB8B9C6B116F8010B21688862B4F8A6
:1022E0005600401EA4F85600B4F856004B464FF076
:1022F000000200970028E8D14FF04001204600F08E
:1023000021FE38B10320D5E735F8020B2168C0F370
:102310000800E3E72020C4F880000020CAE702207C
:10232000C8E7FEE7F0B587B01C216846FEF708F85D
:1023300015480022134F082301260221C0E900722C
:102340004027C0E90263102400F11C0EC0E90447D5
:102350008E02CF024FF4807CC0F818C08EE8C40013
:10236000062582628DE82A00CDE904410395069195
:102370006946FFF71BFE002801D0FEF71FF807B0E3
:10238000F0BD000040410052200000242DE9F04340
:1023900087B014216846FDF7D3FF3C48016841F03F
:1023A00001010160016801F001010591016841F03E
:1023B00010010160016801F010010591016841F010
:1023C00004010160016801F004010591016841F018
:1023D00040010160016801F040010591016841F090
:1023E00008010160016801F008010591016841F4EC
:1023F00080710160016801F480710591016841F00C
:1024000020010160016801F020010591016841F09F
:102410008001016000684FF40046DFF874800022FC
:1024200000F08000314605904046FEF7F9F9DFF8EC
:102430006490F711002239464846FEF7F1F900246E
:102440000096012569460220CDE901041248CDE934
:102450000345FEF7CDF800966946CDE901544046A4
:102460000394FEF7C5F800976946CDE90154484644
:102470000394FEF7BDF810206946CDE90004074833
:102480000294FEF7B5F807B0BDE8F083E0440258C7
:10249000000802580020025800000258001C025890
:1024A0000C48002110B50122094CFF23C0E902218C
:1024B000C0E904218161C1610162C0E90043FEF706
:1024C00081FA002803D0BDE81040FDF777BF10BDAA
:1024D00000500052540000241848002110B5164C3A
:1024E0000C224FF4E1330460C0E90131C160C0E95E
:1024F00004128161C161016241628162FFF735FEB0
:1025000008B1FDF75BFF0D480021FFF708FE08B199
:10251000FDF754FF09480021FFF7DBFD08B1FDF787
:102520004DFF0648FFF7B5FD002803D0BDE8104079
:10253000FDF744BF10BD0000004C0040A000002487
:10254000FEE7FEE770472DE9F041984616460F4634
:102550000446069D08E0681C06D0FEF76DF9A0EB66
:102560000800A8420AD84DB120688068384000D0E1
:102570000120B042EFD10020BDE8F081042084F8B2
:102580004100606C40F0010060640120F4E700004D
:102590002DE9F047454D044689464FF0000A28686A
:1025A000C04380070AD0414E283E306820F080604A
:1025B0003060FEF741F90746B04608E00120BDE86B
:1025C000F08700BFFEF738F9C01B022867D8D8F89B
:1025D00000000001F6D4206829684FF4FE0721F4BA
:1025E0007C313E0241EA00302860207AA389B4F8A9
:1025F00004C040022D4D2D495B1E227CACF1010C24
:102600001035091DA0F5007080B2521ECCF3080CE5
:1026100007EA034340EA0C00184306EA026210434B
:1026200028600868626920F0C000104308600A68EA
:10263000A06922F0200202430A60281D0A6822F0E5
:1026400010020A6002684FF6F873E4699A4342EA9E
:10265000C40202600868B9F1000F40F010020A607D
:1026600011D00868B9F1010F11D040F400100860D2
:10267000D8F80000444640F08060C8F80000FEF73B
:10268000DBF805460DE0086840F40020EFE740F471
:102690008010ECE7FEF7D0F8401B022801D9032098
:1026A0008DE720680001F5D5504688E72844025898
:1026B0002DE9F047454D044689464FF0000A286849
:1026C000C04380070AD0414E283E306820F0805039
:1026D0003060FEF7B1F80746B04608E00120BDE8DB
:1026E000F08700BFFEF7A8F8C01B022867D8D8F80B
:1026F00000008000F6D4208829684FF4FE0721F0FE
:102700007C713E0241EA00502860207AA389B4F827
:1027100004C040022D4D2D495B1E227CACF1010C02
:102720001835091DA0F5007080B2521ECCF3080CBC
:1027300007EA034340EA0C00184306EA026210432A
:1027400028600868626920F44060104308600A68E5
:10275000A06922F4007202430A60281D0A6822F46C
:1027600080720A6002684FF6F873E4699A4342EA9D
:10277000C40202600868B9F1000F40F480720A6078
:1027800011D00868B9F1010F11D040F080700860D5
:10279000D8F80000444640F08050C8F80000FEF72A
:1027A0004BF805460DE0086840F48000EFE740F480
:1027B0000000ECE7FEF740F8401B022801D9032097
:1027C0008DE720688000F5D5504688E728440258F8
:1027D0002DE9F8431D4C102700254FF6FF790126FF
:1027E00000951B484A46C4E90067C4E902652146D2
:1027F000FFF71EFC0120FDF78BFE02204A46C4E9CC
:10280000000713482146C4E90265FFF711FC0321C4
:102810004FF00408E5604A4684E882010C482146EE
:10282000FFF706FC40F2222000904A462146C4E908
:1028300002600748C4E90087FFF7FAFBBDE8F843E8
:10284000034840F2A521FFF7DBBB00002C01002468
:10285000200000247047FDF7F5BF000070B5CCB034
:102860004C212FA8FDF76CFD202142A8FDF768FD43
:10287000BC216846FDF764FD0220FEF779F8264882
:1028800000242649026842F44042026002680A6855
:1028900042F001020A60096801F001014A910168F1
:1028A0008904FCD538AB02202F90402533950826AB
:1028B0000121329183E851007822CDE93B203EAAE4
:1028C0003D900C2182E813002FA84194FFF7EAF80D
:1028D00008B172B6FEE74FF48062CDE945653F204E
:1028E000CDE9475242AA4995032182E81300042109
:1028F00042A8FEF7C7FE08B172B6FEE70848119479
:1029000012941D9400906846FEF75EFA002801D0EC
:1029100072B6FEE74CB070BD184802582C0400583F
:10292000020000032E48F0B52E4A016841F4700100
:102930000160106800F00F00072804D2106820F032
:102940000F00C01D106028490020274C10340B6870
:10295000264D43F001030B6020600B682B400B6099
:10296000136803F00F03072B04D9136823F00F0338
:10297000DB1D13601C4C1E4A18341E4B261D371DD0
:102980002060194C1C4D28343060261D3860371DDE
:1029900023603B1D35601C1D3A60251D2E1D1860EF
:1029A000331D22602860326018600A680E4B134C99
:1029B00022F4802260330A60186020686FF30F00F1
:1029C000B0F1005F03D20E490120C1F8080143F2C3
:1029D000D2000C49024B4A03803B08601A60F0BDEC
:1029E00088ED00E000200052004402587FEDF6EA36
:1029F00080020101000202020000FF010010005CE1
:102A000000800051004000523FB514A1D1E90023DD
:102A100014A1CDE90023D1E90021CDE90221416EC5
:102A2000B9B1016802AC8A688968C2F34262490F91
:102A30001DF80150615C2D01B5FBF1F1A0F86A10A1
:102A40001DF80210A25C0901B1FBF2F1A0F86810B8
:102A50003FBD0121A0F86A10F8E700000101010361
:102A600007010000080402040801010190F8281081
:102A7000C90706D00168C36A4A6822F400321A43C3
:102A80004A6090F82810890706D50168036B4A68E8
:102A900022F480321A434A6090F82810490706D57C
:102AA0000168436B4A6822F480221A434A6090F816
:102AB0002810090706D50168836B4A6822F4004292
:102AC0001A434A6090F82810C90606D50168C36BFE
:102AD0008A6822F480521A438A6090F82810890686
:102AE00006D50168036C8A6822F400521A438A6092
:102AF00090F82810490611D50168436C4A6822F401
:102B000080121A434A60416CB1F5801F06D10168FA
:102B1000836C4A6822F4C0021A434A6090F8281075
:102B2000090606D50168C26C486820F400201043ED
:102B300048607047F8B500260446C0F88860FDF785
:102B40007BFE054620686FF07E470068000708D5C9
:102B500000222B464FF400112046009700F0F2F9B6
:102B600060B92068006840070AD500222B464FF460
:102B700080012046009700F0E5F908B10320F8BD78
:102B80002020C4F8800084F87C60C4F88400002011
:102B9000F8BD00002DE9F04304468068D94F87B0A6
:102BA0002268D4E90465E369616E304316681D4309
:102BB0002843D54B002501433E400E431660206854
:102BC000E268416821F44051114341602268A169E3
:102BD0009A4201D0206A01439668DFF830C3CC4F97
:102BE000CC4806EA0C060E4396602168666ACA6AFB
:102BF00022F00F023243CA622268BA420ED1006844
:102C000000F03800182873D047DCB8B3082879D012
:102C100010286FD178E028287ED17BE0BE498A4217
:102C200009D1006800F00700062875D2DFE800F03F
:102C3000546A6C6E7072B9498A4209D1006800F01A
:102C40000700062868D2DFE800F0475D5F61636532
:102C5000B3498A4209D1006800F0070006285BD218
:102C6000DFE800F03A5052545658AE498A420BD130
:102C7000006800F0070006284ED200E010E0DFE810
:102C800000F02B4143454749A7498A420AD10068D1
:102C900000F03800182839D0B7DD2028BBD13CE03F
:102CA00001203AE0A1498A4209D1006800F00700FA
:102CB000062831D2DFE800F01026282A2C2E9C4965
:102CC0008A420BD1006800F00700062824D2DFE812
:102CD00000F003191B1D1F2100201EE09A421BD18A
:102CE0008C48001D006800F00700062814D202E09E
:102CF0000CE007E010E0DFE800F0030507090B0D2A
:102D000002200AE0042008E0082006E0102004E089
:102D1000202002E0402000E080208649DFF8188271
:102D20009A42864A4FF400434FEA21174FF00006BB
:102D30004ED110281AD006DC022809D004280BD066
:102D400008287DD10DE020283ED0402878D13DE0F4
:102D5000FDF7E4FE014610E06846FDF7F1FE01993B
:102D60000BE003A8FDF78EFF049906E010688006CB
:102D700004D51068C0F3C100C140C1B3606A676880
:102D800038F8102007EB4703B1FBF2F0834257D825
:102D9000B0EB073F54D8002308461946FDF798FAD0
:102DA0000902020241EA106170084FEA3700101868
:102DB0003A4671410023FDF78BFA614AA0F5407154
:102DC00091423DD821684CE03946D7E71946D5E70E
:102DD000D4F81CC04FF6EF799C4552D108281AD080
:102DE00006DC60B101280DD0042829D10EE039E0BD
:102DF000102815D0202840D040287CD13FE0FEF795
:102E000091FD01E0FEF7A0FD014610E06846FDF7E8
:102E100097FE01990BE003A8FDF734FF049906E043
:102E20001068800604D51068C0F3C100C140C9B164
:102E3000636A606838F81330B1FBF3F1490000E0D1
:102E400059E001EB5001B1FBF0F080B2A0F11001AC
:102E5000494550D84FF6F0732168C0F3420218403C
:102E60001043C8600120A4F86A00A4F8680028464E
:102E7000E666266707B0BDE8F0833946D8E719460D
:102E8000D6E7082819D005DC58B101280CD0042851
:102E900031D10DE0102815D020282ED040282AD17D
:102EA0002DE0FEF73FFD01E0FEF74EFD014610E08C
:102EB0006846FDF745FE01990BE003A8FDF7E2FE29
:102EC000049906E01068800605D51068C0F3C100BB
:102ED000C1400029C6D0636A606838F81330B1FB7E
:102EE000F3F101EB5001B1FBF0F080B2A0F1100161
:102EF00049457FF667AF0125B4E73946EBE7194648
:102F0000E9E70000F369FFCF000C0058FFF4FF1160
:102F10000010014054440258004400400048004062
:102F2000004C004000500040001401400078004078
:102F3000007C00400090D003DC31000800440258BF
:102F4000FFFC0F002DE9F0479A4617460E4604464F
:102F5000089D4FF000094FF0200839E0681C37D079
:102F6000FDF76AFCA0EB0A00A84222D80DB3206846
:102F7000016849072CD5C069C043000528D42368DF
:102F80004FF40061196221680B6823F4D0730B6061
:102F900021688B6823F001038B60C4F88080C4F83B
:102FA0008480C4F8888000BF032084F87C90BDE84A
:102FB000F08721680B6823F4D0730B6021688B685D
:102FC00023F001038B60C4F88080C4F88480EBE7B1
:102FD0002068C06936EA000004D00020B842BDD0A5
:102FE0000020E4E70120F9E7FEE70000014A02497A
:102FF00000F024B8093100081C000024090700284B
:103000004FEA116104DB00F1E02080F80014704702
:1030100000F00F0000F1E02080F8141D704702E07E
:1030200008C8121F08C1002AFAD170477047002053
:1030300001E001C1121F002AFBD170472DE9F041C8
:1030400016460F460446002503E03946B047641C87
:103050006D1C20780028F8D12846BDE8F0810000DA
:10306000F8B526A04FF04042002104684FF4000359
:103070001046009402C0491C9942FBD3002411461B
:10308000204620C9854200D0641C401C9842F8D3D9
:103090009CB900201146401C0C68E443984210C1C2
:1030A000F9D3002410462546EE4302C8B14200D0B1
:1030B000641C6D1C9D42F7D324B111A0FFF796FF4D
:1030C000A000F8BD002011466B461C5C401C042883
:1030D00001F8014BF9D30024204612F8015B195C7A
:1030E0008D4200D0641C401C0428F6D324B104A0F7
:1030F000FFF77CFF2046F8BD0020F8BD55A55AAA71
:10310000B4EDCEF30000000013B5044801224FF4E3
:103110007A736946FFF7A6F800981CBDA00000244A
:10312000FDF798FBFFF79AFBFFF730F9FFF7FAF886
:10313000FFF7B6F9FFF7D0F9FFF74AFB16A0FFF744
:1031400055FFFFF78DFF28B31AA000BFFFF74EFF12
:103150004FF400441B4D1C4F4FF4FA78E611214602
:1031600001222846FDF75CFB012231463846FDF777
:1031700057FB4046FDF7CCF9002221462846FDF7D3
:103180004FFB002231463846FDF74AFB4046FDF72B
:10319000BFF9E4E70DA0D9E7534452414D20573918
:1031A00038323547364B48B3F5CABCBBAFB3C9B9A3
:1031B000A60D0A00534452414DB2E2CAD4CAA7B088
:1031C000DC0D0A0000080258002002585344524106
:1031D0004DB2E2CAD4B3C9B9A60D0A00010002007B
:1031E0000400060008000A000C0010002000400047
:1031F000800000010000000001020304010203043A
:1032000006070809243200080000002420000000FE
:103210001E30000844320008200000242005000071
:103220002E30000800000000000000000100000037
:1032300010000000000000000090D0030090D003B8
:04324000000000008A
:040000050800029954
:00000001FF
